{
  "_format": "hh-sol-artifact-1",
  "contractName": "AppointmentRegistry",
  "sourceName": "contracts/AppointmentRegistry.sol",
  "abi": [
    {
      "inputs": [],
      "stateMutability": "nonpayable",
      "type": "constructor"
    },
    {
      "inputs": [],
      "name": "AccessControlBadConfirmation",
      "type": "error"
    },
    {
      "inputs": [
        {
          "internalType": "address",
          "name": "account",
          "type": "address"
        },
        {
          "internalType": "bytes32",
          "name": "neededRole",
          "type": "bytes32"
        }
      ],
      "name": "AccessControlUnauthorizedAccount",
      "type": "error"
    },
    {
      "inputs": [],
      "name": "ReentrancyGuardReentrantCall",
      "type": "error"
    },
    {
      "anonymous": false,
      "inputs": [
        {
          "indexed": true,
          "internalType": "uint256",
          "name": "appointmentId",
          "type": "uint256"
        },
        {
          "indexed": false,
          "internalType": "address",
          "name": "cancelledBy",
          "type": "address"
        },
        {
          "indexed": false,
          "internalType": "string",
          "name": "reason",
          "type": "string"
        },
        {
          "indexed": false,
          "internalType": "uint256",
          "name": "cancelledAt",
          "type": "uint256"
        }
      ],
      "name": "AppointmentCancelled",
      "type": "event"
    },
    {
      "anonymous": false,
      "inputs": [
        {
          "indexed": true,
          "internalType": "uint256",
          "name": "appointmentId",
          "type": "uint256"
        },
        {
          "indexed": true,
          "internalType": "address",
          "name": "doctor",
          "type": "address"
        },
        {
          "indexed": false,
          "internalType": "uint256",
          "name": "completedAt",
          "type": "uint256"
        },
        {
          "indexed": false,
          "internalType": "string",
          "name": "ipfsHash",
          "type": "string"
        }
      ],
      "name": "AppointmentCompleted",
      "type": "event"
    },
    {
      "anonymous": false,
      "inputs": [
        {
          "indexed": true,
          "internalType": "uint256",
          "name": "appointmentId",
          "type": "uint256"
        },
        {
          "indexed": true,
          "internalType": "bytes32",
          "name": "appointmentHash",
          "type": "bytes32"
        },
        {
          "indexed": true,
          "internalType": "address",
          "name": "patient",
          "type": "address"
        },
        {
          "indexed": false,
          "internalType": "address",
          "name": "doctor",
          "type": "address"
        },
        {
          "indexed": false,
          "internalType": "uint256",
          "name": "appointmentDate",
          "type": "uint256"
        },
        {
          "indexed": false,
          "internalType": "string",
          "name": "appointmentType",
          "type": "string"
        }
      ],
      "name": "AppointmentRegistered",
      "type": "event"
    },
    {
      "anonymous": false,
      "inputs": [
        {
          "indexed": true,
          "internalType": "uint256",
          "name": "appointmentId",
          "type": "uint256"
        },
        {
          "indexed": false,
          "internalType": "uint256",
          "name": "oldDate",
          "type": "uint256"
        },
        {
          "indexed": false,
          "internalType": "uint256",
          "name": "newDate",
          "type": "uint256"
        },
        {
          "indexed": false,
          "internalType": "string",
          "name": "reason",
          "type": "string"
        },
        {
          "indexed": false,
          "internalType": "address",
          "name": "rescheduledBy",
          "type": "address"
        }
      ],
      "name": "AppointmentRescheduled",
      "type": "event"
    },
    {
      "anonymous": false,
      "inputs": [
        {
          "indexed": true,
          "internalType": "uint256",
          "name": "appointmentId",
          "type": "uint256"
        },
        {
          "indexed": false,
          "internalType": "enum AppointmentRegistry.AppointmentStatus",
          "name": "oldStatus",
          "type": "uint8"
        },
        {
          "indexed": false,
          "internalType": "enum AppointmentRegistry.AppointmentStatus",
          "name": "newStatus",
          "type": "uint8"
        },
        {
          "indexed": false,
          "internalType": "address",
          "name": "updatedBy",
          "type": "address"
        },
        {
          "indexed": false,
          "internalType": "uint256",
          "name": "timestamp",
          "type": "uint256"
        }
      ],
      "name": "AppointmentStatusUpdated",
      "type": "event"
    },
    {
      "anonymous": false,
      "inputs": [
        {
          "indexed": true,
          "internalType": "uint256",
          "name": "appointmentId",
          "type": "uint256"
        },
        {
          "indexed": true,
          "internalType": "address",
          "name": "patient",
          "type": "address"
        },
        {
          "indexed": false,
          "internalType": "uint256",
          "name": "timestamp",
          "type": "uint256"
        }
      ],
      "name": "NoShowMarked",
      "type": "event"
    },
    {
      "anonymous": false,
      "inputs": [
        {
          "indexed": true,
          "internalType": "bytes32",
          "name": "role",
          "type": "bytes32"
        },
        {
          "indexed": true,
          "internalType": "bytes32",
          "name": "previousAdminRole",
          "type": "bytes32"
        },
        {
          "indexed": true,
          "internalType": "bytes32",
          "name": "newAdminRole",
          "type": "bytes32"
        }
      ],
      "name": "RoleAdminChanged",
      "type": "event"
    },
    {
      "anonymous": false,
      "inputs": [
        {
          "indexed": true,
          "internalType": "bytes32",
          "name": "role",
          "type": "bytes32"
        },
        {
          "indexed": true,
          "internalType": "address",
          "name": "account",
          "type": "address"
        },
        {
          "indexed": true,
          "internalType": "address",
          "name": "sender",
          "type": "address"
        }
      ],
      "name": "RoleGranted",
      "type": "event"
    },
    {
      "anonymous": false,
      "inputs": [
        {
          "indexed": true,
          "internalType": "bytes32",
          "name": "role",
          "type": "bytes32"
        },
        {
          "indexed": true,
          "internalType": "address",
          "name": "account",
          "type": "address"
        },
        {
          "indexed": true,
          "internalType": "address",
          "name": "sender",
          "type": "address"
        }
      ],
      "name": "RoleRevoked",
      "type": "event"
    },
    {
      "inputs": [],
      "name": "ADMIN_ROLE",
      "outputs": [
        {
          "internalType": "bytes32",
          "name": "",
          "type": "bytes32"
        }
      ],
      "stateMutability": "view",
      "type": "function"
    },
    {
      "inputs": [],
      "name": "DEFAULT_ADMIN_ROLE",
      "outputs": [
        {
          "internalType": "bytes32",
          "name": "",
          "type": "bytes32"
        }
      ],
      "stateMutability": "view",
      "type": "function"
    },
    {
      "inputs": [],
      "name": "DOCTOR_ROLE",
      "outputs": [
        {
          "internalType": "bytes32",
          "name": "",
          "type": "bytes32"
        }
      ],
      "stateMutability": "view",
      "type": "function"
    },
    {
      "inputs": [],
      "name": "PATIENT_ROLE",
      "outputs": [
        {
          "internalType": "bytes32",
          "name": "",
          "type": "bytes32"
        }
      ],
      "stateMutability": "view",
      "type": "function"
    },
    {
      "inputs": [],
      "name": "appointmentCount",
      "outputs": [
        {
          "internalType": "uint256",
          "name": "",
          "type": "uint256"
        }
      ],
      "stateMutability": "view",
      "type": "function"
    },
    {
      "inputs": [
        {
          "internalType": "bytes32",
          "name": "",
          "type": "bytes32"
        }
      ],
      "name": "appointmentHashToId",
      "outputs": [
        {
          "internalType": "uint256",
          "name": "",
          "type": "uint256"
        }
      ],
      "stateMutability": "view",
      "type": "function"
    },
    {
      "inputs": [
        {
          "internalType": "uint256",
          "name": "",
          "type": "uint256"
        },
        {
          "internalType": "uint256",
          "name": "",
          "type": "uint256"
        }
      ],
      "name": "appointmentHistory",
      "outputs": [
        {
          "internalType": "enum AppointmentRegistry.AppointmentStatus",
          "name": "fromStatus",
          "type": "uint8"
        },
        {
          "internalType": "enum AppointmentRegistry.AppointmentStatus",
          "name": "toStatus",
          "type": "uint8"
        },
        {
          "internalType": "uint256",
          "name": "timestamp",
          "type": "uint256"
        },
        {
          "internalType": "address",
          "name": "changedBy",
          "type": "address"
        },
        {
          "internalType": "string",
          "name": "reason",
          "type": "string"
        }
      ],
      "stateMutability": "view",
      "type": "function"
    },
    {
      "inputs": [
        {
          "internalType": "uint256",
          "name": "",
          "type": "uint256"
        }
      ],
      "name": "appointments",
      "outputs": [
        {
          "internalType": "bytes32",
          "name": "appointmentHash",
          "type": "bytes32"
        },
        {
          "internalType": "address",
          "name": "patient",
          "type": "address"
        },
        {
          "internalType": "address",
          "name": "doctor",
          "type": "address"
        },
        {
          "internalType": "uint256",
          "name": "appointmentDate",
          "type": "uint256"
        },
        {
          "internalType": "string",
          "name": "appointmentType",
          "type": "string"
        },
        {
          "internalType": "enum AppointmentRegistry.AppointmentStatus",
          "name": "status",
          "type": "uint8"
        },
        {
          "internalType": "uint256",
          "name": "createdAt",
          "type": "uint256"
        },
        {
          "internalType": "uint256",
          "name": "lastUpdatedAt",
          "type": "uint256"
        },
        {
          "internalType": "uint256",
          "name": "completedAt",
          "type": "uint256"
        },
        {
          "internalType": "uint256",
          "name": "cancelledAt",
          "type": "uint256"
        },
        {
          "internalType": "string",
          "name": "ipfsHash",
          "type": "string"
        },
        {
          "internalType": "bool",
          "name": "isActive",
          "type": "bool"
        }
      ],
      "stateMutability": "view",
      "type": "function"
    },
    {
      "inputs": [
        {
          "internalType": "uint256",
          "name": "_appointmentId",
          "type": "uint256"
        },
        {
          "internalType": "string",
          "name": "_reason",
          "type": "string"
        }
      ],
      "name": "cancelAppointment",
      "outputs": [],
      "stateMutability": "nonpayable",
      "type": "function"
    },
    {
      "inputs": [
        {
          "internalType": "uint256",
          "name": "_appointmentId",
          "type": "uint256"
        },
        {
          "internalType": "string",
          "name": "_ipfsHash",
          "type": "string"
        }
      ],
      "name": "completeAppointment",
      "outputs": [],
      "stateMutability": "nonpayable",
      "type": "function"
    },
    {
      "inputs": [
        {
          "internalType": "uint256",
          "name": "_appointmentId",
          "type": "uint256"
        }
      ],
      "name": "didPatientAttend",
      "outputs": [
        {
          "internalType": "bool",
          "name": "attended",
          "type": "bool"
        }
      ],
      "stateMutability": "view",
      "type": "function"
    },
    {
      "inputs": [
        {
          "internalType": "address",
          "name": "",
          "type": "address"
        },
        {
          "internalType": "uint256",
          "name": "",
          "type": "uint256"
        }
      ],
      "name": "doctorAppointments",
      "outputs": [
        {
          "internalType": "uint256",
          "name": "",
          "type": "uint256"
        }
      ],
      "stateMutability": "view",
      "type": "function"
    },
    {
      "inputs": [
        {
          "internalType": "uint256",
          "name": "_appointmentId",
          "type": "uint256"
        }
      ],
      "name": "getAppointment",
      "outputs": [
        {
          "internalType": "bytes32",
          "name": "appointmentHash",
          "type": "bytes32"
        },
        {
          "internalType": "address",
          "name": "patient",
          "type": "address"
        },
        {
          "internalType": "address",
          "name": "doctor",
          "type": "address"
        },
        {
          "internalType": "uint256",
          "name": "appointmentDate",
          "type": "uint256"
        },
        {
          "internalType": "string",
          "name": "appointmentType",
          "type": "string"
        },
        {
          "internalType": "enum AppointmentRegistry.AppointmentStatus",
          "name": "status",
          "type": "uint8"
        },
        {
          "internalType": "uint256",
          "name": "createdAt",
          "type": "uint256"
        },
        {
          "internalType": "string",
          "name": "ipfsHash",
          "type": "string"
        },
        {
          "internalType": "bool",
          "name": "isActive",
          "type": "bool"
        }
      ],
      "stateMutability": "view",
      "type": "function"
    },
    {
      "inputs": [
        {
          "internalType": "uint256",
          "name": "_appointmentId",
          "type": "uint256"
        }
      ],
      "name": "getAppointmentHistory",
      "outputs": [
        {
          "components": [
            {
              "internalType": "enum AppointmentRegistry.AppointmentStatus",
              "name": "fromStatus",
              "type": "uint8"
            },
            {
              "internalType": "enum AppointmentRegistry.AppointmentStatus",
              "name": "toStatus",
              "type": "uint8"
            },
            {
              "internalType": "uint256",
              "name": "timestamp",
              "type": "uint256"
            },
            {
              "internalType": "address",
              "name": "changedBy",
              "type": "address"
            },
            {
              "internalType": "string",
              "name": "reason",
              "type": "string"
            }
          ],
          "internalType": "struct AppointmentRegistry.StatusChange[]",
          "name": "",
          "type": "tuple[]"
        }
      ],
      "stateMutability": "view",
      "type": "function"
    },
    {
      "inputs": [
        {
          "internalType": "address",
          "name": "_doctor",
          "type": "address"
        }
      ],
      "name": "getDoctorAppointments",
      "outputs": [
        {
          "internalType": "uint256[]",
          "name": "",
          "type": "uint256[]"
        }
      ],
      "stateMutability": "view",
      "type": "function"
    },
    {
      "inputs": [
        {
          "internalType": "address",
          "name": "_patient",
          "type": "address"
        }
      ],
      "name": "getPatientAppointments",
      "outputs": [
        {
          "internalType": "uint256[]",
          "name": "",
          "type": "uint256[]"
        }
      ],
      "stateMutability": "view",
      "type": "function"
    },
    {
      "inputs": [
        {
          "internalType": "address",
          "name": "_patient",
          "type": "address"
        }
      ],
      "name": "getPatientAttendanceRate",
      "outputs": [
        {
          "internalType": "uint256",
          "name": "totalAppointments",
          "type": "uint256"
        },
        {
          "internalType": "uint256",
          "name": "attended",
          "type": "uint256"
        },
        {
          "internalType": "uint256",
          "name": "noShows",
          "type": "uint256"
        }
      ],
      "stateMutability": "view",
      "type": "function"
    },
    {
      "inputs": [
        {
          "internalType": "uint256",
          "name": "_appointmentId",
          "type": "uint256"
        }
      ],
      "name": "getRescheduleHistory",
      "outputs": [
        {
          "components": [
            {
              "internalType": "uint256",
              "name": "originalDate",
              "type": "uint256"
            },
            {
              "internalType": "uint256",
              "name": "newDate",
              "type": "uint256"
            },
            {
              "internalType": "uint256",
              "name": "timestamp",
              "type": "uint256"
            },
            {
              "internalType": "string",
              "name": "reason",
              "type": "string"
            },
            {
              "internalType": "address",
              "name": "rescheduledBy",
              "type": "address"
            }
          ],
          "internalType": "struct AppointmentRegistry.RescheduleInfo[]",
          "name": "",
          "type": "tuple[]"
        }
      ],
      "stateMutability": "view",
      "type": "function"
    },
    {
      "inputs": [
        {
          "internalType": "bytes32",
          "name": "role",
          "type": "bytes32"
        }
      ],
      "name": "getRoleAdmin",
      "outputs": [
        {
          "internalType": "bytes32",
          "name": "",
          "type": "bytes32"
        }
      ],
      "stateMutability": "view",
      "type": "function"
    },
    {
      "inputs": [
        {
          "internalType": "bytes32",
          "name": "role",
          "type": "bytes32"
        },
        {
          "internalType": "address",
          "name": "account",
          "type": "address"
        }
      ],
      "name": "grantRole",
      "outputs": [],
      "stateMutability": "nonpayable",
      "type": "function"
    },
    {
      "inputs": [
        {
          "internalType": "bytes32",
          "name": "role",
          "type": "bytes32"
        },
        {
          "internalType": "address",
          "name": "account",
          "type": "address"
        }
      ],
      "name": "hasRole",
      "outputs": [
        {
          "internalType": "bool",
          "name": "",
          "type": "bool"
        }
      ],
      "stateMutability": "view",
      "type": "function"
    },
    {
      "inputs": [
        {
          "internalType": "uint256",
          "name": "_appointmentId",
          "type": "uint256"
        }
      ],
      "name": "markNoShow",
      "outputs": [],
      "stateMutability": "nonpayable",
      "type": "function"
    },
    {
      "inputs": [
        {
          "internalType": "address",
          "name": "",
          "type": "address"
        },
        {
          "internalType": "uint256",
          "name": "",
          "type": "uint256"
        }
      ],
      "name": "patientAppointments",
      "outputs": [
        {
          "internalType": "uint256",
          "name": "",
          "type": "uint256"
        }
      ],
      "stateMutability": "view",
      "type": "function"
    },
    {
      "inputs": [
        {
          "internalType": "bytes32",
          "name": "_appointmentHash",
          "type": "bytes32"
        },
        {
          "internalType": "address",
          "name": "_patient",
          "type": "address"
        },
        {
          "internalType": "address",
          "name": "_doctor",
          "type": "address"
        },
        {
          "internalType": "uint256",
          "name": "_appointmentDate",
          "type": "uint256"
        },
        {
          "internalType": "string",
          "name": "_appointmentType",
          "type": "string"
        }
      ],
      "name": "registerAppointment",
      "outputs": [
        {
          "internalType": "uint256",
          "name": "",
          "type": "uint256"
        }
      ],
      "stateMutability": "nonpayable",
      "type": "function"
    },
    {
      "inputs": [
        {
          "internalType": "bytes32",
          "name": "role",
          "type": "bytes32"
        },
        {
          "internalType": "address",
          "name": "callerConfirmation",
          "type": "address"
        }
      ],
      "name": "renounceRole",
      "outputs": [],
      "stateMutability": "nonpayable",
      "type": "function"
    },
    {
      "inputs": [
        {
          "internalType": "uint256",
          "name": "_appointmentId",
          "type": "uint256"
        },
        {
          "internalType": "uint256",
          "name": "_newDate",
          "type": "uint256"
        },
        {
          "internalType": "string",
          "name": "_reason",
          "type": "string"
        }
      ],
      "name": "rescheduleAppointment",
      "outputs": [],
      "stateMutability": "nonpayable",
      "type": "function"
    },
    {
      "inputs": [
        {
          "internalType": "uint256",
          "name": "",
          "type": "uint256"
        },
        {
          "internalType": "uint256",
          "name": "",
          "type": "uint256"
        }
      ],
      "name": "rescheduleHistory",
      "outputs": [
        {
          "internalType": "uint256",
          "name": "originalDate",
          "type": "uint256"
        },
        {
          "internalType": "uint256",
          "name": "newDate",
          "type": "uint256"
        },
        {
          "internalType": "uint256",
          "name": "timestamp",
          "type": "uint256"
        },
        {
          "internalType": "string",
          "name": "reason",
          "type": "string"
        },
        {
          "internalType": "address",
          "name": "rescheduledBy",
          "type": "address"
        }
      ],
      "stateMutability": "view",
      "type": "function"
    },
    {
      "inputs": [
        {
          "internalType": "bytes32",
          "name": "role",
          "type": "bytes32"
        },
        {
          "internalType": "address",
          "name": "account",
          "type": "address"
        }
      ],
      "name": "revokeRole",
      "outputs": [],
      "stateMutability": "nonpayable",
      "type": "function"
    },
    {
      "inputs": [
        {
          "internalType": "bytes4",
          "name": "interfaceId",
          "type": "bytes4"
        }
      ],
      "name": "supportsInterface",
      "outputs": [
        {
          "internalType": "bool",
          "name": "",
          "type": "bool"
        }
      ],
      "stateMutability": "view",
      "type": "function"
    },
    {
      "inputs": [
        {
          "internalType": "uint256",
          "name": "_appointmentId",
          "type": "uint256"
        },
        {
          "internalType": "enum AppointmentRegistry.AppointmentStatus",
          "name": "_newStatus",
          "type": "uint8"
        },
        {
          "internalType": "string",
          "name": "_reason",
          "type": "string"
        }
      ],
      "name": "updateAppointmentStatus",
      "outputs": [],
      "stateMutability": "nonpayable",
      "type": "function"
    },
    {
      "inputs": [
        {
          "internalType": "bytes32",
          "name": "_appointmentHash",
          "type": "bytes32"
        }
      ],
      "name": "verifyAppointment",
      "outputs": [
        {
          "internalType": "bool",
          "name": "exists",
          "type": "bool"
        },
        {
          "internalType": "enum AppointmentRegistry.AppointmentStatus",
          "name": "status",
          "type": "uint8"
        },
        {
          "internalType": "uint256",
          "name": "appointmentDate",
          "type": "uint256"
        },
        {
          "internalType": "uint256",
          "name": "createdAt",
          "type": "uint256"
        },
        {
          "internalType": "bool",
          "name": "isActive",
          "type": "bool"
        }
      ],
      "stateMutability": "view",
      "type": "function"
    }
  ],
  "bytecode": "0x60806040523480156200001157600080fd5b5060017f9b779b17422d0df92223018b32b4d1fa46e071723d6817e2486d003becc55f00556200004360003362000077565b50620000707fa49807205ce4d355092ef5a8a18f56e8913cf4a201fbe287825b095693c217753362000077565b5062000126565b6000828152602081815260408083206001600160a01b038516845290915281205460ff166200011c576000838152602081815260408083206001600160a01b03861684529091529020805460ff19166001179055620000d33390565b6001600160a01b0316826001600160a01b0316847f2f8788117e7eff1d82e926ec794901d17c78024a50270940304540a733656f0d60405160405180910390a450600162000120565b5060005b92915050565b61373f80620001366000396000f3fe608060405234801561001057600080fd5b50600436106101e55760003560e01c80635fbaa4591161010f578063a217fddf116100a2578063e168106811610071578063e1681068146104da578063ea3e0dee146104ed578063eebc3fb214610500578063fec331f21461050957600080fd5b8063a217fddf14610485578063ac5cb97d1461048d578063c5598c91146104b4578063d547741f146104c757600080fd5b806378fc04b0116100de57806378fc04b01461041b57806388f5fa341461042e5780638e366c741461045257806391d148541461047257600080fd5b80635fbaa459146103b25780636a85de14146103c557806375b238fc146103d857806377aa87e0146103ed57600080fd5b80632ea004d4116101875780634d91fefc116101565780634d91fefc14610348578063576736321461035b57806357cd46f51461037b578063580776961461038e57600080fd5b80632ea004d4146102eb5780632f2ff15d146102fe57806336568abe14610311578063475340491461032457600080fd5b80630d943da2116101c35780630d943da21461026057806312dc90131461028857806321b14a81146102b3578063248a9ca3146102c857600080fd5b806301ffc9a7146101ea578063041ce7a31461021257806308be526714610240575b600080fd5b6101fd6101f8366004612d13565b610530565b60405190151581526020015b60405180910390f35b610232610220366004612d44565b60026020526000908152604090205481565b604051908152602001610209565b61025361024e366004612d44565b610567565b6040516102099190612ddb565b61027361026e366004612d44565b610719565b60405161020999989796959493929190612e88565b61029b610296366004612d44565b61098f565b6040516102099c9b9a99989796959493929190612f03565b6102c66102c1366004613039565b610b17565b005b6102326102d6366004612d44565b60009081526020819052604090206001015490565b6102c66102f9366004613089565b610e4e565b6102c661030c3660046130ec565b611163565b6102c661031f3660046130ec565b61118e565b610337610332366004613118565b6111c1565b60405161020995949392919061313a565b6102c6610356366004612d44565b6112ae565b61036e610369366004612d44565b6115a0565b6040516102099190613186565b610232610389366004613218565b6116f1565b6103a161039c366004613118565b611722565b604051610209959493929190613242565b6102c66103c0366004613281565b611806565b6102326103d3366004613218565b611a66565b6102326000805160206136ea83398151915281565b6104006103fb3660046132c8565b611a82565b60408051938452602084019290925290820152606001610209565b6101fd610429366004612d44565b611d85565b61044161043c366004612d44565b611fb5565b6040516102099594939291906132e3565b6104656104603660046132c8565b6121fa565b6040516102099190613317565b6101fd6104803660046130ec565b6122ac565b610232600081565b6102327f72606200fac42b7dc86b75901d61ecfab2a4a1a6eded478b97a428094891abed81565b6104656104c23660046132c8565b6122d5565b6102c66104d53660046130ec565b612385565b6102326104e836600461335b565b6123aa565b6102c66104fb366004613089565b61288f565b61023260075481565b6102327f0af1dac7dea2fd7f7738119cec7df099dfad49aa9d2e7d17ba6b60f63ae7411f81565b60006001600160e01b03198216637965db0b60e01b148061056157506301ffc9a760e01b6001600160e01b03198316145b92915050565b606060008211801561057b57506007548211155b6105a05760405162461bcd60e51b8152600401610597906133cd565b60405180910390fd5b600082815260036020908152604080832080548251818502810185019093528083529193909284015b8282101561070e576000848152602090206040805160a08101909152600484029091018054829060ff16600581111561060457610604612d5d565b600581111561061557610615612d5d565b81528154602090910190610100900460ff16600581111561063857610638612d5d565b600581111561064957610649612d5d565b81526001820154602082015260028201546001600160a01b0316604082015260038201805460609092019161067d906133fd565b80601f01602080910402602001604051908101604052809291908181526020018280546106a9906133fd565b80156106f65780601f106106cb576101008083540402835291602001916106f6565b820191906000526020600020905b8154815290600101906020018083116106d957829003601f168201915b505050505081525050815260200190600101906105c9565b505050509050919050565b600080600080606060008060606000808a11801561073957506007548a11155b6107555760405162461bcd60e51b8152600401610597906133cd565b60008a815260016020818152604080842081516101808101835281548152938101546001600160a01b0390811693850193909352600281015490921690830152600381015460608301526004810180546080840191906107b4906133fd565b80601f01602080910402602001604051908101604052809291908181526020018280546107e0906133fd565b801561082d5780601f106108025761010080835404028352916020019161082d565b820191906000526020600020905b81548152906001019060200180831161081057829003601f168201915b505050918352505060058281015460209092019160ff169081111561085457610854612d5d565b600581111561086557610865612d5d565b815260200160068201548152602001600782015481526020016008820154815260200160098201548152602001600a820180546108a1906133fd565b80601f01602080910402602001604051908101604052809291908181526020018280546108cd906133fd565b801561091a5780601f106108ef5761010080835404028352916020019161091a565b820191906000526020600020905b8154815290600101906020018083116108fd57829003601f168201915b50505050508152602001600b820160009054906101000a900460ff1615151515815250509050806000015181602001518260400151836060015184608001518560a001518660c00151876101400151886101600151995099509950995099509950995099509950509193959799909294969850565b6001602081905260009182526040909120805491810154600282015460038301546004840180546001600160a01b0394851695949093169391926109d2906133fd565b80601f01602080910402602001604051908101604052809291908181526020018280546109fe906133fd565b8015610a4b5780601f10610a2057610100808354040283529160200191610a4b565b820191906000526020600020905b815481529060010190602001808311610a2e57829003601f168201915b5050505050908060050160009054906101000a900460ff169080600601549080600701549080600801549080600901549080600a018054610a8b906133fd565b80601f0160208091040260200160405190810160405280929190818152602001828054610ab7906133fd565b8015610b045780601f10610ad957610100808354040283529160200191610b04565b820191906000526020600020905b815481529060010190602001808311610ae757829003601f168201915b505050600b909301549192505060ff168c565b610b1f612b85565b600083118015610b3157506007548311155b610b4d5760405162461bcd60e51b8152600401610597906133cd565b6000838152600160205260409020600b81015460ff16610b7f5760405162461bcd60e51b815260040161059790613437565b428311610bce5760405162461bcd60e51b815260206004820152601a60248201527f4e65772064617465206d75737420626520696e206675747572650000000000006044820152606401610597565b60028101546001600160a01b0316331480610bf5575060018101546001600160a01b031633145b80610c135750610c136000805160206136ea833981519152336122ac565b610c2f5760405162461bcd60e51b81526004016105979061346e565b600381018054908490554260078301556005808301805460ff811692919060ff191660018302179055506000868152600460209081526040808320815160a0810183528681528084018a815242938201938452606082018a815233608084015283546001818101865594885295909620825160059096020194855551918401919091559051600283015591516003820190610cca90826134e2565b5060809190910151600490910180546001600160a01b0319166001600160a01b0390921691909117905560008681526003602052604090819020815160a081019092529080836005811115610d2157610d21612d5d565b81526020016005815242602080830191909152336040830152606090910187905282546001818101855560009485529190932082516004909402018054929390929091839160ff191690836005811115610d7d57610d7d612d5d565b021790555060208201518154829061ff001916610100836005811115610da557610da5612d5d565b02179055506040820151600182015560608201516002820180546001600160a01b0319166001600160a01b0390921691909117905560808201516003820190610dee90826134e2565b505050857f4bf4fe92891ea7b6f95da6a86dc6a07770257c46791bfe751e9545ab684f489c83878733604051610e2794939291906135a2565b60405180910390a2505050610e4960016000805160206136ca83398151915255565b505050565b610e56612b85565b600082118015610e6857506007548211155b610e845760405162461bcd60e51b8152600401610597906133cd565b6000828152600160205260409020600b81015460ff16610eb65760405162461bcd60e51b815260040161059790613437565b60028101546001600160a01b0316331480610ee45750610ee46000805160206136ea833981519152336122ac565b610f3c5760405162461bcd60e51b8152602060048201526024808201527f4f6e6c7920646f63746f722063616e20636f6d706c657465206170706f696e746044820152631b595b9d60e21b6064820152608401610597565b600260058083015460ff1690811115610f5757610f57612d5d565b03610fa45760405162461bcd60e51b815260206004820152601d60248201527f4170706f696e746d656e7420616c726561647920636f6d706c657465640000006044820152606401610597565b60058101805460ff1981166002179091554260088301819055600783015560ff16600a8201610fd384826134e2565b50600360008581526020019081526020016000206040518060a0016040528083600581111561100457611004612d5d565b815260200160028152426020808301919091523360408084019190915280518082019091526015815274105c1c1bda5b9d1b595b9d0818dbdb5c1b195d1959605a1b8183015260609092019190915282546001818101855560009485529190932082516004909402018054929390929091839160ff19169083600581111561108e5761108e612d5d565b021790555060208201518154829061ff0019166101008360058111156110b6576110b6612d5d565b02179055506040820151600182015560608201516002820180546001600160a01b0319166001600160a01b03909216919091179055608082015160038201906110ff90826134e2565b505050336001600160a01b0316847f9365d6cc1b4f0cf5283ffdcb59fc7e0d17840fc143888e7c70bda04298b45379428660405161113e9291906135da565b60405180910390a3505061115f60016000805160206136ca83398151915255565b5050565b60008281526020819052604090206001015461117e81612ba1565b6111888383612bab565b50505050565b6001600160a01b03811633146111b75760405163334bd91960e11b815260040160405180910390fd5b610e498282612c3d565b600360205281600052604060002081815481106111dd57600080fd5b6000918252602090912060049091020180546001820154600283015460038401805460ff8086169850610100909504909416955091936001600160a01b039091169290919061122b906133fd565b80601f0160208091040260200160405190810160405280929190818152602001828054611257906133fd565b80156112a45780601f10611279576101008083540402835291602001916112a4565b820191906000526020600020905b81548152906001019060200180831161128757829003601f168201915b5050505050905085565b6112b6612b85565b6000811180156112c857506007548111155b6112e45760405162461bcd60e51b8152600401610597906133cd565b6000818152600160205260409020600b81015460ff166113165760405162461bcd60e51b815260040161059790613437565b60028101546001600160a01b031633148061134457506113446000805160206136ea833981519152336122ac565b6113905760405162461bcd60e51b815260206004820152601c60248201527f4f6e6c7920646f63746f722063616e206d61726b206e6f2d73686f77000000006044820152606401610597565b806003015442116113f75760405162461bcd60e51b815260206004820152602b60248201527f43616e6e6f74206d61726b206e6f2d73686f77206265666f7265206170706f6960448201526a6e746d656e742074696d6560a81b6064820152608401610597565b6005818101805460ff19811660041790915542600784015560008481526003602052604090819020815160a0810190925260ff909216928190849081111561144157611441612d5d565b815260046020808301829052426040808501919091523360608501528051808201909152601681527514185d1a595b9d08191a59081b9bdd08185d1d195b9960521b81830152608090930192909252835460018082018655600095865292909420835194909102018054929390929091839160ff1916908360058111156114ca576114ca612d5d565b021790555060208201518154829061ff0019166101008360058111156114f2576114f2612d5d565b02179055506040820151600182015560608201516002820180546001600160a01b0319166001600160a01b039092169190911790556080820151600382019061153b90826134e2565b50505060018201546040514281526001600160a01b039091169084907fcd98d26c1a064b3e4168bebc4d7cbee136594ab0dc3cf58285c3f30a4e8483289060200160405180910390a3505061159d60016000805160206136ca83398151915255565b50565b60606000821180156115b457506007548211155b6115d05760405162461bcd60e51b8152600401610597906133cd565b600082815260046020908152604080832080548251818502810185019093528083529193909284015b8282101561070e57838290600052602060002090600502016040518060a001604052908160008201548152602001600182015481526020016002820154815260200160038201805461164a906133fd565b80601f0160208091040260200160405190810160405280929190818152602001828054611676906133fd565b80156116c35780601f10611698576101008083540402835291602001916116c3565b820191906000526020600020905b8154815290600101906020018083116116a657829003601f168201915b5050509183525050600491909101546001600160a01b031660209182015290825260019290920191016115f9565b6006602052816000526040600020818154811061170d57600080fd5b90600052602060002001600091509150505481565b6004602052816000526040600020818154811061173e57600080fd5b906000526020600020906005020160009150915050806000015490806001015490806002015490806003018054611774906133fd565b80601f01602080910402602001604051908101604052809291908181526020018280546117a0906133fd565b80156117ed5780601f106117c2576101008083540402835291602001916117ed565b820191906000526020600020905b8154815290600101906020018083116117d057829003601f168201915b505050600490930154919250506001600160a01b031685565b61180e612b85565b60008311801561182057506007548311155b61183c5760405162461bcd60e51b8152600401610597906133cd565b6000838152600160205260409020600b81015460ff1661186e5760405162461bcd60e51b815260040161059790613437565b60028101546001600160a01b0316331480611895575060018101546001600160a01b031633145b806118b357506118b36000805160206136ea833981519152336122ac565b6118cf5760405162461bcd60e51b81526004016105979061346e565b6005808201805460ff81169286929160ff19169060019084908111156118f7576118f7612d5d565b021790555042600783015560008581526003602052604090819020815160a08101909252908083600581111561192f5761192f612d5d565b815260200186600581111561194657611946612d5d565b815242602080830191909152336040830152606090910186905282546001818101855560009485529190932082516004909402018054929390929091839160ff19169083600581111561199b5761199b612d5d565b021790555060208201518154829061ff0019166101008360058111156119c3576119c3612d5d565b02179055506040820151600182015560608201516002820180546001600160a01b0319166001600160a01b0390921691909117905560808201516003820190611a0c90826134e2565b505050847fbbb46429d634b468abc17a4cbe80ce9338d41efc991c54e6eefc3fc6b2ba264f82863342604051611a4594939291906135fb565b60405180910390a25050610e4960016000805160206136ca83398151915255565b6005602052816000526040600020818154811061170d57600080fd5b6001600160a01b0381166000908152600560209081526040808320805482518185028101850190935280835284938493849390929091830182828015611ae757602002820191906000526020600020905b815481526020019060010190808311611ad3575b5050505050905080519350600092506000915060005b8151811015611d7c57600060016000848481518110611b1e57611b1e613631565b60209081029190910181015182528181019290925260409081016000208151610180810183528154815260018201546001600160a01b039081169482019490945260028201549093169183019190915260038101546060830152600481018054608084019190611b8d906133fd565b80601f0160208091040260200160405190810160405280929190818152602001828054611bb9906133fd565b8015611c065780601f10611bdb57610100808354040283529160200191611c06565b820191906000526020600020905b815481529060010190602001808311611be957829003601f168201915b505050918352505060058281015460209092019160ff1690811115611c2d57611c2d612d5d565b6005811115611c3e57611c3e612d5d565b815260200160068201548152602001600782015481526020016008820154815260200160098201548152602001600a82018054611c7a906133fd565b80601f0160208091040260200160405190810160405280929190818152602001828054611ca6906133fd565b8015611cf35780601f10611cc857610100808354040283529160200191611cf3565b820191906000526020600020905b815481529060010190602001808311611cd657829003601f168201915b5050509183525050600b919091015460ff161515602090910152905060028160a001516005811115611d2757611d27612d5d565b03611d3e5784611d3681613647565b955050611d69565b60048160a001516005811115611d5657611d56612d5d565b03611d695783611d6581613647565b9450505b5080611d7481613647565b915050611afd565b50509193909250565b60008082118015611d9857506007548211155b611db45760405162461bcd60e51b8152600401610597906133cd565b600082815260016020818152604080842081516101808101835281548152938101546001600160a01b039081169385019390935260028101549092169083015260038101546060830152600481018054608084019190611e13906133fd565b80601f0160208091040260200160405190810160405280929190818152602001828054611e3f906133fd565b8015611e8c5780601f10611e6157610100808354040283529160200191611e8c565b820191906000526020600020905b815481529060010190602001808311611e6f57829003601f168201915b505050918352505060058281015460209092019160ff1690811115611eb357611eb3612d5d565b6005811115611ec457611ec4612d5d565b815260200160068201548152602001600782015481526020016008820154815260200160098201548152602001600a82018054611f00906133fd565b80601f0160208091040260200160405190810160405280929190818152602001828054611f2c906133fd565b8015611f795780601f10611f4e57610100808354040283529160200191611f79565b820191906000526020600020905b815481529060010190602001808311611f5c57829003601f168201915b5050509183525050600b919091015460ff161515602090910152905060028160a001516005811115611fad57611fad612d5d565b149392505050565b6000818152600260205260408120548190819081908190808203611feb57600080600080600095509550955095509550506121f1565b600081815260016020818152604080842081516101808101835281548152938101546001600160a01b03908116938501939093526002810154909216908301526003810154606083015260048101805460808401919061204a906133fd565b80601f0160208091040260200160405190810160405280929190818152602001828054612076906133fd565b80156120c35780601f10612098576101008083540402835291602001916120c3565b820191906000526020600020905b8154815290600101906020018083116120a657829003601f168201915b505050918352505060058281015460209092019160ff16908111156120ea576120ea612d5d565b60058111156120fb576120fb612d5d565b815260200160068201548152602001600782015481526020016008820154815260200160098201548152602001600a82018054612137906133fd565b80601f0160208091040260200160405190810160405280929190818152602001828054612163906133fd565b80156121b05780601f10612185576101008083540402835291602001916121b0565b820191906000526020600020905b81548152906001019060200180831161219357829003601f168201915b5050509183525050600b919091015460ff16151560209091015260a0810151606082015160c08301516101609093015160019a509198509650909450925050505b91939590929450565b6060336001600160a01b038316148061222657506122266000805160206136ea833981519152336122ac565b6122425760405162461bcd60e51b81526004016105979061346e565b6001600160a01b038216600090815260056020908152604091829020805483518184028101840190945280845290918301828280156122a057602002820191906000526020600020905b81548152602001906001019080831161228c575b50505050509050919050565b6000918252602082815260408084206001600160a01b0393909316845291905290205460ff1690565b6060336001600160a01b038316148061230157506123016000805160206136ea833981519152336122ac565b61231d5760405162461bcd60e51b81526004016105979061346e565b6001600160a01b038216600090815260066020908152604091829020805483518184028101840190945280845290918301828280156122a0576020028201919060005260206000209081548152602001906001019080831161228c5750505050509050919050565b6000828152602081905260409020600101546123a081612ba1565b6111888383612c3d565b60006123b4612b85565b856124015760405162461bcd60e51b815260206004820152601860248201527f496e76616c6964206170706f696e746d656e74206861736800000000000000006044820152606401610597565b6001600160a01b0385166124575760405162461bcd60e51b815260206004820152601760248201527f496e76616c69642070617469656e7420616464726573730000000000000000006044820152606401610597565b6001600160a01b0384166124a65760405162461bcd60e51b8152602060048201526016602482015275496e76616c696420646f63746f72206164647265737360501b6044820152606401610597565b4283116125005760405162461bcd60e51b815260206004820152602260248201527f4170706f696e746d656e742064617465206d75737420626520696e2066757475604482015261726560f01b6064820152608401610597565b6000868152600260205260409020541561255c5760405162461bcd60e51b815260206004820152601a60248201527f4170706f696e746d656e7420616c7265616479206578697374730000000000006044820152606401610597565b6007805490600061256c83613647565b909155505060075460408051610180810182528881526001600160a01b038881166020808401918252898316848601908152606085018a8152608086018a8152600060a088018190524260c0890181905260e08901526101008801819052610120880181905288518086018a52818152610140890152600161016089018190528a8252948590529790972086518155935192840180549386166001600160a01b0319948516179055905160028401805491909516921691909117909255905160038201559151909190600482019061264490826134e2565b5060a08201518160050160006101000a81548160ff0219169083600581111561266f5761266f612d5d565b021790555060c0820151600682015560e0820151600782015561010082015160088201556101208201516009820155610140820151600a8201906126b390826134e2565b506101609190910151600b909101805491151560ff1992831617905560008881526002602090815260408083208590556001600160a01b038a81168452600580845282852080546001818101835591875285872001889055918b16855260068452828520805480840182559086528486200187905586855260038452828520835160a08101855286815280860187905242818601523360608201528451808601909552601485527324b734ba34b0b6103932b3b4b9ba3930ba34b7b760611b858701526080810194909452805480840182559086529390942082516004909402018054929590948593909116919084908111156127b2576127b2612d5d565b021790555060208201518154829061ff0019166101008360058111156127da576127da612d5d565b02179055506040820151600182015560608201516002820180546001600160a01b0319166001600160a01b039092169190911790556080820151600382019061282390826134e2565b505050856001600160a01b031687827f40ade53f8d8d90cb7cc3f7a0d4fefb1f97434b81e5cf79fa0aa07747f439db578888886040516128659392919061366e565b60405180910390a4905061288660016000805160206136ca83398151915255565b95945050505050565b612897612b85565b6000821180156128a957506007548211155b6128c55760405162461bcd60e51b8152600401610597906133cd565b6000828152600160205260409020600b81015460ff166128f75760405162461bcd60e51b815260040161059790613437565b60028101546001600160a01b031633148061291e575060018101546001600160a01b031633145b8061293c575061293c6000805160206136ea833981519152336122ac565b6129585760405162461bcd60e51b81526004016105979061346e565b600260058083015460ff169081111561297357612973612d5d565b1415801561299a5750600360058083015460ff169081111561299757612997612d5d565b14155b612a0c5760405162461bcd60e51b815260206004820152603860248201527f43616e6e6f742063616e63656c20636f6d706c65746564206f7220616c72656160448201527f64792063616e63656c6c6564206170706f696e746d656e7400000000000000006064820152608401610597565b60058101805460ff81169160039160ff191660018302179055504260098301819055600783015560008481526003602052604090819020815160a081019092529080836005811115612a6057612a60612d5d565b81526020016003815242602080830191909152336040830152606090910186905282546001818101855560009485529190932082516004909402018054929390929091839160ff191690836005811115612abc57612abc612d5d565b021790555060208201518154829061ff001916610100836005811115612ae457612ae4612d5d565b02179055506040820151600182015560608201516002820180546001600160a01b0319166001600160a01b0390921691909117905560808201516003820190612b2d90826134e2565b505050837f5f6866bb2f60701c7a793d70aec8775bc509f3062200dff9a7aceac4c19d2a34338542604051612b6493929190613695565b60405180910390a2505061115f60016000805160206136ca83398151915255565b612b8d612ca8565b60026000805160206136ca83398151915255565b61159d8133612cda565b6000612bb783836122ac565b612c35576000838152602081815260408083206001600160a01b03861684529091529020805460ff19166001179055612bed3390565b6001600160a01b0316826001600160a01b0316847f2f8788117e7eff1d82e926ec794901d17c78024a50270940304540a733656f0d60405160405180910390a4506001610561565b506000610561565b6000612c4983836122ac565b15612c35576000838152602081815260408083206001600160a01b0386168085529252808320805460ff1916905551339286917ff6391f5c32d9c69d2a47ea670b442974b53935d1edc7fd64eb21e047a839171b9190a4506001610561565b6000805160206136ca83398151915254600203612cd857604051633ee5aeb560e01b815260040160405180910390fd5b565b612ce482826122ac565b61115f5760405163e2517d3f60e01b81526001600160a01b038216600482015260248101839052604401610597565b600060208284031215612d2557600080fd5b81356001600160e01b031981168114612d3d57600080fd5b9392505050565b600060208284031215612d5657600080fd5b5035919050565b634e487b7160e01b600052602160045260246000fd5b60068110612d9157634e487b7160e01b600052602160045260246000fd5b9052565b6000815180845260005b81811015612dbb57602081850181015186830182015201612d9f565b506000602082860101526020601f19601f83011685010191505092915050565b60006020808301818452808551808352604092508286019150828160051b87010184880160005b83811015612e7a57603f19898403018552815160a0612e22858351612d73565b88820151612e328a870182612d73565b5081880151858901526060808301516001600160a01b031690860152608091820151918501819052612e6681860183612d95565b968901969450505090860190600101612e02565b509098975050505050505050565b8981526001600160a01b038981166020830152881660408201526060810187905261012060808201819052600090612ec283820189612d95565b9050612ed160a0840188612d73565b8560c084015282810360e0840152612ee98186612d95565b9150508215156101008301529a9950505050505050505050565b8c81526001600160a01b038c811660208301528b166040820152606081018a905261018060808201819052600090612f3d8382018c612d95565b9050612f4c60a084018b612d73565b8860c08401528760e08401528661010084015285610120840152828103610140840152612f798186612d95565b9150508215156101608301529d9c50505050505050505050505050565b634e487b7160e01b600052604160045260246000fd5b600082601f830112612fbd57600080fd5b813567ffffffffffffffff80821115612fd857612fd8612f96565b604051601f8301601f19908116603f0116810190828211818310171561300057613000612f96565b8160405283815286602085880101111561301957600080fd5b836020870160208301376000602085830101528094505050505092915050565b60008060006060848603121561304e57600080fd5b8335925060208401359150604084013567ffffffffffffffff81111561307357600080fd5b61307f86828701612fac565b9150509250925092565b6000806040838503121561309c57600080fd5b82359150602083013567ffffffffffffffff8111156130ba57600080fd5b6130c685828601612fac565b9150509250929050565b80356001600160a01b03811681146130e757600080fd5b919050565b600080604083850312156130ff57600080fd5b8235915061310f602084016130d0565b90509250929050565b6000806040838503121561312b57600080fd5b50508035926020909101359150565b6131448187612d73565b6131516020820186612d73565b83604082015260018060a01b038316606082015260a06080820152600061317b60a0830184612d95565b979650505050505050565b60006020808301818452808551808352604092508286019150828160051b87010184880160005b83811015612e7a57603f19898403018552815160a0815185528882015189860152878201518886015260608083015182828801526131ed83880182612d95565b6080948501516001600160a01b031697909401969096525050948701949250908601906001016131ad565b6000806040838503121561322b57600080fd5b613234836130d0565b946020939093013593505050565b85815284602082015283604082015260a06060820152600061326760a0830185612d95565b905060018060a01b03831660808301529695505050505050565b60008060006060848603121561329657600080fd5b833592506020840135600681106132ac57600080fd5b9150604084013567ffffffffffffffff81111561307357600080fd5b6000602082840312156132da57600080fd5b612d3d826130d0565b851515815260a081016132f96020830187612d73565b84604083015283606083015282151560808301529695505050505050565b6020808252825182820181905260009190848201906040850190845b8181101561334f57835183529284019291840191600101613333565b50909695505050505050565b600080600080600060a0868803121561337357600080fd5b85359450613383602087016130d0565b9350613391604087016130d0565b925060608601359150608086013567ffffffffffffffff8111156133b457600080fd5b6133c088828901612fac565b9150509295509295909350565b602080825260169082015275125b9d985b1a5908185c1c1bda5b9d1b595b9d08125160521b604082015260600190565b600181811c9082168061341157607f821691505b60208210810361343157634e487b7160e01b600052602260045260246000fd5b50919050565b60208082526019908201527f4170706f696e746d656e74206973206e6f742061637469766500000000000000604082015260600190565b6020808252600c908201526b155b985d5d1a1bdc9a5e995960a21b604082015260600190565b601f821115610e4957600081815260208120601f850160051c810160208610156134bb5750805b601f850160051c820191505b818110156134da578281556001016134c7565b505050505050565b815167ffffffffffffffff8111156134fc576134fc612f96565b6135108161350a84546133fd565b84613494565b602080601f831160018114613545576000841561352d5750858301515b600019600386901b1c1916600185901b1785556134da565b600085815260208120601f198616915b8281101561357457888601518255948401946001909101908401613555565b50858210156135925787850151600019600388901b60f8161c191681555b5050505050600190811b01905550565b8481528360208201526080604082015260006135c16080830185612d95565b905060018060a01b038316606083015295945050505050565b8281526040602082015260006135f36040830184612d95565b949350505050565b608081016136098287612d73565b6136166020830186612d73565b6001600160a01b039390931660408201526060015292915050565b634e487b7160e01b600052603260045260246000fd5b60006001820161366757634e487b7160e01b600052601160045260246000fd5b5060010190565b60018060a01b03841681528260208201526060604082015260006128866060830184612d95565b6001600160a01b03841681526060602082018190526000906136b990830185612d95565b905082604083015294935050505056fe9b779b17422d0df92223018b32b4d1fa46e071723d6817e2486d003becc55f00a49807205ce4d355092ef5a8a18f56e8913cf4a201fbe287825b095693c21775a2646970667358221220a66e8b4301936b0f8271c7b3552b4272f941e61e830a71064520ecf23c10c58e64736f6c63430008140033",
  "linkReferences": {},
  "deployedLinkReferences": {}
}