{
  "_format": "hh-sol-artifact-1",
  "contractName": "PrescriptionRegistry",
  "sourceName": "contracts/PrescriptionRegistry.sol",
  "abi": [
    {
      "inputs": [],
      "stateMutability": "nonpayable",
      "type": "constructor"
    },
    {
      "inputs": [],
      "name": "AccessControlBadConfirmation",
      "type": "error"
    },
    {
      "inputs": [
        {
          "internalType": "address",
          "name": "account",
          "type": "address"
        },
        {
          "internalType": "bytes32",
          "name": "neededRole",
          "type": "bytes32"
        }
      ],
      "name": "AccessControlUnauthorizedAccount",
      "type": "error"
    },
    {
      "inputs": [],
      "name": "ReentrancyGuardReentrantCall",
      "type": "error"
    },
    {
      "anonymous": false,
      "inputs": [
        {
          "indexed": true,
          "internalType": "uint256",
          "name": "prescriptionId",
          "type": "uint256"
        },
        {
          "indexed": true,
          "internalType": "address",
          "name": "pharmacist",
          "type": "address"
        },
        {
          "indexed": false,
          "internalType": "uint256",
          "name": "filledAt",
          "type": "uint256"
        }
      ],
      "name": "PrescriptionFilled",
      "type": "event"
    },
    {
      "anonymous": false,
      "inputs": [
        {
          "indexed": true,
          "internalType": "uint256",
          "name": "prescriptionId",
          "type": "uint256"
        },
        {
          "indexed": true,
          "internalType": "address",
          "name": "invalidatedBy",
          "type": "address"
        }
      ],
      "name": "PrescriptionInvalidated",
      "type": "event"
    },
    {
      "anonymous": false,
      "inputs": [
        {
          "indexed": true,
          "internalType": "uint256",
          "name": "prescriptionId",
          "type": "uint256"
        },
        {
          "indexed": true,
          "internalType": "bytes32",
          "name": "prescriptionHash",
          "type": "bytes32"
        },
        {
          "indexed": true,
          "internalType": "address",
          "name": "patient",
          "type": "address"
        },
        {
          "indexed": false,
          "internalType": "address",
          "name": "doctor",
          "type": "address"
        },
        {
          "indexed": false,
          "internalType": "uint256",
          "name": "issueDate",
          "type": "uint256"
        },
        {
          "indexed": false,
          "internalType": "uint256",
          "name": "validUntil",
          "type": "uint256"
        }
      ],
      "name": "PrescriptionIssued",
      "type": "event"
    },
    {
      "anonymous": false,
      "inputs": [
        {
          "indexed": true,
          "internalType": "bytes32",
          "name": "role",
          "type": "bytes32"
        },
        {
          "indexed": true,
          "internalType": "bytes32",
          "name": "previousAdminRole",
          "type": "bytes32"
        },
        {
          "indexed": true,
          "internalType": "bytes32",
          "name": "newAdminRole",
          "type": "bytes32"
        }
      ],
      "name": "RoleAdminChanged",
      "type": "event"
    },
    {
      "anonymous": false,
      "inputs": [
        {
          "indexed": true,
          "internalType": "bytes32",
          "name": "role",
          "type": "bytes32"
        },
        {
          "indexed": true,
          "internalType": "address",
          "name": "account",
          "type": "address"
        },
        {
          "indexed": true,
          "internalType": "address",
          "name": "sender",
          "type": "address"
        }
      ],
      "name": "RoleGranted",
      "type": "event"
    },
    {
      "anonymous": false,
      "inputs": [
        {
          "indexed": true,
          "internalType": "bytes32",
          "name": "role",
          "type": "bytes32"
        },
        {
          "indexed": true,
          "internalType": "address",
          "name": "account",
          "type": "address"
        },
        {
          "indexed": true,
          "internalType": "address",
          "name": "sender",
          "type": "address"
        }
      ],
      "name": "RoleRevoked",
      "type": "event"
    },
    {
      "inputs": [],
      "name": "DEFAULT_ADMIN_ROLE",
      "outputs": [
        {
          "internalType": "bytes32",
          "name": "",
          "type": "bytes32"
        }
      ],
      "stateMutability": "view",
      "type": "function"
    },
    {
      "inputs": [],
      "name": "DOCTOR_ROLE",
      "outputs": [
        {
          "internalType": "bytes32",
          "name": "",
          "type": "bytes32"
        }
      ],
      "stateMutability": "view",
      "type": "function"
    },
    {
      "inputs": [],
      "name": "PHARMACIST_ROLE",
      "outputs": [
        {
          "internalType": "bytes32",
          "name": "",
          "type": "bytes32"
        }
      ],
      "stateMutability": "view",
      "type": "function"
    },
    {
      "inputs": [
        {
          "internalType": "address",
          "name": "",
          "type": "address"
        },
        {
          "internalType": "uint256",
          "name": "",
          "type": "uint256"
        }
      ],
      "name": "doctorPrescriptions",
      "outputs": [
        {
          "internalType": "uint256",
          "name": "",
          "type": "uint256"
        }
      ],
      "stateMutability": "view",
      "type": "function"
    },
    {
      "inputs": [
        {
          "internalType": "uint256",
          "name": "_prescriptionId",
          "type": "uint256"
        }
      ],
      "name": "fillPrescription",
      "outputs": [],
      "stateMutability": "nonpayable",
      "type": "function"
    },
    {
      "inputs": [
        {
          "internalType": "address",
          "name": "_doctor",
          "type": "address"
        }
      ],
      "name": "getDoctorPrescriptions",
      "outputs": [
        {
          "internalType": "uint256[]",
          "name": "",
          "type": "uint256[]"
        }
      ],
      "stateMutability": "view",
      "type": "function"
    },
    {
      "inputs": [
        {
          "internalType": "address",
          "name": "_patient",
          "type": "address"
        }
      ],
      "name": "getPatientPrescriptions",
      "outputs": [
        {
          "internalType": "uint256[]",
          "name": "",
          "type": "uint256[]"
        }
      ],
      "stateMutability": "view",
      "type": "function"
    },
    {
      "inputs": [
        {
          "internalType": "uint256",
          "name": "_prescriptionId",
          "type": "uint256"
        }
      ],
      "name": "getPrescription",
      "outputs": [
        {
          "internalType": "bytes32",
          "name": "prescriptionHash",
          "type": "bytes32"
        },
        {
          "internalType": "address",
          "name": "patient",
          "type": "address"
        },
        {
          "internalType": "address",
          "name": "doctor",
          "type": "address"
        },
        {
          "internalType": "string",
          "name": "ipfsHash",
          "type": "string"
        },
        {
          "internalType": "uint256",
          "name": "issueDate",
          "type": "uint256"
        },
        {
          "internalType": "uint256",
          "name": "validUntil",
          "type": "uint256"
        },
        {
          "internalType": "bool",
          "name": "isValid",
          "type": "bool"
        },
        {
          "internalType": "bool",
          "name": "isFilled",
          "type": "bool"
        }
      ],
      "stateMutability": "view",
      "type": "function"
    },
    {
      "inputs": [
        {
          "internalType": "bytes32",
          "name": "role",
          "type": "bytes32"
        }
      ],
      "name": "getRoleAdmin",
      "outputs": [
        {
          "internalType": "bytes32",
          "name": "",
          "type": "bytes32"
        }
      ],
      "stateMutability": "view",
      "type": "function"
    },
    {
      "inputs": [
        {
          "internalType": "bytes32",
          "name": "role",
          "type": "bytes32"
        },
        {
          "internalType": "address",
          "name": "account",
          "type": "address"
        }
      ],
      "name": "grantRole",
      "outputs": [],
      "stateMutability": "nonpayable",
      "type": "function"
    },
    {
      "inputs": [
        {
          "internalType": "bytes32",
          "name": "role",
          "type": "bytes32"
        },
        {
          "internalType": "address",
          "name": "account",
          "type": "address"
        }
      ],
      "name": "hasRole",
      "outputs": [
        {
          "internalType": "bool",
          "name": "",
          "type": "bool"
        }
      ],
      "stateMutability": "view",
      "type": "function"
    },
    {
      "inputs": [
        {
          "internalType": "uint256",
          "name": "_prescriptionId",
          "type": "uint256"
        }
      ],
      "name": "invalidatePrescription",
      "outputs": [],
      "stateMutability": "nonpayable",
      "type": "function"
    },
    {
      "inputs": [
        {
          "internalType": "bytes32",
          "name": "_prescriptionHash",
          "type": "bytes32"
        },
        {
          "internalType": "address",
          "name": "_patient",
          "type": "address"
        },
        {
          "internalType": "string",
          "name": "_ipfsHash",
          "type": "string"
        },
        {
          "internalType": "uint256",
          "name": "_validityDays",
          "type": "uint256"
        }
      ],
      "name": "issuePrescription",
      "outputs": [
        {
          "internalType": "uint256",
          "name": "",
          "type": "uint256"
        }
      ],
      "stateMutability": "nonpayable",
      "type": "function"
    },
    {
      "inputs": [
        {
          "internalType": "address",
          "name": "",
          "type": "address"
        },
        {
          "internalType": "uint256",
          "name": "",
          "type": "uint256"
        }
      ],
      "name": "patientPrescriptions",
      "outputs": [
        {
          "internalType": "uint256",
          "name": "",
          "type": "uint256"
        }
      ],
      "stateMutability": "view",
      "type": "function"
    },
    {
      "inputs": [],
      "name": "prescriptionCount",
      "outputs": [
        {
          "internalType": "uint256",
          "name": "",
          "type": "uint256"
        }
      ],
      "stateMutability": "view",
      "type": "function"
    },
    {
      "inputs": [
        {
          "internalType": "bytes32",
          "name": "",
          "type": "bytes32"
        }
      ],
      "name": "prescriptionHashToId",
      "outputs": [
        {
          "internalType": "uint256",
          "name": "",
          "type": "uint256"
        }
      ],
      "stateMutability": "view",
      "type": "function"
    },
    {
      "inputs": [
        {
          "internalType": "uint256",
          "name": "",
          "type": "uint256"
        }
      ],
      "name": "prescriptions",
      "outputs": [
        {
          "internalType": "bytes32",
          "name": "prescriptionHash",
          "type": "bytes32"
        },
        {
          "internalType": "address",
          "name": "patient",
          "type": "address"
        },
        {
          "internalType": "address",
          "name": "doctor",
          "type": "address"
        },
        {
          "internalType": "string",
          "name": "ipfsHash",
          "type": "string"
        },
        {
          "internalType": "uint256",
          "name": "issueDate",
          "type": "uint256"
        },
        {
          "internalType": "uint256",
          "name": "validUntil",
          "type": "uint256"
        },
        {
          "internalType": "bool",
          "name": "isValid",
          "type": "bool"
        },
        {
          "internalType": "bool",
          "name": "isFilled",
          "type": "bool"
        },
        {
          "internalType": "address",
          "name": "filledBy",
          "type": "address"
        },
        {
          "internalType": "uint256",
          "name": "filledAt",
          "type": "uint256"
        }
      ],
      "stateMutability": "view",
      "type": "function"
    },
    {
      "inputs": [
        {
          "internalType": "bytes32",
          "name": "role",
          "type": "bytes32"
        },
        {
          "internalType": "address",
          "name": "callerConfirmation",
          "type": "address"
        }
      ],
      "name": "renounceRole",
      "outputs": [],
      "stateMutability": "nonpayable",
      "type": "function"
    },
    {
      "inputs": [
        {
          "internalType": "bytes32",
          "name": "role",
          "type": "bytes32"
        },
        {
          "internalType": "address",
          "name": "account",
          "type": "address"
        }
      ],
      "name": "revokeRole",
      "outputs": [],
      "stateMutability": "nonpayable",
      "type": "function"
    },
    {
      "inputs": [
        {
          "internalType": "bytes4",
          "name": "interfaceId",
          "type": "bytes4"
        }
      ],
      "name": "supportsInterface",
      "outputs": [
        {
          "internalType": "bool",
          "name": "",
          "type": "bool"
        }
      ],
      "stateMutability": "view",
      "type": "function"
    },
    {
      "inputs": [
        {
          "internalType": "bytes32",
          "name": "_prescriptionHash",
          "type": "bytes32"
        }
      ],
      "name": "verifyPrescription",
      "outputs": [
        {
          "internalType": "bool",
          "name": "exists",
          "type": "bool"
        },
        {
          "internalType": "bool",
          "name": "isValid",
          "type": "bool"
        },
        {
          "internalType": "bool",
          "name": "isExpired",
          "type": "bool"
        },
        {
          "internalType": "bool",
          "name": "isFilled",
          "type": "bool"
        },
        {
          "internalType": "address",
          "name": "doctor",
          "type": "address"
        },
        {
          "internalType": "address",
          "name": "patient",
          "type": "address"
        }
      ],
      "stateMutability": "view",
      "type": "function"
    }
  ],
  "bytecode": "0x608060405234801561001057600080fd5b5060017f9b779b17422d0df92223018b32b4d1fa46e071723d6817e2486d003becc55f0055610040600033610046565b506100f2565b6000828152602081815260408083206001600160a01b038516845290915281205460ff166100e8576000838152602081815260408083206001600160a01b03861684529091529020805460ff191660011790556100a03390565b6001600160a01b0316826001600160a01b0316847f2f8788117e7eff1d82e926ec794901d17c78024a50270940304540a733656f0d60405160405180910390a45060016100ec565b5060005b92915050565b6118d1806101016000396000f3fe608060405234801561001057600080fd5b50600436106101375760003560e01c8063733ba56d116100b8578063b11db9e41161007c578063b11db9e4146102c7578063b6558498146102da578063c532d9fa146102e3578063d547741f146102f8578063f971f3f11461030b578063fec331f21461035e57600080fd5b8063733ba56d146102665780638a462e1a1461027957806391d1485414610299578063a217fddf146102ac578063a4c54e77146102b457600080fd5b80632f2ff15d116100ff5780632f2ff15d146101dd57806331dfc91b146101f057806336568abe146102195780636559dfc71461022c5780636f16af101461023f57600080fd5b806301ffc9a71461013c578063207ec23414610164578063219d72ea14610192578063248a9ca3146101a75780632e7fdb24146101ca575b600080fd5b61014f61014a36600461134a565b610385565b60405190151581526020015b60405180910390f35b61018461017236600461137b565b60026020526000908152604090205481565b60405190815260200161015b565b6101a56101a036600461137b565b6103bc565b005b6101846101b536600461137b565b60009081526020819052604090206001015490565b6101846101d83660046113c6565b6104ee565b6101a56101eb366004611499565b61088d565b6102036101fe36600461137b565b6108b8565b60405161015b9a9998979695949392919061150b565b6101a5610227366004611499565b6109ae565b61018461023a366004611577565b6109e6565b61025261024d36600461137b565b610a17565b60405161015b9897969594939291906115a1565b610184610274366004611577565b610c3b565b61028c6102873660046115fe565b610c57565b60405161015b9190611619565b61014f6102a7366004611499565b610d4a565b610184600081565b61028c6102c23660046115fe565b610d73565b6101a56102d536600461137b565b610e16565b61018460055481565b61018460008051602061187c83398151915281565b6101a5610306366004611499565b610ff0565b61031e61031936600461137b565b611015565b604080519615158752941515602087015292151593850193909352151560608401526001600160a01b0391821660808401521660a082015260c00161015b565b6101847f0af1dac7dea2fd7f7738119cec7df099dfad49aa9d2e7d17ba6b60f63ae7411f81565b60006001600160e01b03198216637965db0b60e01b14806103b657506301ffc9a760e01b6001600160e01b03198316145b92915050565b6103c46111bc565b6000811180156103d657506005548111155b6103fb5760405162461bcd60e51b81526004016103f29061165d565b60405180910390fd5b600081815260016020526040902060028101546001600160a01b031633148061042a575061042a600033610d4a565b6104465760405162461bcd60e51b81526004016103f290611694565b600681015460ff1661049a5760405162461bcd60e51b815260206004820152601c60248201527f507265736372697074696f6e20616c726561647920696e76616c69640000000060448201526064016103f2565b60068101805460ff19169055604051339083907f7a979745739296457323a42d8b970cec24d14f1093d5ad026ddf1fd95caa3f7490600090a3506104eb600160008051602061185c83398151915255565b50565b60007f0af1dac7dea2fd7f7738119cec7df099dfad49aa9d2e7d17ba6b60f63ae7411f61051a816111d8565b6105226111bc565b8561056f5760405162461bcd60e51b815260206004820152601960248201527f496e76616c696420707265736372697074696f6e20686173680000000000000060448201526064016103f2565b6001600160a01b0385166105c55760405162461bcd60e51b815260206004820152601760248201527f496e76616c69642070617469656e74206164647265737300000000000000000060448201526064016103f2565b6000831180156105d7575061016d8311155b6106235760405162461bcd60e51b815260206004820152601760248201527f496e76616c69642076616c696469747920706572696f6400000000000000000060448201526064016103f2565b6000868152600260205260409020541561067f5760405162461bcd60e51b815260206004820152601b60248201527f507265736372697074696f6e20616c726561647920657869737473000000000060448201526064016103f2565b6005805490600061068f836116d0565b90915550506005544260006106a786620151806116e9565b6106b19083611700565b60408051610140810182528b81526001600160a01b03808c16602080840191825233848601908152606085018e8152608086018a905260a08601889052600160c08701819052600060e08801819052610100880181905261012088018190528c8152938190529690922085518155925195830180549685166001600160a01b031997881617905551600283018054919094169516949094179091559151929350916003820190610761908261179b565b50608082015160048281019190915560a0830151600583015560c083015160068301805460e08601516101008088015161ffff1990931694151561ff001916949094179015159093029290921762010000600160b01b031916620100006001600160a01b03938416021790556101209093015160079092019190915560008b8152600260209081526040808320889055938c1680835260038252848320805460018181018355918552838520018990553380855294835285842080549182018155845292829020909201879055835192835282018590529181018390528a9085907f733147de52de21147c25cbc0e787766d0a712228713fd2e96a2bb9f7d5cb23039060600160405180910390a45050600160008051602061185c833981519152559695505050505050565b6000828152602081905260409020600101546108a8816111d8565b6108b283836111e2565b50505050565b600160208190526000918252604090912080549181015460028201546003830180546001600160a01b039384169492909316926108f490611713565b80601f016020809104026020016040519081016040528092919081815260200182805461092090611713565b801561096d5780601f106109425761010080835404028352916020019161096d565b820191906000526020600020905b81548152906001019060200180831161095057829003601f168201915b5050506004840154600585015460068601546007909601549495919490935060ff8083169350610100830416916001600160a01b036201000090910416908a565b6001600160a01b03811633146109d75760405163334bd91960e11b815260040160405180910390fd5b6109e18282611274565b505050565b60046020528160005260406000208181548110610a0257600080fd5b90600052602060002001600091509150505481565b60008060006060600080600080600089118015610a3657506005548911155b610a525760405162461bcd60e51b81526004016103f29061165d565b600089815260016020818152604080842081516101408101835281548152938101546001600160a01b0390811693850193909352600281015490921690830152600381018054606084019190610aa790611713565b80601f0160208091040260200160405190810160405280929190818152602001828054610ad390611713565b8015610b205780601f10610af557610100808354040283529160200191610b20565b820191906000526020600020905b815481529060010190602001808311610b0357829003601f168201915b5050509183525050600482015460208083019190915260058301546040830152600683015460ff80821615156060850152610100820416151560808401526201000090046001600160a01b0390811660a084015260079093015460c09092019190915282015191925016331480610bac575080604001516001600160a01b0316336001600160a01b0316145b80610bca5750610bca60008051602061187c83398151915233610d4a565b80610bdb5750610bdb600033610d4a565b610bf75760405162461bcd60e51b81526004016103f290611694565b806000015181602001518260400151836060015184608001518560a001518660c001518760e001519850985098509850985098509850985050919395975091939597565b60036020528160005260406000208181548110610a0257600080fd5b6060336001600160a01b0383161480610c955750610c957f0af1dac7dea2fd7f7738119cec7df099dfad49aa9d2e7d17ba6b60f63ae7411f33610d4a565b80610cb35750610cb360008051602061187c83398151915233610d4a565b80610cc45750610cc4600033610d4a565b610ce05760405162461bcd60e51b81526004016103f290611694565b6001600160a01b03821660009081526003602090815260409182902080548351818402810184019094528084529091830182828015610d3e57602002820191906000526020600020905b815481526020019060010190808311610d2a575b50505050509050919050565b6000918252602082815260408084206001600160a01b0393909316845291905290205460ff1690565b6060336001600160a01b0383161480610d925750610d92600033610d4a565b610dae5760405162461bcd60e51b81526004016103f290611694565b6001600160a01b03821660009081526004602090815260409182902080548351818402810184019094528084529091830182828015610d3e5760200282019190600052602060002090815481526020019060010190808311610d2a5750505050509050919050565b60008051602061187c833981519152610e2e816111d8565b610e366111bc565b600082118015610e4857506005548211155b610e645760405162461bcd60e51b81526004016103f29061165d565b6000828152600160205260409020600681015460ff16610ec65760405162461bcd60e51b815260206004820152601960248201527f507265736372697074696f6e206973206e6f742076616c69640000000000000060448201526064016103f2565b6006810154610100900460ff1615610f205760405162461bcd60e51b815260206004820152601b60248201527f507265736372697074696f6e20616c72656164792066696c6c6564000000000060448201526064016103f2565b8060050154421115610f6b5760405162461bcd60e51b8152602060048201526014602482015273141c995cd8dc9a5c1d1a5bdb88195e1c1a5c995960621b60448201526064016103f2565b6006810180546201000033908102610100600160b01b03199092169190911761010017909155426007830181905560405185917f58093130f09d2ae23e85a3791715517c9b001e080f848fa6953409faa82d3de191610fcc91815260200190565b60405180910390a350610fec600160008051602061185c83398151915255565b5050565b60008281526020819052604090206001015461100b816111d8565b6108b28383611274565b6000818152600260205260408120548190819081908190819080820361105057600080600080600080965096509650965096509650506111b3565b600081815260016020818152604080842081516101408101835281548152938101546001600160a01b03908116938501939093526002810154909216908301526003810180546060840191906110a590611713565b80601f01602080910402602001604051908101604052809291908181526020018280546110d190611713565b801561111e5780601f106110f35761010080835404028352916020019161111e565b820191906000526020600020905b81548152906001019060200180831161110157829003601f168201915b505050918352505060048201546020808301919091526005830154604080840191909152600684015460ff80821615156060860152610100820416151560808501526201000090046001600160a01b031660a08085019190915260079094015460c093840152928401519184015160e085015193850151949091015160019c50909a5042919091119850909650909450925050505b91939550919395565b6111c46112df565b600260008051602061185c83398151915255565b6104eb8133611311565b60006111ee8383610d4a565b61126c576000838152602081815260408083206001600160a01b03861684529091529020805460ff191660011790556112243390565b6001600160a01b0316826001600160a01b0316847f2f8788117e7eff1d82e926ec794901d17c78024a50270940304540a733656f0d60405160405180910390a45060016103b6565b5060006103b6565b60006112808383610d4a565b1561126c576000838152602081815260408083206001600160a01b0386168085529252808320805460ff1916905551339286917ff6391f5c32d9c69d2a47ea670b442974b53935d1edc7fd64eb21e047a839171b9190a45060016103b6565b60008051602061185c8339815191525460020361130f57604051633ee5aeb560e01b815260040160405180910390fd5b565b61131b8282610d4a565b610fec5760405163e2517d3f60e01b81526001600160a01b0382166004820152602481018390526044016103f2565b60006020828403121561135c57600080fd5b81356001600160e01b03198116811461137457600080fd5b9392505050565b60006020828403121561138d57600080fd5b5035919050565b80356001600160a01b03811681146113ab57600080fd5b919050565b634e487b7160e01b600052604160045260246000fd5b600080600080608085870312156113dc57600080fd5b843593506113ec60208601611394565b9250604085013567ffffffffffffffff8082111561140957600080fd5b818701915087601f83011261141d57600080fd5b81358181111561142f5761142f6113b0565b604051601f8201601f19908116603f01168101908382118183101715611457576114576113b0565b816040528281528a602084870101111561147057600080fd5b826020860160208301376000928101602001929092525095989497509495606001359450505050565b600080604083850312156114ac57600080fd5b823591506114bc60208401611394565b90509250929050565b6000815180845260005b818110156114eb576020818501810151868301820152016114cf565b506000602082860101526020601f19601f83011685010191505092915050565b8a81526001600160a01b038a8116602083015289811660408301526101406060830181905260009161153f8483018c6114c5565b608085019a909a5260a0840198909852505093151560c085015291151560e08401529092166101008201526101200152949350505050565b6000806040838503121561158a57600080fd5b61159383611394565b946020939093013593505050565b8881526001600160a01b03888116602083015287166040820152610100606082018190526000906115d4838201896114c5565b6080840197909752505060a081019390935290151560c0830152151560e090910152949350505050565b60006020828403121561161057600080fd5b61137482611394565b6020808252825182820181905260009190848201906040850190845b8181101561165157835183529284019291840191600101611635565b50909695505050505050565b60208082526017908201527f496e76616c696420707265736372697074696f6e204944000000000000000000604082015260600190565b6020808252600c908201526b155b985d5d1a1bdc9a5e995960a21b604082015260600190565b634e487b7160e01b600052601160045260246000fd5b6000600182016116e2576116e26116ba565b5060010190565b80820281158282048414176103b6576103b66116ba565b808201808211156103b6576103b66116ba565b600181811c9082168061172757607f821691505b60208210810361174757634e487b7160e01b600052602260045260246000fd5b50919050565b601f8211156109e157600081815260208120601f850160051c810160208610156117745750805b601f850160051c820191505b8181101561179357828155600101611780565b505050505050565b815167ffffffffffffffff8111156117b5576117b56113b0565b6117c9816117c38454611713565b8461174d565b602080601f8311600181146117fe57600084156117e65750858301515b600019600386901b1c1916600185901b178555611793565b600085815260208120601f198616915b8281101561182d5788860151825594840194600190910190840161180e565b508582101561184b5787850151600019600388901b60f8161c191681555b5050505050600190811b0190555056fe9b779b17422d0df92223018b32b4d1fa46e071723d6817e2486d003becc55f00c2d498fa6734073871a6dde33c56174c52423804118e0d5b66171fad3494de68a264697066735822122021444e587d4d8f29e0a6b23c4221c21e1f3c0b8338f43ff87a11a0d320bafb3e64736f6c63430008140033",
  "linkReferences": {},
  "deployedLinkReferences": {}
}