{"contracts/PrescriptionRegistry.sol":{"PrescriptionRegistry":{"abi":[{"inputs":[],"stateMutability":"nonpayable","type":"constructor"},{"inputs":[],"name":"AccessControlBadConfirmation","type":"error"},{"inputs":[{"internalType":"address","name":"account","type":"address"},{"internalType":"bytes32","name":"neededRole","type":"bytes32"}],"name":"AccessControlUnauthorizedAccount","type":"error"},{"inputs":[],"name":"ReentrancyGuardReentrantCall","type":"error"},{"anonymous":false,"inputs":[{"indexed":true,"internalType":"uint256","name":"prescriptionId","type":"uint256"},{"indexed":true,"internalType":"address","name":"pharmacist","type":"address"},{"indexed":false,"internalType":"uint256","name":"filledAt","type":"uint256"}],"name":"PrescriptionFilled","type":"event"},{"anonymous":false,"inputs":[{"indexed":true,"internalType":"uint256","name":"prescriptionId","type":"uint256"},{"indexed":true,"internalType":"address","name":"invalidatedBy","type":"address"}],"name":"PrescriptionInvalidated","type":"event"},{"anonymous":false,"inputs":[{"indexed":true,"internalType":"uint256","name":"prescriptionId","type":"uint256"},{"indexed":true,"internalType":"bytes32","name":"prescriptionHash","type":"bytes32"},{"indexed":true,"internalType":"address","name":"patient","type":"address"},{"indexed":false,"internalType":"address","name":"doctor","type":"address"},{"indexed":false,"internalType":"uint256","name":"issueDate","type":"uint256"},{"indexed":false,"internalType":"uint256","name":"validUntil","type":"uint256"}],"name":"PrescriptionIssued","type":"event"},{"anonymous":false,"inputs":[{"indexed":true,"internalType":"bytes32","name":"role","type":"bytes32"},{"indexed":true,"internalType":"bytes32","name":"previousAdminRole","type":"bytes32"},{"indexed":true,"internalType":"bytes32","name":"newAdminRole","type":"bytes32"}],"name":"RoleAdminChanged","type":"event"},{"anonymous":false,"inputs":[{"indexed":true,"internalType":"bytes32","name":"role","type":"bytes32"},{"indexed":true,"internalType":"address","name":"account","type":"address"},{"indexed":true,"internalType":"address","name":"sender","type":"address"}],"name":"RoleGranted","type":"event"},{"anonymous":false,"inputs":[{"indexed":true,"internalType":"bytes32","name":"role","type":"bytes32"},{"indexed":true,"internalType":"address","name":"account","type":"address"},{"indexed":true,"internalType":"address","name":"sender","type":"address"}],"name":"RoleRevoked","type":"event"},{"inputs":[],"name":"DEFAULT_ADMIN_ROLE","outputs":[{"internalType":"bytes32","name":"","type":"bytes32"}],"stateMutability":"view","type":"function"},{"inputs":[],"name":"DOCTOR_ROLE","outputs":[{"internalType":"bytes32","name":"","type":"bytes32"}],"stateMutability":"view","type":"function"},{"inputs":[],"name":"PHARMACIST_ROLE","outputs":[{"internalType":"bytes32","name":"","type":"bytes32"}],"stateMutability":"view","type":"function"},{"inputs":[{"internalType":"address","name":"","type":"address"},{"internalType":"uint256","name":"","type":"uint256"}],"name":"doctorPrescriptions","outputs":[{"internalType":"uint256","name":"","type":"uint256"}],"stateMutability":"view","type":"function"},{"inputs":[{"internalType":"uint256","name":"_prescriptionId","type":"uint256"}],"name":"fillPrescription","outputs":[],"stateMutability":"nonpayable","type":"function"},{"inputs":[{"internalType":"address","name":"_doctor","type":"address"}],"name":"getDoctorPrescriptions","outputs":[{"internalType":"uint256[]","name":"","type":"uint256[]"}],"stateMutability":"view","type":"function"},{"inputs":[{"internalType":"address","name":"_patient","type":"address"}],"name":"getPatientPrescriptions","outputs":[{"internalType":"uint256[]","name":"","type":"uint256[]"}],"stateMutability":"view","type":"function"},{"inputs":[{"internalType":"uint256","name":"_prescriptionId","type":"uint256"}],"name":"getPrescription","outputs":[{"internalType":"bytes32","name":"prescriptionHash","type":"bytes32"},{"internalType":"address","name":"patient","type":"address"},{"internalType":"address","name":"doctor","type":"address"},{"internalType":"string","name":"ipfsHash","type":"string"},{"internalType":"uint256","name":"issueDate","type":"uint256"},{"internalType":"uint256","name":"validUntil","type":"uint256"},{"internalType":"bool","name":"isValid","type":"bool"},{"internalType":"bool","name":"isFilled","type":"bool"}],"stateMutability":"view","type":"function"},{"inputs":[{"internalType":"bytes32","name":"role","type":"bytes32"}],"name":"getRoleAdmin","outputs":[{"internalType":"bytes32","name":"","type":"bytes32"}],"stateMutability":"view","type":"function"},{"inputs":[{"internalType":"bytes32","name":"role","type":"bytes32"},{"internalType":"address","name":"account","type":"address"}],"name":"grantRole","outputs":[],"stateMutability":"nonpayable","type":"function"},{"inputs":[{"internalType":"bytes32","name":"role","type":"bytes32"},{"internalType":"address","name":"account","type":"address"}],"name":"hasRole","outputs":[{"internalType":"bool","name":"","type":"bool"}],"stateMutability":"view","type":"function"},{"inputs":[{"internalType":"uint256","name":"_prescriptionId","type":"uint256"}],"name":"invalidatePrescription","outputs":[],"stateMutability":"nonpayable","type":"function"},{"inputs":[{"internalType":"bytes32","name":"_prescriptionHash","type":"bytes32"},{"internalType":"address","name":"_patient","type":"address"},{"internalType":"string","name":"_ipfsHash","type":"string"},{"internalType":"uint256","name":"_validityDays","type":"uint256"}],"name":"issuePrescription","outputs":[{"internalType":"uint256","name":"","type":"uint256"}],"stateMutability":"nonpayable","type":"function"},{"inputs":[{"internalType":"address","name":"","type":"address"},{"internalType":"uint256","name":"","type":"uint256"}],"name":"patientPrescriptions","outputs":[{"internalType":"uint256","name":"","type":"uint256"}],"stateMutability":"view","type":"function"},{"inputs":[],"name":"prescriptionCount","outputs":[{"internalType":"uint256","name":"","type":"uint256"}],"stateMutability":"view","type":"function"},{"inputs":[{"internalType":"bytes32","name":"","type":"bytes32"}],"name":"prescriptionHashToId","outputs":[{"internalType":"uint256","name":"","type":"uint256"}],"stateMutability":"view","type":"function"},{"inputs":[{"internalType":"uint256","name":"","type":"uint256"}],"name":"prescriptions","outputs":[{"internalType":"bytes32","name":"prescriptionHash","type":"bytes32"},{"internalType":"address","name":"patient","type":"address"},{"internalType":"address","name":"doctor","type":"address"},{"internalType":"string","name":"ipfsHash","type":"string"},{"internalType":"uint256","name":"issueDate","type":"uint256"},{"internalType":"uint256","name":"validUntil","type":"uint256"},{"internalType":"bool","name":"isValid","type":"bool"},{"internalType":"bool","name":"isFilled","type":"bool"},{"internalType":"address","name":"filledBy","type":"address"},{"internalType":"uint256","name":"filledAt","type":"uint256"}],"stateMutability":"view","type":"function"},{"inputs":[{"internalType":"bytes32","name":"role","type":"bytes32"},{"internalType":"address","name":"callerConfirmation","type":"address"}],"name":"renounceRole","outputs":[],"stateMutability":"nonpayable","type":"function"},{"inputs":[{"internalType":"bytes32","name":"role","type":"bytes32"},{"internalType":"address","name":"account","type":"address"}],"name":"revokeRole","outputs":[],"stateMutability":"nonpayable","type":"function"},{"inputs":[{"internalType":"bytes4","name":"interfaceId","type":"bytes4"}],"name":"supportsInterface","outputs":[{"internalType":"bool","name":"","type":"bool"}],"stateMutability":"view","type":"function"},{"inputs":[{"internalType":"bytes32","name":"_prescriptionHash","type":"bytes32"}],"name":"verifyPrescription","outputs":[{"internalType":"bool","name":"exists","type":"bool"},{"internalType":"bool","name":"isValid","type":"bool"},{"internalType":"bool","name":"isExpired","type":"bool"},{"internalType":"bool","name":"isFilled","type":"bool"},{"internalType":"address","name":"doctor","type":"address"},{"internalType":"address","name":"patient","type":"address"}],"stateMutability":"view","type":"function"}],"evm":{"bytecode":{"linkReferences":{},"object":"608060405234801561001057600080fd5b5060017f9b779b17422d0df92223018b32b4d1fa46e071723d6817e2486d003becc55f0055610040600033610046565b506100f2565b6000828152602081815260408083206001600160a01b038516845290915281205460ff166100e8576000838152602081815260408083206001600160a01b03861684529091529020805460ff191660011790556100a03390565b6001600160a01b0316826001600160a01b0316847f2f8788117e7eff1d82e926ec794901d17c78024a50270940304540a733656f0d60405160405180910390a45060016100ec565b5060005b92915050565b6118d1806101016000396000f3fe608060405234801561001057600080fd5b50600436106101375760003560e01c8063733ba56d116100b8578063b11db9e41161007c578063b11db9e4146102c7578063b6558498146102da578063c532d9fa146102e3578063d547741f146102f8578063f971f3f11461030b578063fec331f21461035e57600080fd5b8063733ba56d146102665780638a462e1a1461027957806391d1485414610299578063a217fddf146102ac578063a4c54e77146102b457600080fd5b80632f2ff15d116100ff5780632f2ff15d146101dd57806331dfc91b146101f057806336568abe146102195780636559dfc71461022c5780636f16af101461023f57600080fd5b806301ffc9a71461013c578063207ec23414610164578063219d72ea14610192578063248a9ca3146101a75780632e7fdb24146101ca575b600080fd5b61014f61014a36600461134a565b610385565b60405190151581526020015b60405180910390f35b61018461017236600461137b565b60026020526000908152604090205481565b60405190815260200161015b565b6101a56101a036600461137b565b6103bc565b005b6101846101b536600461137b565b60009081526020819052604090206001015490565b6101846101d83660046113c6565b6104ee565b6101a56101eb366004611499565b61088d565b6102036101fe36600461137b565b6108b8565b60405161015b9a9998979695949392919061150b565b6101a5610227366004611499565b6109ae565b61018461023a366004611577565b6109e6565b61025261024d36600461137b565b610a17565b60405161015b9897969594939291906115a1565b610184610274366004611577565b610c3b565b61028c6102873660046115fe565b610c57565b60405161015b9190611619565b61014f6102a7366004611499565b610d4a565b610184600081565b61028c6102c23660046115fe565b610d73565b6101a56102d536600461137b565b610e16565b61018460055481565b61018460008051602061187c83398151915281565b6101a5610306366004611499565b610ff0565b61031e61031936600461137b565b611015565b604080519615158752941515602087015292151593850193909352151560608401526001600160a01b0391821660808401521660a082015260c00161015b565b6101847f0af1dac7dea2fd7f7738119cec7df099dfad49aa9d2e7d17ba6b60f63ae7411f81565b60006001600160e01b03198216637965db0b60e01b14806103b657506301ffc9a760e01b6001600160e01b03198316145b92915050565b6103c46111bc565b6000811180156103d657506005548111155b6103fb5760405162461bcd60e51b81526004016103f29061165d565b60405180910390fd5b600081815260016020526040902060028101546001600160a01b031633148061042a575061042a600033610d4a565b6104465760405162461bcd60e51b81526004016103f290611694565b600681015460ff1661049a5760405162461bcd60e51b815260206004820152601c60248201527f507265736372697074696f6e20616c726561647920696e76616c69640000000060448201526064016103f2565b60068101805460ff19169055604051339083907f7a979745739296457323a42d8b970cec24d14f1093d5ad026ddf1fd95caa3f7490600090a3506104eb600160008051602061185c83398151915255565b50565b60007f0af1dac7dea2fd7f7738119cec7df099dfad49aa9d2e7d17ba6b60f63ae7411f61051a816111d8565b6105226111bc565b8561056f5760405162461bcd60e51b815260206004820152601960248201527f496e76616c696420707265736372697074696f6e20686173680000000000000060448201526064016103f2565b6001600160a01b0385166105c55760405162461bcd60e51b815260206004820152601760248201527f496e76616c69642070617469656e74206164647265737300000000000000000060448201526064016103f2565b6000831180156105d7575061016d8311155b6106235760405162461bcd60e51b815260206004820152601760248201527f496e76616c69642076616c696469747920706572696f6400000000000000000060448201526064016103f2565b6000868152600260205260409020541561067f5760405162461bcd60e51b815260206004820152601b60248201527f507265736372697074696f6e20616c726561647920657869737473000000000060448201526064016103f2565b6005805490600061068f836116d0565b90915550506005544260006106a786620151806116e9565b6106b19083611700565b60408051610140810182528b81526001600160a01b03808c16602080840191825233848601908152606085018e8152608086018a905260a08601889052600160c08701819052600060e08801819052610100880181905261012088018190528c8152938190529690922085518155925195830180549685166001600160a01b031997881617905551600283018054919094169516949094179091559151929350916003820190610761908261179b565b50608082015160048281019190915560a0830151600583015560c083015160068301805460e08601516101008088015161ffff1990931694151561ff001916949094179015159093029290921762010000600160b01b031916620100006001600160a01b03938416021790556101209093015160079092019190915560008b8152600260209081526040808320889055938c1680835260038252848320805460018181018355918552838520018990553380855294835285842080549182018155845292829020909201879055835192835282018590529181018390528a9085907f733147de52de21147c25cbc0e787766d0a712228713fd2e96a2bb9f7d5cb23039060600160405180910390a45050600160008051602061185c833981519152559695505050505050565b6000828152602081905260409020600101546108a8816111d8565b6108b283836111e2565b50505050565b600160208190526000918252604090912080549181015460028201546003830180546001600160a01b039384169492909316926108f490611713565b80601f016020809104026020016040519081016040528092919081815260200182805461092090611713565b801561096d5780601f106109425761010080835404028352916020019161096d565b820191906000526020600020905b81548152906001019060200180831161095057829003601f168201915b5050506004840154600585015460068601546007909601549495919490935060ff8083169350610100830416916001600160a01b036201000090910416908a565b6001600160a01b03811633146109d75760405163334bd91960e11b815260040160405180910390fd5b6109e18282611274565b505050565b60046020528160005260406000208181548110610a0257600080fd5b90600052602060002001600091509150505481565b60008060006060600080600080600089118015610a3657506005548911155b610a525760405162461bcd60e51b81526004016103f29061165d565b600089815260016020818152604080842081516101408101835281548152938101546001600160a01b0390811693850193909352600281015490921690830152600381018054606084019190610aa790611713565b80601f0160208091040260200160405190810160405280929190818152602001828054610ad390611713565b8015610b205780601f10610af557610100808354040283529160200191610b20565b820191906000526020600020905b815481529060010190602001808311610b0357829003601f168201915b5050509183525050600482015460208083019190915260058301546040830152600683015460ff80821615156060850152610100820416151560808401526201000090046001600160a01b0390811660a084015260079093015460c09092019190915282015191925016331480610bac575080604001516001600160a01b0316336001600160a01b0316145b80610bca5750610bca60008051602061187c83398151915233610d4a565b80610bdb5750610bdb600033610d4a565b610bf75760405162461bcd60e51b81526004016103f290611694565b806000015181602001518260400151836060015184608001518560a001518660c001518760e001519850985098509850985098509850985050919395975091939597565b60036020528160005260406000208181548110610a0257600080fd5b6060336001600160a01b0383161480610c955750610c957f0af1dac7dea2fd7f7738119cec7df099dfad49aa9d2e7d17ba6b60f63ae7411f33610d4a565b80610cb35750610cb360008051602061187c83398151915233610d4a565b80610cc45750610cc4600033610d4a565b610ce05760405162461bcd60e51b81526004016103f290611694565b6001600160a01b03821660009081526003602090815260409182902080548351818402810184019094528084529091830182828015610d3e57602002820191906000526020600020905b815481526020019060010190808311610d2a575b50505050509050919050565b6000918252602082815260408084206001600160a01b0393909316845291905290205460ff1690565b6060336001600160a01b0383161480610d925750610d92600033610d4a565b610dae5760405162461bcd60e51b81526004016103f290611694565b6001600160a01b03821660009081526004602090815260409182902080548351818402810184019094528084529091830182828015610d3e5760200282019190600052602060002090815481526020019060010190808311610d2a5750505050509050919050565b60008051602061187c833981519152610e2e816111d8565b610e366111bc565b600082118015610e4857506005548211155b610e645760405162461bcd60e51b81526004016103f29061165d565b6000828152600160205260409020600681015460ff16610ec65760405162461bcd60e51b815260206004820152601960248201527f507265736372697074696f6e206973206e6f742076616c69640000000000000060448201526064016103f2565b6006810154610100900460ff1615610f205760405162461bcd60e51b815260206004820152601b60248201527f507265736372697074696f6e20616c72656164792066696c6c6564000000000060448201526064016103f2565b8060050154421115610f6b5760405162461bcd60e51b8152602060048201526014602482015273141c995cd8dc9a5c1d1a5bdb88195e1c1a5c995960621b60448201526064016103f2565b6006810180546201000033908102610100600160b01b03199092169190911761010017909155426007830181905560405185917f58093130f09d2ae23e85a3791715517c9b001e080f848fa6953409faa82d3de191610fcc91815260200190565b60405180910390a350610fec600160008051602061185c83398151915255565b5050565b60008281526020819052604090206001015461100b816111d8565b6108b28383611274565b6000818152600260205260408120548190819081908190819080820361105057600080600080600080965096509650965096509650506111b3565b600081815260016020818152604080842081516101408101835281548152938101546001600160a01b03908116938501939093526002810154909216908301526003810180546060840191906110a590611713565b80601f01602080910402602001604051908101604052809291908181526020018280546110d190611713565b801561111e5780601f106110f35761010080835404028352916020019161111e565b820191906000526020600020905b81548152906001019060200180831161110157829003601f168201915b505050918352505060048201546020808301919091526005830154604080840191909152600684015460ff80821615156060860152610100820416151560808501526201000090046001600160a01b031660a08085019190915260079094015460c093840152928401519184015160e085015193850151949091015160019c50909a5042919091119850909650909450925050505b91939550919395565b6111c46112df565b600260008051602061185c83398151915255565b6104eb8133611311565b60006111ee8383610d4a565b61126c576000838152602081815260408083206001600160a01b03861684529091529020805460ff191660011790556112243390565b6001600160a01b0316826001600160a01b0316847f2f8788117e7eff1d82e926ec794901d17c78024a50270940304540a733656f0d60405160405180910390a45060016103b6565b5060006103b6565b60006112808383610d4a565b1561126c576000838152602081815260408083206001600160a01b0386168085529252808320805460ff1916905551339286917ff6391f5c32d9c69d2a47ea670b442974b53935d1edc7fd64eb21e047a839171b9190a45060016103b6565b60008051602061185c8339815191525460020361130f57604051633ee5aeb560e01b815260040160405180910390fd5b565b61131b8282610d4a565b610fec5760405163e2517d3f60e01b81526001600160a01b0382166004820152602481018390526044016103f2565b60006020828403121561135c57600080fd5b81356001600160e01b03198116811461137457600080fd5b9392505050565b60006020828403121561138d57600080fd5b5035919050565b80356001600160a01b03811681146113ab57600080fd5b919050565b634e487b7160e01b600052604160045260246000fd5b600080600080608085870312156113dc57600080fd5b843593506113ec60208601611394565b9250604085013567ffffffffffffffff8082111561140957600080fd5b818701915087601f83011261141d57600080fd5b81358181111561142f5761142f6113b0565b604051601f8201601f19908116603f01168101908382118183101715611457576114576113b0565b816040528281528a602084870101111561147057600080fd5b826020860160208301376000928101602001929092525095989497509495606001359450505050565b600080604083850312156114ac57600080fd5b823591506114bc60208401611394565b90509250929050565b6000815180845260005b818110156114eb576020818501810151868301820152016114cf565b506000602082860101526020601f19601f83011685010191505092915050565b8a81526001600160a01b038a8116602083015289811660408301526101406060830181905260009161153f8483018c6114c5565b608085019a909a5260a0840198909852505093151560c085015291151560e08401529092166101008201526101200152949350505050565b6000806040838503121561158a57600080fd5b61159383611394565b946020939093013593505050565b8881526001600160a01b03888116602083015287166040820152610100606082018190526000906115d4838201896114c5565b6080840197909752505060a081019390935290151560c0830152151560e090910152949350505050565b60006020828403121561161057600080fd5b61137482611394565b6020808252825182820181905260009190848201906040850190845b8181101561165157835183529284019291840191600101611635565b50909695505050505050565b60208082526017908201527f496e76616c696420707265736372697074696f6e204944000000000000000000604082015260600190565b6020808252600c908201526b155b985d5d1a1bdc9a5e995960a21b604082015260600190565b634e487b7160e01b600052601160045260246000fd5b6000600182016116e2576116e26116ba565b5060010190565b80820281158282048414176103b6576103b66116ba565b808201808211156103b6576103b66116ba565b600181811c9082168061172757607f821691505b60208210810361174757634e487b7160e01b600052602260045260246000fd5b50919050565b601f8211156109e157600081815260208120601f850160051c810160208610156117745750805b601f850160051c820191505b8181101561179357828155600101611780565b505050505050565b815167ffffffffffffffff8111156117b5576117b56113b0565b6117c9816117c38454611713565b8461174d565b602080601f8311600181146117fe57600084156117e65750858301515b600019600386901b1c1916600185901b178555611793565b600085815260208120601f198616915b8281101561182d5788860151825594840194600190910190840161180e565b508582101561184b5787850151600019600388901b60f8161c191681555b5050505050600190811b0190555056fe9b779b17422d0df92223018b32b4d1fa46e071723d6817e2486d003becc55f00c2d498fa6734073871a6dde33c56174c52423804118e0d5b66171fad3494de68a264697066735822122021444e587d4d8f29e0a6b23c4221c21e1f3c0b8338f43ff87a11a0d320bafb3e64736f6c63430008140033","opcodes":"PUSH1 0x80 PUSH1 0x40 MSTORE CALLVALUE DUP1 ISZERO PUSH2 0x10 JUMPI PUSH1 0x0 DUP1 REVERT JUMPDEST POP PUSH1 0x1 PUSH32 0x9B779B17422D0DF92223018B32B4D1FA46E071723D6817E2486D003BECC55F00 SSTORE PUSH2 0x40 PUSH1 0x0 CALLER PUSH2 0x46 JUMP JUMPDEST POP PUSH2 0xF2 JUMP JUMPDEST PUSH1 0x0 DUP3 DUP2 MSTORE PUSH1 0x20 DUP2 DUP2 MSTORE PUSH1 0x40 DUP1 DUP4 KECCAK256 PUSH1 0x1 PUSH1 0x1 PUSH1 0xA0 SHL SUB DUP6 AND DUP5 MSTORE SWAP1 SWAP2 MSTORE DUP2 KECCAK256 SLOAD PUSH1 0xFF AND PUSH2 0xE8 JUMPI PUSH1 0x0 DUP4 DUP2 MSTORE PUSH1 0x20 DUP2 DUP2 MSTORE PUSH1 0x40 DUP1 DUP4 KECCAK256 PUSH1 0x1 PUSH1 0x1 PUSH1 0xA0 SHL SUB DUP7 AND DUP5 MSTORE SWAP1 SWAP2 MSTORE SWAP1 KECCAK256 DUP1 SLOAD PUSH1 0xFF NOT AND PUSH1 0x1 OR SWAP1 SSTORE PUSH2 0xA0 CALLER SWAP1 JUMP JUMPDEST PUSH1 0x1 PUSH1 0x1 PUSH1 0xA0 SHL SUB AND DUP3 PUSH1 0x1 PUSH1 0x1 PUSH1 0xA0 SHL SUB AND DUP5 PUSH32 0x2F8788117E7EFF1D82E926EC794901D17C78024A50270940304540A733656F0D PUSH1 0x40 MLOAD PUSH1 0x40 MLOAD DUP1 SWAP2 SUB SWAP1 LOG4 POP PUSH1 0x1 PUSH2 0xEC JUMP JUMPDEST POP PUSH1 0x0 JUMPDEST SWAP3 SWAP2 POP POP JUMP JUMPDEST PUSH2 0x18D1 DUP1 PUSH2 0x101 PUSH1 0x0 CODECOPY PUSH1 0x0 RETURN INVALID PUSH1 0x80 PUSH1 0x40 MSTORE CALLVALUE DUP1 ISZERO PUSH2 0x10 JUMPI PUSH1 0x0 DUP1 REVERT JUMPDEST POP PUSH1 0x4 CALLDATASIZE LT PUSH2 0x137 JUMPI PUSH1 0x0 CALLDATALOAD PUSH1 0xE0 SHR DUP1 PUSH4 0x733BA56D GT PUSH2 0xB8 JUMPI DUP1 PUSH4 0xB11DB9E4 GT PUSH2 0x7C JUMPI DUP1 PUSH4 0xB11DB9E4 EQ PUSH2 0x2C7 JUMPI DUP1 PUSH4 0xB6558498 EQ PUSH2 0x2DA JUMPI DUP1 PUSH4 0xC532D9FA EQ PUSH2 0x2E3 JUMPI DUP1 PUSH4 0xD547741F EQ PUSH2 0x2F8 JUMPI DUP1 PUSH4 0xF971F3F1 EQ PUSH2 0x30B JUMPI DUP1 PUSH4 0xFEC331F2 EQ PUSH2 0x35E JUMPI PUSH1 0x0 DUP1 REVERT JUMPDEST DUP1 PUSH4 0x733BA56D EQ PUSH2 0x266 JUMPI DUP1 PUSH4 0x8A462E1A EQ PUSH2 0x279 JUMPI DUP1 PUSH4 0x91D14854 EQ PUSH2 0x299 JUMPI DUP1 PUSH4 0xA217FDDF EQ PUSH2 0x2AC JUMPI DUP1 PUSH4 0xA4C54E77 EQ PUSH2 0x2B4 JUMPI PUSH1 0x0 DUP1 REVERT JUMPDEST DUP1 PUSH4 0x2F2FF15D GT PUSH2 0xFF JUMPI DUP1 PUSH4 0x2F2FF15D EQ PUSH2 0x1DD JUMPI DUP1 PUSH4 0x31DFC91B EQ PUSH2 0x1F0 JUMPI DUP1 PUSH4 0x36568ABE EQ PUSH2 0x219 JUMPI DUP1 PUSH4 0x6559DFC7 EQ PUSH2 0x22C JUMPI DUP1 PUSH4 0x6F16AF10 EQ PUSH2 0x23F JUMPI PUSH1 0x0 DUP1 REVERT JUMPDEST DUP1 PUSH4 0x1FFC9A7 EQ PUSH2 0x13C JUMPI DUP1 PUSH4 0x207EC234 EQ PUSH2 0x164 JUMPI DUP1 PUSH4 0x219D72EA EQ PUSH2 0x192 JUMPI DUP1 PUSH4 0x248A9CA3 EQ PUSH2 0x1A7 JUMPI DUP1 PUSH4 0x2E7FDB24 EQ PUSH2 0x1CA JUMPI JUMPDEST PUSH1 0x0 DUP1 REVERT JUMPDEST PUSH2 0x14F PUSH2 0x14A CALLDATASIZE PUSH1 0x4 PUSH2 0x134A JUMP JUMPDEST PUSH2 0x385 JUMP JUMPDEST PUSH1 0x40 MLOAD SWAP1 ISZERO ISZERO DUP2 MSTORE PUSH1 0x20 ADD JUMPDEST PUSH1 0x40 MLOAD DUP1 SWAP2 SUB SWAP1 RETURN JUMPDEST PUSH2 0x184 PUSH2 0x172 CALLDATASIZE PUSH1 0x4 PUSH2 0x137B JUMP JUMPDEST PUSH1 0x2 PUSH1 0x20 MSTORE PUSH1 0x0 SWAP1 DUP2 MSTORE PUSH1 0x40 SWAP1 KECCAK256 SLOAD DUP2 JUMP JUMPDEST PUSH1 0x40 MLOAD SWAP1 DUP2 MSTORE PUSH1 0x20 ADD PUSH2 0x15B JUMP JUMPDEST PUSH2 0x1A5 PUSH2 0x1A0 CALLDATASIZE PUSH1 0x4 PUSH2 0x137B JUMP JUMPDEST PUSH2 0x3BC JUMP JUMPDEST STOP JUMPDEST PUSH2 0x184 PUSH2 0x1B5 CALLDATASIZE PUSH1 0x4 PUSH2 0x137B JUMP JUMPDEST PUSH1 0x0 SWAP1 DUP2 MSTORE PUSH1 0x20 DUP2 SWAP1 MSTORE PUSH1 0x40 SWAP1 KECCAK256 PUSH1 0x1 ADD SLOAD SWAP1 JUMP JUMPDEST PUSH2 0x184 PUSH2 0x1D8 CALLDATASIZE PUSH1 0x4 PUSH2 0x13C6 JUMP JUMPDEST PUSH2 0x4EE JUMP JUMPDEST PUSH2 0x1A5 PUSH2 0x1EB CALLDATASIZE PUSH1 0x4 PUSH2 0x1499 JUMP JUMPDEST PUSH2 0x88D JUMP JUMPDEST PUSH2 0x203 PUSH2 0x1FE CALLDATASIZE PUSH1 0x4 PUSH2 0x137B JUMP JUMPDEST PUSH2 0x8B8 JUMP JUMPDEST PUSH1 0x40 MLOAD PUSH2 0x15B SWAP11 SWAP10 SWAP9 SWAP8 SWAP7 SWAP6 SWAP5 SWAP4 SWAP3 SWAP2 SWAP1 PUSH2 0x150B JUMP JUMPDEST PUSH2 0x1A5 PUSH2 0x227 CALLDATASIZE PUSH1 0x4 PUSH2 0x1499 JUMP JUMPDEST PUSH2 0x9AE JUMP JUMPDEST PUSH2 0x184 PUSH2 0x23A CALLDATASIZE PUSH1 0x4 PUSH2 0x1577 JUMP JUMPDEST PUSH2 0x9E6 JUMP JUMPDEST PUSH2 0x252 PUSH2 0x24D CALLDATASIZE PUSH1 0x4 PUSH2 0x137B JUMP JUMPDEST PUSH2 0xA17 JUMP JUMPDEST PUSH1 0x40 MLOAD PUSH2 0x15B SWAP9 SWAP8 SWAP7 SWAP6 SWAP5 SWAP4 SWAP3 SWAP2 SWAP1 PUSH2 0x15A1 JUMP JUMPDEST PUSH2 0x184 PUSH2 0x274 CALLDATASIZE PUSH1 0x4 PUSH2 0x1577 JUMP JUMPDEST PUSH2 0xC3B JUMP JUMPDEST PUSH2 0x28C PUSH2 0x287 CALLDATASIZE PUSH1 0x4 PUSH2 0x15FE JUMP JUMPDEST PUSH2 0xC57 JUMP JUMPDEST PUSH1 0x40 MLOAD PUSH2 0x15B SWAP2 SWAP1 PUSH2 0x1619 JUMP JUMPDEST PUSH2 0x14F PUSH2 0x2A7 CALLDATASIZE PUSH1 0x4 PUSH2 0x1499 JUMP JUMPDEST PUSH2 0xD4A JUMP JUMPDEST PUSH2 0x184 PUSH1 0x0 DUP2 JUMP JUMPDEST PUSH2 0x28C PUSH2 0x2C2 CALLDATASIZE PUSH1 0x4 PUSH2 0x15FE JUMP JUMPDEST PUSH2 0xD73 JUMP JUMPDEST PUSH2 0x1A5 PUSH2 0x2D5 CALLDATASIZE PUSH1 0x4 PUSH2 0x137B JUMP JUMPDEST PUSH2 0xE16 JUMP JUMPDEST PUSH2 0x184 PUSH1 0x5 SLOAD DUP2 JUMP JUMPDEST PUSH2 0x184 PUSH1 0x0 DUP1 MLOAD PUSH1 0x20 PUSH2 0x187C DUP4 CODECOPY DUP2 MLOAD SWAP2 MSTORE DUP2 JUMP JUMPDEST PUSH2 0x1A5 PUSH2 0x306 CALLDATASIZE PUSH1 0x4 PUSH2 0x1499 JUMP JUMPDEST PUSH2 0xFF0 JUMP JUMPDEST PUSH2 0x31E PUSH2 0x319 CALLDATASIZE PUSH1 0x4 PUSH2 0x137B JUMP JUMPDEST PUSH2 0x1015 JUMP JUMPDEST PUSH1 0x40 DUP1 MLOAD SWAP7 ISZERO ISZERO DUP8 MSTORE SWAP5 ISZERO ISZERO PUSH1 0x20 DUP8 ADD MSTORE SWAP3 ISZERO ISZERO SWAP4 DUP6 ADD SWAP4 SWAP1 SWAP4 MSTORE ISZERO ISZERO PUSH1 0x60 DUP5 ADD MSTORE PUSH1 0x1 PUSH1 0x1 PUSH1 0xA0 SHL SUB SWAP2 DUP3 AND PUSH1 0x80 DUP5 ADD MSTORE AND PUSH1 0xA0 DUP3 ADD MSTORE PUSH1 0xC0 ADD PUSH2 0x15B JUMP JUMPDEST PUSH2 0x184 PUSH32 0xAF1DAC7DEA2FD7F7738119CEC7DF099DFAD49AA9D2E7D17BA6B60F63AE7411F DUP2 JUMP JUMPDEST PUSH1 0x0 PUSH1 0x1 PUSH1 0x1 PUSH1 0xE0 SHL SUB NOT DUP3 AND PUSH4 0x7965DB0B PUSH1 0xE0 SHL EQ DUP1 PUSH2 0x3B6 JUMPI POP PUSH4 0x1FFC9A7 PUSH1 0xE0 SHL PUSH1 0x1 PUSH1 0x1 PUSH1 0xE0 SHL SUB NOT DUP4 AND EQ JUMPDEST SWAP3 SWAP2 POP POP JUMP JUMPDEST PUSH2 0x3C4 PUSH2 0x11BC JUMP JUMPDEST PUSH1 0x0 DUP2 GT DUP1 ISZERO PUSH2 0x3D6 JUMPI POP PUSH1 0x5 SLOAD DUP2 GT ISZERO JUMPDEST PUSH2 0x3FB JUMPI PUSH1 0x40 MLOAD PUSH3 0x461BCD PUSH1 0xE5 SHL DUP2 MSTORE PUSH1 0x4 ADD PUSH2 0x3F2 SWAP1 PUSH2 0x165D JUMP JUMPDEST PUSH1 0x40 MLOAD DUP1 SWAP2 SUB SWAP1 REVERT JUMPDEST PUSH1 0x0 DUP2 DUP2 MSTORE PUSH1 0x1 PUSH1 0x20 MSTORE PUSH1 0x40 SWAP1 KECCAK256 PUSH1 0x2 DUP2 ADD SLOAD PUSH1 0x1 PUSH1 0x1 PUSH1 0xA0 SHL SUB AND CALLER EQ DUP1 PUSH2 0x42A JUMPI POP PUSH2 0x42A PUSH1 0x0 CALLER PUSH2 0xD4A JUMP JUMPDEST PUSH2 0x446 JUMPI PUSH1 0x40 MLOAD PUSH3 0x461BCD PUSH1 0xE5 SHL DUP2 MSTORE PUSH1 0x4 ADD PUSH2 0x3F2 SWAP1 PUSH2 0x1694 JUMP JUMPDEST PUSH1 0x6 DUP2 ADD SLOAD PUSH1 0xFF AND PUSH2 0x49A JUMPI PUSH1 0x40 MLOAD PUSH3 0x461BCD PUSH1 0xE5 SHL DUP2 MSTORE PUSH1 0x20 PUSH1 0x4 DUP3 ADD MSTORE PUSH1 0x1C PUSH1 0x24 DUP3 ADD MSTORE PUSH32 0x507265736372697074696F6E20616C726561647920696E76616C696400000000 PUSH1 0x44 DUP3 ADD MSTORE PUSH1 0x64 ADD PUSH2 0x3F2 JUMP JUMPDEST PUSH1 0x6 DUP2 ADD DUP1 SLOAD PUSH1 0xFF NOT AND SWAP1 SSTORE PUSH1 0x40 MLOAD CALLER SWAP1 DUP4 SWAP1 PUSH32 0x7A979745739296457323A42D8B970CEC24D14F1093D5AD026DDF1FD95CAA3F74 SWAP1 PUSH1 0x0 SWAP1 LOG3 POP PUSH2 0x4EB PUSH1 0x1 PUSH1 0x0 DUP1 MLOAD PUSH1 0x20 PUSH2 0x185C DUP4 CODECOPY DUP2 MLOAD SWAP2 MSTORE SSTORE JUMP JUMPDEST POP JUMP JUMPDEST PUSH1 0x0 PUSH32 0xAF1DAC7DEA2FD7F7738119CEC7DF099DFAD49AA9D2E7D17BA6B60F63AE7411F PUSH2 0x51A DUP2 PUSH2 0x11D8 JUMP JUMPDEST PUSH2 0x522 PUSH2 0x11BC JUMP JUMPDEST DUP6 PUSH2 0x56F JUMPI PUSH1 0x40 MLOAD PUSH3 0x461BCD PUSH1 0xE5 SHL DUP2 MSTORE PUSH1 0x20 PUSH1 0x4 DUP3 ADD MSTORE PUSH1 0x19 PUSH1 0x24 DUP3 ADD MSTORE PUSH32 0x496E76616C696420707265736372697074696F6E206861736800000000000000 PUSH1 0x44 DUP3 ADD MSTORE PUSH1 0x64 ADD PUSH2 0x3F2 JUMP JUMPDEST PUSH1 0x1 PUSH1 0x1 PUSH1 0xA0 SHL SUB DUP6 AND PUSH2 0x5C5 JUMPI PUSH1 0x40 MLOAD PUSH3 0x461BCD PUSH1 0xE5 SHL DUP2 MSTORE PUSH1 0x20 PUSH1 0x4 DUP3 ADD MSTORE PUSH1 0x17 PUSH1 0x24 DUP3 ADD MSTORE PUSH32 0x496E76616C69642070617469656E742061646472657373000000000000000000 PUSH1 0x44 DUP3 ADD MSTORE PUSH1 0x64 ADD PUSH2 0x3F2 JUMP JUMPDEST PUSH1 0x0 DUP4 GT DUP1 ISZERO PUSH2 0x5D7 JUMPI POP PUSH2 0x16D DUP4 GT ISZERO JUMPDEST PUSH2 0x623 JUMPI PUSH1 0x40 MLOAD PUSH3 0x461BCD PUSH1 0xE5 SHL DUP2 MSTORE PUSH1 0x20 PUSH1 0x4 DUP3 ADD MSTORE PUSH1 0x17 PUSH1 0x24 DUP3 ADD MSTORE PUSH32 0x496E76616C69642076616C696469747920706572696F64000000000000000000 PUSH1 0x44 DUP3 ADD MSTORE PUSH1 0x64 ADD PUSH2 0x3F2 JUMP JUMPDEST PUSH1 0x0 DUP7 DUP2 MSTORE PUSH1 0x2 PUSH1 0x20 MSTORE PUSH1 0x40 SWAP1 KECCAK256 SLOAD ISZERO PUSH2 0x67F JUMPI PUSH1 0x40 MLOAD PUSH3 0x461BCD PUSH1 0xE5 SHL DUP2 MSTORE PUSH1 0x20 PUSH1 0x4 DUP3 ADD MSTORE PUSH1 0x1B PUSH1 0x24 DUP3 ADD MSTORE PUSH32 0x507265736372697074696F6E20616C7265616479206578697374730000000000 PUSH1 0x44 DUP3 ADD MSTORE PUSH1 0x64 ADD PUSH2 0x3F2 JUMP JUMPDEST PUSH1 0x5 DUP1 SLOAD SWAP1 PUSH1 0x0 PUSH2 0x68F DUP4 PUSH2 0x16D0 JUMP JUMPDEST SWAP1 SWAP2 SSTORE POP POP PUSH1 0x5 SLOAD TIMESTAMP PUSH1 0x0 PUSH2 0x6A7 DUP7 PUSH3 0x15180 PUSH2 0x16E9 JUMP JUMPDEST PUSH2 0x6B1 SWAP1 DUP4 PUSH2 0x1700 JUMP JUMPDEST PUSH1 0x40 DUP1 MLOAD PUSH2 0x140 DUP2 ADD DUP3 MSTORE DUP12 DUP2 MSTORE PUSH1 0x1 PUSH1 0x1 PUSH1 0xA0 SHL SUB DUP1 DUP13 AND PUSH1 0x20 DUP1 DUP5 ADD SWAP2 DUP3 MSTORE CALLER DUP5 DUP7 ADD SWAP1 DUP2 MSTORE PUSH1 0x60 DUP6 ADD DUP15 DUP2 MSTORE PUSH1 0x80 DUP7 ADD DUP11 SWAP1 MSTORE PUSH1 0xA0 DUP7 ADD DUP9 SWAP1 MSTORE PUSH1 0x1 PUSH1 0xC0 DUP8 ADD DUP2 SWAP1 MSTORE PUSH1 0x0 PUSH1 0xE0 DUP9 ADD DUP2 SWAP1 MSTORE PUSH2 0x100 DUP9 ADD DUP2 SWAP1 MSTORE PUSH2 0x120 DUP9 ADD DUP2 SWAP1 MSTORE DUP13 DUP2 MSTORE SWAP4 DUP2 SWAP1 MSTORE SWAP7 SWAP1 SWAP3 KECCAK256 DUP6 MLOAD DUP2 SSTORE SWAP3 MLOAD SWAP6 DUP4 ADD DUP1 SLOAD SWAP7 DUP6 AND PUSH1 0x1 PUSH1 0x1 PUSH1 0xA0 SHL SUB NOT SWAP8 DUP9 AND OR SWAP1 SSTORE MLOAD PUSH1 0x2 DUP4 ADD DUP1 SLOAD SWAP2 SWAP1 SWAP5 AND SWAP6 AND SWAP5 SWAP1 SWAP5 OR SWAP1 SWAP2 SSTORE SWAP2 MLOAD SWAP3 SWAP4 POP SWAP2 PUSH1 0x3 DUP3 ADD SWAP1 PUSH2 0x761 SWAP1 DUP3 PUSH2 0x179B JUMP JUMPDEST POP PUSH1 0x80 DUP3 ADD MLOAD PUSH1 0x4 DUP3 DUP2 ADD SWAP2 SWAP1 SWAP2 SSTORE PUSH1 0xA0 DUP4 ADD MLOAD PUSH1 0x5 DUP4 ADD SSTORE PUSH1 0xC0 DUP4 ADD MLOAD PUSH1 0x6 DUP4 ADD DUP1 SLOAD PUSH1 0xE0 DUP7 ADD MLOAD PUSH2 0x100 DUP1 DUP9 ADD MLOAD PUSH2 0xFFFF NOT SWAP1 SWAP4 AND SWAP5 ISZERO ISZERO PUSH2 0xFF00 NOT AND SWAP5 SWAP1 SWAP5 OR SWAP1 ISZERO ISZERO SWAP1 SWAP4 MUL SWAP3 SWAP1 SWAP3 OR PUSH3 0x10000 PUSH1 0x1 PUSH1 0xB0 SHL SUB NOT AND PUSH3 0x10000 PUSH1 0x1 PUSH1 0x1 PUSH1 0xA0 SHL SUB SWAP4 DUP5 AND MUL OR SWAP1 SSTORE PUSH2 0x120 SWAP1 SWAP4 ADD MLOAD PUSH1 0x7 SWAP1 SWAP3 ADD SWAP2 SWAP1 SWAP2 SSTORE PUSH1 0x0 DUP12 DUP2 MSTORE PUSH1 0x2 PUSH1 0x20 SWAP1 DUP2 MSTORE PUSH1 0x40 DUP1 DUP4 KECCAK256 DUP9 SWAP1 SSTORE SWAP4 DUP13 AND DUP1 DUP4 MSTORE PUSH1 0x3 DUP3 MSTORE DUP5 DUP4 KECCAK256 DUP1 SLOAD PUSH1 0x1 DUP2 DUP2 ADD DUP4 SSTORE SWAP2 DUP6 MSTORE DUP4 DUP6 KECCAK256 ADD DUP10 SWAP1 SSTORE CALLER DUP1 DUP6 MSTORE SWAP5 DUP4 MSTORE DUP6 DUP5 KECCAK256 DUP1 SLOAD SWAP2 DUP3 ADD DUP2 SSTORE DUP5 MSTORE SWAP3 DUP3 SWAP1 KECCAK256 SWAP1 SWAP3 ADD DUP8 SWAP1 SSTORE DUP4 MLOAD SWAP3 DUP4 MSTORE DUP3 ADD DUP6 SWAP1 MSTORE SWAP2 DUP2 ADD DUP4 SWAP1 MSTORE DUP11 SWAP1 DUP6 SWAP1 PUSH32 0x733147DE52DE21147C25CBC0E787766D0A712228713FD2E96A2BB9F7D5CB2303 SWAP1 PUSH1 0x60 ADD PUSH1 0x40 MLOAD DUP1 SWAP2 SUB SWAP1 LOG4 POP POP PUSH1 0x1 PUSH1 0x0 DUP1 MLOAD PUSH1 0x20 PUSH2 0x185C DUP4 CODECOPY DUP2 MLOAD SWAP2 MSTORE SSTORE SWAP7 SWAP6 POP POP POP POP POP POP JUMP JUMPDEST PUSH1 0x0 DUP3 DUP2 MSTORE PUSH1 0x20 DUP2 SWAP1 MSTORE PUSH1 0x40 SWAP1 KECCAK256 PUSH1 0x1 ADD SLOAD PUSH2 0x8A8 DUP2 PUSH2 0x11D8 JUMP JUMPDEST PUSH2 0x8B2 DUP4 DUP4 PUSH2 0x11E2 JUMP JUMPDEST POP POP POP POP JUMP JUMPDEST PUSH1 0x1 PUSH1 0x20 DUP2 SWAP1 MSTORE PUSH1 0x0 SWAP2 DUP3 MSTORE PUSH1 0x40 SWAP1 SWAP2 KECCAK256 DUP1 SLOAD SWAP2 DUP2 ADD SLOAD PUSH1 0x2 DUP3 ADD SLOAD PUSH1 0x3 DUP4 ADD DUP1 SLOAD PUSH1 0x1 PUSH1 0x1 PUSH1 0xA0 SHL SUB SWAP4 DUP5 AND SWAP5 SWAP3 SWAP1 SWAP4 AND SWAP3 PUSH2 0x8F4 SWAP1 PUSH2 0x1713 JUMP JUMPDEST DUP1 PUSH1 0x1F ADD PUSH1 0x20 DUP1 SWAP2 DIV MUL PUSH1 0x20 ADD PUSH1 0x40 MLOAD SWAP1 DUP2 ADD PUSH1 0x40 MSTORE DUP1 SWAP3 SWAP2 SWAP1 DUP2 DUP2 MSTORE PUSH1 0x20 ADD DUP3 DUP1 SLOAD PUSH2 0x920 SWAP1 PUSH2 0x1713 JUMP JUMPDEST DUP1 ISZERO PUSH2 0x96D JUMPI DUP1 PUSH1 0x1F LT PUSH2 0x942 JUMPI PUSH2 0x100 DUP1 DUP4 SLOAD DIV MUL DUP4 MSTORE SWAP2 PUSH1 0x20 ADD SWAP2 PUSH2 0x96D JUMP JUMPDEST DUP3 ADD SWAP2 SWAP1 PUSH1 0x0 MSTORE PUSH1 0x20 PUSH1 0x0 KECCAK256 SWAP1 JUMPDEST DUP2 SLOAD DUP2 MSTORE SWAP1 PUSH1 0x1 ADD SWAP1 PUSH1 0x20 ADD DUP1 DUP4 GT PUSH2 0x950 JUMPI DUP3 SWAP1 SUB PUSH1 0x1F AND DUP3 ADD SWAP2 JUMPDEST POP POP POP PUSH1 0x4 DUP5 ADD SLOAD PUSH1 0x5 DUP6 ADD SLOAD PUSH1 0x6 DUP7 ADD SLOAD PUSH1 0x7 SWAP1 SWAP7 ADD SLOAD SWAP5 SWAP6 SWAP2 SWAP5 SWAP1 SWAP4 POP PUSH1 0xFF DUP1 DUP4 AND SWAP4 POP PUSH2 0x100 DUP4 DIV AND SWAP2 PUSH1 0x1 PUSH1 0x1 PUSH1 0xA0 SHL SUB PUSH3 0x10000 SWAP1 SWAP2 DIV AND SWAP1 DUP11 JUMP JUMPDEST PUSH1 0x1 PUSH1 0x1 PUSH1 0xA0 SHL SUB DUP2 AND CALLER EQ PUSH2 0x9D7 JUMPI PUSH1 0x40 MLOAD PUSH4 0x334BD919 PUSH1 0xE1 SHL DUP2 MSTORE PUSH1 0x4 ADD PUSH1 0x40 MLOAD DUP1 SWAP2 SUB SWAP1 REVERT JUMPDEST PUSH2 0x9E1 DUP3 DUP3 PUSH2 0x1274 JUMP JUMPDEST POP POP POP JUMP JUMPDEST PUSH1 0x4 PUSH1 0x20 MSTORE DUP2 PUSH1 0x0 MSTORE PUSH1 0x40 PUSH1 0x0 KECCAK256 DUP2 DUP2 SLOAD DUP2 LT PUSH2 0xA02 JUMPI PUSH1 0x0 DUP1 REVERT JUMPDEST SWAP1 PUSH1 0x0 MSTORE PUSH1 0x20 PUSH1 0x0 KECCAK256 ADD PUSH1 0x0 SWAP2 POP SWAP2 POP POP SLOAD DUP2 JUMP JUMPDEST PUSH1 0x0 DUP1 PUSH1 0x0 PUSH1 0x60 PUSH1 0x0 DUP1 PUSH1 0x0 DUP1 PUSH1 0x0 DUP10 GT DUP1 ISZERO PUSH2 0xA36 JUMPI POP PUSH1 0x5 SLOAD DUP10 GT ISZERO JUMPDEST PUSH2 0xA52 JUMPI PUSH1 0x40 MLOAD PUSH3 0x461BCD PUSH1 0xE5 SHL DUP2 MSTORE PUSH1 0x4 ADD PUSH2 0x3F2 SWAP1 PUSH2 0x165D JUMP JUMPDEST PUSH1 0x0 DUP10 DUP2 MSTORE PUSH1 0x1 PUSH1 0x20 DUP2 DUP2 MSTORE PUSH1 0x40 DUP1 DUP5 KECCAK256 DUP2 MLOAD PUSH2 0x140 DUP2 ADD DUP4 MSTORE DUP2 SLOAD DUP2 MSTORE SWAP4 DUP2 ADD SLOAD PUSH1 0x1 PUSH1 0x1 PUSH1 0xA0 SHL SUB SWAP1 DUP2 AND SWAP4 DUP6 ADD SWAP4 SWAP1 SWAP4 MSTORE PUSH1 0x2 DUP2 ADD SLOAD SWAP1 SWAP3 AND SWAP1 DUP4 ADD MSTORE PUSH1 0x3 DUP2 ADD DUP1 SLOAD PUSH1 0x60 DUP5 ADD SWAP2 SWAP1 PUSH2 0xAA7 SWAP1 PUSH2 0x1713 JUMP JUMPDEST DUP1 PUSH1 0x1F ADD PUSH1 0x20 DUP1 SWAP2 DIV MUL PUSH1 0x20 ADD PUSH1 0x40 MLOAD SWAP1 DUP2 ADD PUSH1 0x40 MSTORE DUP1 SWAP3 SWAP2 SWAP1 DUP2 DUP2 MSTORE PUSH1 0x20 ADD DUP3 DUP1 SLOAD PUSH2 0xAD3 SWAP1 PUSH2 0x1713 JUMP JUMPDEST DUP1 ISZERO PUSH2 0xB20 JUMPI DUP1 PUSH1 0x1F LT PUSH2 0xAF5 JUMPI PUSH2 0x100 DUP1 DUP4 SLOAD DIV MUL DUP4 MSTORE SWAP2 PUSH1 0x20 ADD SWAP2 PUSH2 0xB20 JUMP JUMPDEST DUP3 ADD SWAP2 SWAP1 PUSH1 0x0 MSTORE PUSH1 0x20 PUSH1 0x0 KECCAK256 SWAP1 JUMPDEST DUP2 SLOAD DUP2 MSTORE SWAP1 PUSH1 0x1 ADD SWAP1 PUSH1 0x20 ADD DUP1 DUP4 GT PUSH2 0xB03 JUMPI DUP3 SWAP1 SUB PUSH1 0x1F AND DUP3 ADD SWAP2 JUMPDEST POP POP POP SWAP2 DUP4 MSTORE POP POP PUSH1 0x4 DUP3 ADD SLOAD PUSH1 0x20 DUP1 DUP4 ADD SWAP2 SWAP1 SWAP2 MSTORE PUSH1 0x5 DUP4 ADD SLOAD PUSH1 0x40 DUP4 ADD MSTORE PUSH1 0x6 DUP4 ADD SLOAD PUSH1 0xFF DUP1 DUP3 AND ISZERO ISZERO PUSH1 0x60 DUP6 ADD MSTORE PUSH2 0x100 DUP3 DIV AND ISZERO ISZERO PUSH1 0x80 DUP5 ADD MSTORE PUSH3 0x10000 SWAP1 DIV PUSH1 0x1 PUSH1 0x1 PUSH1 0xA0 SHL SUB SWAP1 DUP2 AND PUSH1 0xA0 DUP5 ADD MSTORE PUSH1 0x7 SWAP1 SWAP4 ADD SLOAD PUSH1 0xC0 SWAP1 SWAP3 ADD SWAP2 SWAP1 SWAP2 MSTORE DUP3 ADD MLOAD SWAP2 SWAP3 POP AND CALLER EQ DUP1 PUSH2 0xBAC JUMPI POP DUP1 PUSH1 0x40 ADD MLOAD PUSH1 0x1 PUSH1 0x1 PUSH1 0xA0 SHL SUB AND CALLER PUSH1 0x1 PUSH1 0x1 PUSH1 0xA0 SHL SUB AND EQ JUMPDEST DUP1 PUSH2 0xBCA JUMPI POP PUSH2 0xBCA PUSH1 0x0 DUP1 MLOAD PUSH1 0x20 PUSH2 0x187C DUP4 CODECOPY DUP2 MLOAD SWAP2 MSTORE CALLER PUSH2 0xD4A JUMP JUMPDEST DUP1 PUSH2 0xBDB JUMPI POP PUSH2 0xBDB PUSH1 0x0 CALLER PUSH2 0xD4A JUMP JUMPDEST PUSH2 0xBF7 JUMPI PUSH1 0x40 MLOAD PUSH3 0x461BCD PUSH1 0xE5 SHL DUP2 MSTORE PUSH1 0x4 ADD PUSH2 0x3F2 SWAP1 PUSH2 0x1694 JUMP JUMPDEST DUP1 PUSH1 0x0 ADD MLOAD DUP2 PUSH1 0x20 ADD MLOAD DUP3 PUSH1 0x40 ADD MLOAD DUP4 PUSH1 0x60 ADD MLOAD DUP5 PUSH1 0x80 ADD MLOAD DUP6 PUSH1 0xA0 ADD MLOAD DUP7 PUSH1 0xC0 ADD MLOAD DUP8 PUSH1 0xE0 ADD MLOAD SWAP9 POP SWAP9 POP SWAP9 POP SWAP9 POP SWAP9 POP SWAP9 POP SWAP9 POP SWAP9 POP POP SWAP2 SWAP4 SWAP6 SWAP8 POP SWAP2 SWAP4 SWAP6 SWAP8 JUMP JUMPDEST PUSH1 0x3 PUSH1 0x20 MSTORE DUP2 PUSH1 0x0 MSTORE PUSH1 0x40 PUSH1 0x0 KECCAK256 DUP2 DUP2 SLOAD DUP2 LT PUSH2 0xA02 JUMPI PUSH1 0x0 DUP1 REVERT JUMPDEST PUSH1 0x60 CALLER PUSH1 0x1 PUSH1 0x1 PUSH1 0xA0 SHL SUB DUP4 AND EQ DUP1 PUSH2 0xC95 JUMPI POP PUSH2 0xC95 PUSH32 0xAF1DAC7DEA2FD7F7738119CEC7DF099DFAD49AA9D2E7D17BA6B60F63AE7411F CALLER PUSH2 0xD4A JUMP JUMPDEST DUP1 PUSH2 0xCB3 JUMPI POP PUSH2 0xCB3 PUSH1 0x0 DUP1 MLOAD PUSH1 0x20 PUSH2 0x187C DUP4 CODECOPY DUP2 MLOAD SWAP2 MSTORE CALLER PUSH2 0xD4A JUMP JUMPDEST DUP1 PUSH2 0xCC4 JUMPI POP PUSH2 0xCC4 PUSH1 0x0 CALLER PUSH2 0xD4A JUMP JUMPDEST PUSH2 0xCE0 JUMPI PUSH1 0x40 MLOAD PUSH3 0x461BCD PUSH1 0xE5 SHL DUP2 MSTORE PUSH1 0x4 ADD PUSH2 0x3F2 SWAP1 PUSH2 0x1694 JUMP JUMPDEST PUSH1 0x1 PUSH1 0x1 PUSH1 0xA0 SHL SUB DUP3 AND PUSH1 0x0 SWAP1 DUP2 MSTORE PUSH1 0x3 PUSH1 0x20 SWAP1 DUP2 MSTORE PUSH1 0x40 SWAP2 DUP3 SWAP1 KECCAK256 DUP1 SLOAD DUP4 MLOAD DUP2 DUP5 MUL DUP2 ADD DUP5 ADD SWAP1 SWAP5 MSTORE DUP1 DUP5 MSTORE SWAP1 SWAP2 DUP4 ADD DUP3 DUP3 DUP1 ISZERO PUSH2 0xD3E JUMPI PUSH1 0x20 MUL DUP3 ADD SWAP2 SWAP1 PUSH1 0x0 MSTORE PUSH1 0x20 PUSH1 0x0 KECCAK256 SWAP1 JUMPDEST DUP2 SLOAD DUP2 MSTORE PUSH1 0x20 ADD SWAP1 PUSH1 0x1 ADD SWAP1 DUP1 DUP4 GT PUSH2 0xD2A JUMPI JUMPDEST POP POP POP POP POP SWAP1 POP SWAP2 SWAP1 POP JUMP JUMPDEST PUSH1 0x0 SWAP2 DUP3 MSTORE PUSH1 0x20 DUP3 DUP2 MSTORE PUSH1 0x40 DUP1 DUP5 KECCAK256 PUSH1 0x1 PUSH1 0x1 PUSH1 0xA0 SHL SUB SWAP4 SWAP1 SWAP4 AND DUP5 MSTORE SWAP2 SWAP1 MSTORE SWAP1 KECCAK256 SLOAD PUSH1 0xFF AND SWAP1 JUMP JUMPDEST PUSH1 0x60 CALLER PUSH1 0x1 PUSH1 0x1 PUSH1 0xA0 SHL SUB DUP4 AND EQ DUP1 PUSH2 0xD92 JUMPI POP PUSH2 0xD92 PUSH1 0x0 CALLER PUSH2 0xD4A JUMP JUMPDEST PUSH2 0xDAE JUMPI PUSH1 0x40 MLOAD PUSH3 0x461BCD PUSH1 0xE5 SHL DUP2 MSTORE PUSH1 0x4 ADD PUSH2 0x3F2 SWAP1 PUSH2 0x1694 JUMP JUMPDEST PUSH1 0x1 PUSH1 0x1 PUSH1 0xA0 SHL SUB DUP3 AND PUSH1 0x0 SWAP1 DUP2 MSTORE PUSH1 0x4 PUSH1 0x20 SWAP1 DUP2 MSTORE PUSH1 0x40 SWAP2 DUP3 SWAP1 KECCAK256 DUP1 SLOAD DUP4 MLOAD DUP2 DUP5 MUL DUP2 ADD DUP5 ADD SWAP1 SWAP5 MSTORE DUP1 DUP5 MSTORE SWAP1 SWAP2 DUP4 ADD DUP3 DUP3 DUP1 ISZERO PUSH2 0xD3E JUMPI PUSH1 0x20 MUL DUP3 ADD SWAP2 SWAP1 PUSH1 0x0 MSTORE PUSH1 0x20 PUSH1 0x0 KECCAK256 SWAP1 DUP2 SLOAD DUP2 MSTORE PUSH1 0x20 ADD SWAP1 PUSH1 0x1 ADD SWAP1 DUP1 DUP4 GT PUSH2 0xD2A JUMPI POP POP POP POP POP SWAP1 POP SWAP2 SWAP1 POP JUMP JUMPDEST PUSH1 0x0 DUP1 MLOAD PUSH1 0x20 PUSH2 0x187C DUP4 CODECOPY DUP2 MLOAD SWAP2 MSTORE PUSH2 0xE2E DUP2 PUSH2 0x11D8 JUMP JUMPDEST PUSH2 0xE36 PUSH2 0x11BC JUMP JUMPDEST PUSH1 0x0 DUP3 GT DUP1 ISZERO PUSH2 0xE48 JUMPI POP PUSH1 0x5 SLOAD DUP3 GT ISZERO JUMPDEST PUSH2 0xE64 JUMPI PUSH1 0x40 MLOAD PUSH3 0x461BCD PUSH1 0xE5 SHL DUP2 MSTORE PUSH1 0x4 ADD PUSH2 0x3F2 SWAP1 PUSH2 0x165D JUMP JUMPDEST PUSH1 0x0 DUP3 DUP2 MSTORE PUSH1 0x1 PUSH1 0x20 MSTORE PUSH1 0x40 SWAP1 KECCAK256 PUSH1 0x6 DUP2 ADD SLOAD PUSH1 0xFF AND PUSH2 0xEC6 JUMPI PUSH1 0x40 MLOAD PUSH3 0x461BCD PUSH1 0xE5 SHL DUP2 MSTORE PUSH1 0x20 PUSH1 0x4 DUP3 ADD MSTORE PUSH1 0x19 PUSH1 0x24 DUP3 ADD MSTORE PUSH32 0x507265736372697074696F6E206973206E6F742076616C696400000000000000 PUSH1 0x44 DUP3 ADD MSTORE PUSH1 0x64 ADD PUSH2 0x3F2 JUMP JUMPDEST PUSH1 0x6 DUP2 ADD SLOAD PUSH2 0x100 SWAP1 DIV PUSH1 0xFF AND ISZERO PUSH2 0xF20 JUMPI PUSH1 0x40 MLOAD PUSH3 0x461BCD PUSH1 0xE5 SHL DUP2 MSTORE PUSH1 0x20 PUSH1 0x4 DUP3 ADD MSTORE PUSH1 0x1B PUSH1 0x24 DUP3 ADD MSTORE PUSH32 0x507265736372697074696F6E20616C72656164792066696C6C65640000000000 PUSH1 0x44 DUP3 ADD MSTORE PUSH1 0x64 ADD PUSH2 0x3F2 JUMP JUMPDEST DUP1 PUSH1 0x5 ADD SLOAD TIMESTAMP GT ISZERO PUSH2 0xF6B JUMPI PUSH1 0x40 MLOAD PUSH3 0x461BCD PUSH1 0xE5 SHL DUP2 MSTORE PUSH1 0x20 PUSH1 0x4 DUP3 ADD MSTORE PUSH1 0x14 PUSH1 0x24 DUP3 ADD MSTORE PUSH20 0x141C995CD8DC9A5C1D1A5BDB88195E1C1A5C9959 PUSH1 0x62 SHL PUSH1 0x44 DUP3 ADD MSTORE PUSH1 0x64 ADD PUSH2 0x3F2 JUMP JUMPDEST PUSH1 0x6 DUP2 ADD DUP1 SLOAD PUSH3 0x10000 CALLER SWAP1 DUP2 MUL PUSH2 0x100 PUSH1 0x1 PUSH1 0xB0 SHL SUB NOT SWAP1 SWAP3 AND SWAP2 SWAP1 SWAP2 OR PUSH2 0x100 OR SWAP1 SWAP2 SSTORE TIMESTAMP PUSH1 0x7 DUP4 ADD DUP2 SWAP1 SSTORE PUSH1 0x40 MLOAD DUP6 SWAP2 PUSH32 0x58093130F09D2AE23E85A3791715517C9B001E080F848FA6953409FAA82D3DE1 SWAP2 PUSH2 0xFCC SWAP2 DUP2 MSTORE PUSH1 0x20 ADD SWAP1 JUMP JUMPDEST PUSH1 0x40 MLOAD DUP1 SWAP2 SUB SWAP1 LOG3 POP PUSH2 0xFEC PUSH1 0x1 PUSH1 0x0 DUP1 MLOAD PUSH1 0x20 PUSH2 0x185C DUP4 CODECOPY DUP2 MLOAD SWAP2 MSTORE SSTORE JUMP JUMPDEST POP POP JUMP JUMPDEST PUSH1 0x0 DUP3 DUP2 MSTORE PUSH1 0x20 DUP2 SWAP1 MSTORE PUSH1 0x40 SWAP1 KECCAK256 PUSH1 0x1 ADD SLOAD PUSH2 0x100B DUP2 PUSH2 0x11D8 JUMP JUMPDEST PUSH2 0x8B2 DUP4 DUP4 PUSH2 0x1274 JUMP JUMPDEST PUSH1 0x0 DUP2 DUP2 MSTORE PUSH1 0x2 PUSH1 0x20 MSTORE PUSH1 0x40 DUP2 KECCAK256 SLOAD DUP2 SWAP1 DUP2 SWAP1 DUP2 SWAP1 DUP2 SWAP1 DUP2 SWAP1 DUP1 DUP3 SUB PUSH2 0x1050 JUMPI PUSH1 0x0 DUP1 PUSH1 0x0 DUP1 PUSH1 0x0 DUP1 SWAP7 POP SWAP7 POP SWAP7 POP SWAP7 POP SWAP7 POP SWAP7 POP POP PUSH2 0x11B3 JUMP JUMPDEST PUSH1 0x0 DUP2 DUP2 MSTORE PUSH1 0x1 PUSH1 0x20 DUP2 DUP2 MSTORE PUSH1 0x40 DUP1 DUP5 KECCAK256 DUP2 MLOAD PUSH2 0x140 DUP2 ADD DUP4 MSTORE DUP2 SLOAD DUP2 MSTORE SWAP4 DUP2 ADD SLOAD PUSH1 0x1 PUSH1 0x1 PUSH1 0xA0 SHL SUB SWAP1 DUP2 AND SWAP4 DUP6 ADD SWAP4 SWAP1 SWAP4 MSTORE PUSH1 0x2 DUP2 ADD SLOAD SWAP1 SWAP3 AND SWAP1 DUP4 ADD MSTORE PUSH1 0x3 DUP2 ADD DUP1 SLOAD PUSH1 0x60 DUP5 ADD SWAP2 SWAP1 PUSH2 0x10A5 SWAP1 PUSH2 0x1713 JUMP JUMPDEST DUP1 PUSH1 0x1F ADD PUSH1 0x20 DUP1 SWAP2 DIV MUL PUSH1 0x20 ADD PUSH1 0x40 MLOAD SWAP1 DUP2 ADD PUSH1 0x40 MSTORE DUP1 SWAP3 SWAP2 SWAP1 DUP2 DUP2 MSTORE PUSH1 0x20 ADD DUP3 DUP1 SLOAD PUSH2 0x10D1 SWAP1 PUSH2 0x1713 JUMP JUMPDEST DUP1 ISZERO PUSH2 0x111E JUMPI DUP1 PUSH1 0x1F LT PUSH2 0x10F3 JUMPI PUSH2 0x100 DUP1 DUP4 SLOAD DIV MUL DUP4 MSTORE SWAP2 PUSH1 0x20 ADD SWAP2 PUSH2 0x111E JUMP JUMPDEST DUP3 ADD SWAP2 SWAP1 PUSH1 0x0 MSTORE PUSH1 0x20 PUSH1 0x0 KECCAK256 SWAP1 JUMPDEST DUP2 SLOAD DUP2 MSTORE SWAP1 PUSH1 0x1 ADD SWAP1 PUSH1 0x20 ADD DUP1 DUP4 GT PUSH2 0x1101 JUMPI DUP3 SWAP1 SUB PUSH1 0x1F AND DUP3 ADD SWAP2 JUMPDEST POP POP POP SWAP2 DUP4 MSTORE POP POP PUSH1 0x4 DUP3 ADD SLOAD PUSH1 0x20 DUP1 DUP4 ADD SWAP2 SWAP1 SWAP2 MSTORE PUSH1 0x5 DUP4 ADD SLOAD PUSH1 0x40 DUP1 DUP5 ADD SWAP2 SWAP1 SWAP2 MSTORE PUSH1 0x6 DUP5 ADD SLOAD PUSH1 0xFF DUP1 DUP3 AND ISZERO ISZERO PUSH1 0x60 DUP7 ADD MSTORE PUSH2 0x100 DUP3 DIV AND ISZERO ISZERO PUSH1 0x80 DUP6 ADD MSTORE PUSH3 0x10000 SWAP1 DIV PUSH1 0x1 PUSH1 0x1 PUSH1 0xA0 SHL SUB AND PUSH1 0xA0 DUP1 DUP6 ADD SWAP2 SWAP1 SWAP2 MSTORE PUSH1 0x7 SWAP1 SWAP5 ADD SLOAD PUSH1 0xC0 SWAP4 DUP5 ADD MSTORE SWAP3 DUP5 ADD MLOAD SWAP2 DUP5 ADD MLOAD PUSH1 0xE0 DUP6 ADD MLOAD SWAP4 DUP6 ADD MLOAD SWAP5 SWAP1 SWAP2 ADD MLOAD PUSH1 0x1 SWAP13 POP SWAP1 SWAP11 POP TIMESTAMP SWAP2 SWAP1 SWAP2 GT SWAP9 POP SWAP1 SWAP7 POP SWAP1 SWAP5 POP SWAP3 POP POP POP JUMPDEST SWAP2 SWAP4 SWAP6 POP SWAP2 SWAP4 SWAP6 JUMP JUMPDEST PUSH2 0x11C4 PUSH2 0x12DF JUMP JUMPDEST PUSH1 0x2 PUSH1 0x0 DUP1 MLOAD PUSH1 0x20 PUSH2 0x185C DUP4 CODECOPY DUP2 MLOAD SWAP2 MSTORE SSTORE JUMP JUMPDEST PUSH2 0x4EB DUP2 CALLER PUSH2 0x1311 JUMP JUMPDEST PUSH1 0x0 PUSH2 0x11EE DUP4 DUP4 PUSH2 0xD4A JUMP JUMPDEST PUSH2 0x126C JUMPI PUSH1 0x0 DUP4 DUP2 MSTORE PUSH1 0x20 DUP2 DUP2 MSTORE PUSH1 0x40 DUP1 DUP4 KECCAK256 PUSH1 0x1 PUSH1 0x1 PUSH1 0xA0 SHL SUB DUP7 AND DUP5 MSTORE SWAP1 SWAP2 MSTORE SWAP1 KECCAK256 DUP1 SLOAD PUSH1 0xFF NOT AND PUSH1 0x1 OR SWAP1 SSTORE PUSH2 0x1224 CALLER SWAP1 JUMP JUMPDEST PUSH1 0x1 PUSH1 0x1 PUSH1 0xA0 SHL SUB AND DUP3 PUSH1 0x1 PUSH1 0x1 PUSH1 0xA0 SHL SUB AND DUP5 PUSH32 0x2F8788117E7EFF1D82E926EC794901D17C78024A50270940304540A733656F0D PUSH1 0x40 MLOAD PUSH1 0x40 MLOAD DUP1 SWAP2 SUB SWAP1 LOG4 POP PUSH1 0x1 PUSH2 0x3B6 JUMP JUMPDEST POP PUSH1 0x0 PUSH2 0x3B6 JUMP JUMPDEST PUSH1 0x0 PUSH2 0x1280 DUP4 DUP4 PUSH2 0xD4A JUMP JUMPDEST ISZERO PUSH2 0x126C JUMPI PUSH1 0x0 DUP4 DUP2 MSTORE PUSH1 0x20 DUP2 DUP2 MSTORE PUSH1 0x40 DUP1 DUP4 KECCAK256 PUSH1 0x1 PUSH1 0x1 PUSH1 0xA0 SHL SUB DUP7 AND DUP1 DUP6 MSTORE SWAP3 MSTORE DUP1 DUP4 KECCAK256 DUP1 SLOAD PUSH1 0xFF NOT AND SWAP1 SSTORE MLOAD CALLER SWAP3 DUP7 SWAP2 PUSH32 0xF6391F5C32D9C69D2A47EA670B442974B53935D1EDC7FD64EB21E047A839171B SWAP2 SWAP1 LOG4 POP PUSH1 0x1 PUSH2 0x3B6 JUMP JUMPDEST PUSH1 0x0 DUP1 MLOAD PUSH1 0x20 PUSH2 0x185C DUP4 CODECOPY DUP2 MLOAD SWAP2 MSTORE SLOAD PUSH1 0x2 SUB PUSH2 0x130F JUMPI PUSH1 0x40 MLOAD PUSH4 0x3EE5AEB5 PUSH1 0xE0 SHL DUP2 MSTORE PUSH1 0x4 ADD PUSH1 0x40 MLOAD DUP1 SWAP2 SUB SWAP1 REVERT JUMPDEST JUMP JUMPDEST PUSH2 0x131B DUP3 DUP3 PUSH2 0xD4A JUMP JUMPDEST PUSH2 0xFEC JUMPI PUSH1 0x40 MLOAD PUSH4 0xE2517D3F PUSH1 0xE0 SHL DUP2 MSTORE PUSH1 0x1 PUSH1 0x1 PUSH1 0xA0 SHL SUB DUP3 AND PUSH1 0x4 DUP3 ADD MSTORE PUSH1 0x24 DUP2 ADD DUP4 SWAP1 MSTORE PUSH1 0x44 ADD PUSH2 0x3F2 JUMP JUMPDEST PUSH1 0x0 PUSH1 0x20 DUP3 DUP5 SUB SLT ISZERO PUSH2 0x135C JUMPI PUSH1 0x0 DUP1 REVERT JUMPDEST DUP2 CALLDATALOAD PUSH1 0x1 PUSH1 0x1 PUSH1 0xE0 SHL SUB NOT DUP2 AND DUP2 EQ PUSH2 0x1374 JUMPI PUSH1 0x0 DUP1 REVERT JUMPDEST SWAP4 SWAP3 POP POP POP JUMP JUMPDEST PUSH1 0x0 PUSH1 0x20 DUP3 DUP5 SUB SLT ISZERO PUSH2 0x138D JUMPI PUSH1 0x0 DUP1 REVERT JUMPDEST POP CALLDATALOAD SWAP2 SWAP1 POP JUMP JUMPDEST DUP1 CALLDATALOAD PUSH1 0x1 PUSH1 0x1 PUSH1 0xA0 SHL SUB DUP2 AND DUP2 EQ PUSH2 0x13AB JUMPI PUSH1 0x0 DUP1 REVERT JUMPDEST SWAP2 SWAP1 POP JUMP JUMPDEST PUSH4 0x4E487B71 PUSH1 0xE0 SHL PUSH1 0x0 MSTORE PUSH1 0x41 PUSH1 0x4 MSTORE PUSH1 0x24 PUSH1 0x0 REVERT JUMPDEST PUSH1 0x0 DUP1 PUSH1 0x0 DUP1 PUSH1 0x80 DUP6 DUP8 SUB SLT ISZERO PUSH2 0x13DC JUMPI PUSH1 0x0 DUP1 REVERT JUMPDEST DUP5 CALLDATALOAD SWAP4 POP PUSH2 0x13EC PUSH1 0x20 DUP7 ADD PUSH2 0x1394 JUMP JUMPDEST SWAP3 POP PUSH1 0x40 DUP6 ADD CALLDATALOAD PUSH8 0xFFFFFFFFFFFFFFFF DUP1 DUP3 GT ISZERO PUSH2 0x1409 JUMPI PUSH1 0x0 DUP1 REVERT JUMPDEST DUP2 DUP8 ADD SWAP2 POP DUP8 PUSH1 0x1F DUP4 ADD SLT PUSH2 0x141D JUMPI PUSH1 0x0 DUP1 REVERT JUMPDEST DUP2 CALLDATALOAD DUP2 DUP2 GT ISZERO PUSH2 0x142F JUMPI PUSH2 0x142F PUSH2 0x13B0 JUMP JUMPDEST PUSH1 0x40 MLOAD PUSH1 0x1F DUP3 ADD PUSH1 0x1F NOT SWAP1 DUP2 AND PUSH1 0x3F ADD AND DUP2 ADD SWAP1 DUP4 DUP3 GT DUP2 DUP4 LT OR ISZERO PUSH2 0x1457 JUMPI PUSH2 0x1457 PUSH2 0x13B0 JUMP JUMPDEST DUP2 PUSH1 0x40 MSTORE DUP3 DUP2 MSTORE DUP11 PUSH1 0x20 DUP5 DUP8 ADD ADD GT ISZERO PUSH2 0x1470 JUMPI PUSH1 0x0 DUP1 REVERT JUMPDEST DUP3 PUSH1 0x20 DUP7 ADD PUSH1 0x20 DUP4 ADD CALLDATACOPY PUSH1 0x0 SWAP3 DUP2 ADD PUSH1 0x20 ADD SWAP3 SWAP1 SWAP3 MSTORE POP SWAP6 SWAP9 SWAP5 SWAP8 POP SWAP5 SWAP6 PUSH1 0x60 ADD CALLDATALOAD SWAP5 POP POP POP POP JUMP JUMPDEST PUSH1 0x0 DUP1 PUSH1 0x40 DUP4 DUP6 SUB SLT ISZERO PUSH2 0x14AC JUMPI PUSH1 0x0 DUP1 REVERT JUMPDEST DUP3 CALLDATALOAD SWAP2 POP PUSH2 0x14BC PUSH1 0x20 DUP5 ADD PUSH2 0x1394 JUMP JUMPDEST SWAP1 POP SWAP3 POP SWAP3 SWAP1 POP JUMP JUMPDEST PUSH1 0x0 DUP2 MLOAD DUP1 DUP5 MSTORE PUSH1 0x0 JUMPDEST DUP2 DUP2 LT ISZERO PUSH2 0x14EB JUMPI PUSH1 0x20 DUP2 DUP6 ADD DUP2 ADD MLOAD DUP7 DUP4 ADD DUP3 ADD MSTORE ADD PUSH2 0x14CF JUMP JUMPDEST POP PUSH1 0x0 PUSH1 0x20 DUP3 DUP7 ADD ADD MSTORE PUSH1 0x20 PUSH1 0x1F NOT PUSH1 0x1F DUP4 ADD AND DUP6 ADD ADD SWAP2 POP POP SWAP3 SWAP2 POP POP JUMP JUMPDEST DUP11 DUP2 MSTORE PUSH1 0x1 PUSH1 0x1 PUSH1 0xA0 SHL SUB DUP11 DUP2 AND PUSH1 0x20 DUP4 ADD MSTORE DUP10 DUP2 AND PUSH1 0x40 DUP4 ADD MSTORE PUSH2 0x140 PUSH1 0x60 DUP4 ADD DUP2 SWAP1 MSTORE PUSH1 0x0 SWAP2 PUSH2 0x153F DUP5 DUP4 ADD DUP13 PUSH2 0x14C5 JUMP JUMPDEST PUSH1 0x80 DUP6 ADD SWAP11 SWAP1 SWAP11 MSTORE PUSH1 0xA0 DUP5 ADD SWAP9 SWAP1 SWAP9 MSTORE POP POP SWAP4 ISZERO ISZERO PUSH1 0xC0 DUP6 ADD MSTORE SWAP2 ISZERO ISZERO PUSH1 0xE0 DUP5 ADD MSTORE SWAP1 SWAP3 AND PUSH2 0x100 DUP3 ADD MSTORE PUSH2 0x120 ADD MSTORE SWAP5 SWAP4 POP POP POP POP JUMP JUMPDEST PUSH1 0x0 DUP1 PUSH1 0x40 DUP4 DUP6 SUB SLT ISZERO PUSH2 0x158A JUMPI PUSH1 0x0 DUP1 REVERT JUMPDEST PUSH2 0x1593 DUP4 PUSH2 0x1394 JUMP JUMPDEST SWAP5 PUSH1 0x20 SWAP4 SWAP1 SWAP4 ADD CALLDATALOAD SWAP4 POP POP POP JUMP JUMPDEST DUP9 DUP2 MSTORE PUSH1 0x1 PUSH1 0x1 PUSH1 0xA0 SHL SUB DUP9 DUP2 AND PUSH1 0x20 DUP4 ADD MSTORE DUP8 AND PUSH1 0x40 DUP3 ADD MSTORE PUSH2 0x100 PUSH1 0x60 DUP3 ADD DUP2 SWAP1 MSTORE PUSH1 0x0 SWAP1 PUSH2 0x15D4 DUP4 DUP3 ADD DUP10 PUSH2 0x14C5 JUMP JUMPDEST PUSH1 0x80 DUP5 ADD SWAP8 SWAP1 SWAP8 MSTORE POP POP PUSH1 0xA0 DUP2 ADD SWAP4 SWAP1 SWAP4 MSTORE SWAP1 ISZERO ISZERO PUSH1 0xC0 DUP4 ADD MSTORE ISZERO ISZERO PUSH1 0xE0 SWAP1 SWAP2 ADD MSTORE SWAP5 SWAP4 POP POP POP POP JUMP JUMPDEST PUSH1 0x0 PUSH1 0x20 DUP3 DUP5 SUB SLT ISZERO PUSH2 0x1610 JUMPI PUSH1 0x0 DUP1 REVERT JUMPDEST PUSH2 0x1374 DUP3 PUSH2 0x1394 JUMP JUMPDEST PUSH1 0x20 DUP1 DUP3 MSTORE DUP3 MLOAD DUP3 DUP3 ADD DUP2 SWAP1 MSTORE PUSH1 0x0 SWAP2 SWAP1 DUP5 DUP3 ADD SWAP1 PUSH1 0x40 DUP6 ADD SWAP1 DUP5 JUMPDEST DUP2 DUP2 LT ISZERO PUSH2 0x1651 JUMPI DUP4 MLOAD DUP4 MSTORE SWAP3 DUP5 ADD SWAP3 SWAP2 DUP5 ADD SWAP2 PUSH1 0x1 ADD PUSH2 0x1635 JUMP JUMPDEST POP SWAP1 SWAP7 SWAP6 POP POP POP POP POP POP JUMP JUMPDEST PUSH1 0x20 DUP1 DUP3 MSTORE PUSH1 0x17 SWAP1 DUP3 ADD MSTORE PUSH32 0x496E76616C696420707265736372697074696F6E204944000000000000000000 PUSH1 0x40 DUP3 ADD MSTORE PUSH1 0x60 ADD SWAP1 JUMP JUMPDEST PUSH1 0x20 DUP1 DUP3 MSTORE PUSH1 0xC SWAP1 DUP3 ADD MSTORE PUSH12 0x155B985D5D1A1BDC9A5E9959 PUSH1 0xA2 SHL PUSH1 0x40 DUP3 ADD MSTORE PUSH1 0x60 ADD SWAP1 JUMP JUMPDEST PUSH4 0x4E487B71 PUSH1 0xE0 SHL PUSH1 0x0 MSTORE PUSH1 0x11 PUSH1 0x4 MSTORE PUSH1 0x24 PUSH1 0x0 REVERT JUMPDEST PUSH1 0x0 PUSH1 0x1 DUP3 ADD PUSH2 0x16E2 JUMPI PUSH2 0x16E2 PUSH2 0x16BA JUMP JUMPDEST POP PUSH1 0x1 ADD SWAP1 JUMP JUMPDEST DUP1 DUP3 MUL DUP2 ISZERO DUP3 DUP3 DIV DUP5 EQ OR PUSH2 0x3B6 JUMPI PUSH2 0x3B6 PUSH2 0x16BA JUMP JUMPDEST DUP1 DUP3 ADD DUP1 DUP3 GT ISZERO PUSH2 0x3B6 JUMPI PUSH2 0x3B6 PUSH2 0x16BA JUMP JUMPDEST PUSH1 0x1 DUP2 DUP2 SHR SWAP1 DUP3 AND DUP1 PUSH2 0x1727 JUMPI PUSH1 0x7F DUP3 AND SWAP2 POP JUMPDEST PUSH1 0x20 DUP3 LT DUP2 SUB PUSH2 0x1747 JUMPI PUSH4 0x4E487B71 PUSH1 0xE0 SHL PUSH1 0x0 MSTORE PUSH1 0x22 PUSH1 0x4 MSTORE PUSH1 0x24 PUSH1 0x0 REVERT JUMPDEST POP SWAP2 SWAP1 POP JUMP JUMPDEST PUSH1 0x1F DUP3 GT ISZERO PUSH2 0x9E1 JUMPI PUSH1 0x0 DUP2 DUP2 MSTORE PUSH1 0x20 DUP2 KECCAK256 PUSH1 0x1F DUP6 ADD PUSH1 0x5 SHR DUP2 ADD PUSH1 0x20 DUP7 LT ISZERO PUSH2 0x1774 JUMPI POP DUP1 JUMPDEST PUSH1 0x1F DUP6 ADD PUSH1 0x5 SHR DUP3 ADD SWAP2 POP JUMPDEST DUP2 DUP2 LT ISZERO PUSH2 0x1793 JUMPI DUP3 DUP2 SSTORE PUSH1 0x1 ADD PUSH2 0x1780 JUMP JUMPDEST POP POP POP POP POP POP JUMP JUMPDEST DUP2 MLOAD PUSH8 0xFFFFFFFFFFFFFFFF DUP2 GT ISZERO PUSH2 0x17B5 JUMPI PUSH2 0x17B5 PUSH2 0x13B0 JUMP JUMPDEST PUSH2 0x17C9 DUP2 PUSH2 0x17C3 DUP5 SLOAD PUSH2 0x1713 JUMP JUMPDEST DUP5 PUSH2 0x174D JUMP JUMPDEST PUSH1 0x20 DUP1 PUSH1 0x1F DUP4 GT PUSH1 0x1 DUP2 EQ PUSH2 0x17FE JUMPI PUSH1 0x0 DUP5 ISZERO PUSH2 0x17E6 JUMPI POP DUP6 DUP4 ADD MLOAD JUMPDEST PUSH1 0x0 NOT PUSH1 0x3 DUP7 SWAP1 SHL SHR NOT AND PUSH1 0x1 DUP6 SWAP1 SHL OR DUP6 SSTORE PUSH2 0x1793 JUMP JUMPDEST PUSH1 0x0 DUP6 DUP2 MSTORE PUSH1 0x20 DUP2 KECCAK256 PUSH1 0x1F NOT DUP7 AND SWAP2 JUMPDEST DUP3 DUP2 LT ISZERO PUSH2 0x182D JUMPI DUP9 DUP7 ADD MLOAD DUP3 SSTORE SWAP5 DUP5 ADD SWAP5 PUSH1 0x1 SWAP1 SWAP2 ADD SWAP1 DUP5 ADD PUSH2 0x180E JUMP JUMPDEST POP DUP6 DUP3 LT ISZERO PUSH2 0x184B JUMPI DUP8 DUP6 ADD MLOAD PUSH1 0x0 NOT PUSH1 0x3 DUP9 SWAP1 SHL PUSH1 0xF8 AND SHR NOT AND DUP2 SSTORE JUMPDEST POP POP POP POP POP PUSH1 0x1 SWAP1 DUP2 SHL ADD SWAP1 SSTORE POP JUMP INVALID SWAP12 PUSH24 0x9B17422D0DF92223018B32B4D1FA46E071723D6817E2486D STOP EXTCODESIZE 0xEC 0xC5 PUSH0 STOP 0xC2 0xD4 SWAP9 STATICCALL PUSH8 0x34073871A6DDE33C JUMP OR 0x4C MSTORE TIMESTAMP CODESIZE DIV GT DUP15 0xD JUMPDEST PUSH7 0x171FAD3494DE68 LOG2 PUSH5 0x6970667358 0x22 SLT KECCAK256 0x21 PREVRANDAO 0x4E PC PUSH30 0x4D8F29E0A6B23C4221C21E1F3C0B8338F43FF87A11A0D320BAFB3E64736F PUSH13 0x63430008140033000000000000 "},"methodIdentifiers":{"DEFAULT_ADMIN_ROLE()":"a217fddf","DOCTOR_ROLE()":"fec331f2","PHARMACIST_ROLE()":"c532d9fa","doctorPrescriptions(address,uint256)":"6559dfc7","fillPrescription(uint256)":"b11db9e4","getDoctorPrescriptions(address)":"a4c54e77","getPatientPrescriptions(address)":"8a462e1a","getPrescription(uint256)":"6f16af10","getRoleAdmin(bytes32)":"248a9ca3","grantRole(bytes32,address)":"2f2ff15d","hasRole(bytes32,address)":"91d14854","invalidatePrescription(uint256)":"219d72ea","issuePrescription(bytes32,address,string,uint256)":"2e7fdb24","patientPrescriptions(address,uint256)":"733ba56d","prescriptionCount()":"b6558498","prescriptionHashToId(bytes32)":"207ec234","prescriptions(uint256)":"31dfc91b","renounceRole(bytes32,address)":"36568abe","revokeRole(bytes32,address)":"d547741f","supportsInterface(bytes4)":"01ffc9a7","verifyPrescription(bytes32)":"f971f3f1"}}}}}