{
  "_format": "hh-sol-artifact-1",
  "contractName": "HealthRecordRegistry",
  "sourceName": "contracts/HealthRecordRegistry.sol",
  "abi": [
    {
      "inputs": [],
      "stateMutability": "nonpayable",
      "type": "constructor"
    },
    {
      "inputs": [],
      "name": "AccessControlBadConfirmation",
      "type": "error"
    },
    {
      "inputs": [
        {
          "internalType": "address",
          "name": "account",
          "type": "address"
        },
        {
          "internalType": "bytes32",
          "name": "neededRole",
          "type": "bytes32"
        }
      ],
      "name": "AccessControlUnauthorizedAccount",
      "type": "error"
    },
    {
      "inputs": [],
      "name": "ReentrancyGuardReentrantCall",
      "type": "error"
    },
    {
      "anonymous": false,
      "inputs": [
        {
          "indexed": true,
          "internalType": "address",
          "name": "patient",
          "type": "address"
        },
        {
          "indexed": true,
          "internalType": "address",
          "name": "provider",
          "type": "address"
        },
        {
          "indexed": false,
          "internalType": "uint256",
          "name": "expiryTime",
          "type": "uint256"
        }
      ],
      "name": "AccessGranted",
      "type": "event"
    },
    {
      "anonymous": false,
      "inputs": [
        {
          "indexed": true,
          "internalType": "address",
          "name": "patient",
          "type": "address"
        },
        {
          "indexed": true,
          "internalType": "address",
          "name": "provider",
          "type": "address"
        }
      ],
      "name": "AccessRevoked",
      "type": "event"
    },
    {
      "anonymous": false,
      "inputs": [
        {
          "indexed": true,
          "internalType": "uint256",
          "name": "recordId",
          "type": "uint256"
        }
      ],
      "name": "RecordDeactivated",
      "type": "event"
    },
    {
      "anonymous": false,
      "inputs": [
        {
          "indexed": true,
          "internalType": "uint256",
          "name": "recordId",
          "type": "uint256"
        },
        {
          "indexed": true,
          "internalType": "bytes32",
          "name": "recordHash",
          "type": "bytes32"
        },
        {
          "indexed": true,
          "internalType": "address",
          "name": "patient",
          "type": "address"
        },
        {
          "indexed": false,
          "internalType": "address",
          "name": "doctor",
          "type": "address"
        },
        {
          "indexed": false,
          "internalType": "string",
          "name": "recordType",
          "type": "string"
        },
        {
          "indexed": false,
          "internalType": "uint256",
          "name": "timestamp",
          "type": "uint256"
        }
      ],
      "name": "RecordRegistered",
      "type": "event"
    },
    {
      "anonymous": false,
      "inputs": [
        {
          "indexed": true,
          "internalType": "bytes32",
          "name": "role",
          "type": "bytes32"
        },
        {
          "indexed": true,
          "internalType": "bytes32",
          "name": "previousAdminRole",
          "type": "bytes32"
        },
        {
          "indexed": true,
          "internalType": "bytes32",
          "name": "newAdminRole",
          "type": "bytes32"
        }
      ],
      "name": "RoleAdminChanged",
      "type": "event"
    },
    {
      "anonymous": false,
      "inputs": [
        {
          "indexed": true,
          "internalType": "bytes32",
          "name": "role",
          "type": "bytes32"
        },
        {
          "indexed": true,
          "internalType": "address",
          "name": "account",
          "type": "address"
        },
        {
          "indexed": true,
          "internalType": "address",
          "name": "sender",
          "type": "address"
        }
      ],
      "name": "RoleGranted",
      "type": "event"
    },
    {
      "anonymous": false,
      "inputs": [
        {
          "indexed": true,
          "internalType": "bytes32",
          "name": "role",
          "type": "bytes32"
        },
        {
          "indexed": true,
          "internalType": "address",
          "name": "account",
          "type": "address"
        },
        {
          "indexed": true,
          "internalType": "address",
          "name": "sender",
          "type": "address"
        }
      ],
      "name": "RoleRevoked",
      "type": "event"
    },
    {
      "inputs": [],
      "name": "DEFAULT_ADMIN_ROLE",
      "outputs": [
        {
          "internalType": "bytes32",
          "name": "",
          "type": "bytes32"
        }
      ],
      "stateMutability": "view",
      "type": "function"
    },
    {
      "inputs": [],
      "name": "DOCTOR_ROLE",
      "outputs": [
        {
          "internalType": "bytes32",
          "name": "",
          "type": "bytes32"
        }
      ],
      "stateMutability": "view",
      "type": "function"
    },
    {
      "inputs": [],
      "name": "PATIENT_ROLE",
      "outputs": [
        {
          "internalType": "bytes32",
          "name": "",
          "type": "bytes32"
        }
      ],
      "stateMutability": "view",
      "type": "function"
    },
    {
      "inputs": [
        {
          "internalType": "address",
          "name": "",
          "type": "address"
        },
        {
          "internalType": "address",
          "name": "",
          "type": "address"
        }
      ],
      "name": "accessGrants",
      "outputs": [
        {
          "internalType": "address",
          "name": "provider",
          "type": "address"
        },
        {
          "internalType": "uint256",
          "name": "expiryTime",
          "type": "uint256"
        },
        {
          "internalType": "bool",
          "name": "isActive",
          "type": "bool"
        }
      ],
      "stateMutability": "view",
      "type": "function"
    },
    {
      "inputs": [
        {
          "internalType": "uint256",
          "name": "_recordId",
          "type": "uint256"
        }
      ],
      "name": "deactivateRecord",
      "outputs": [],
      "stateMutability": "nonpayable",
      "type": "function"
    },
    {
      "inputs": [
        {
          "internalType": "address",
          "name": "_patient",
          "type": "address"
        }
      ],
      "name": "getPatientRecords",
      "outputs": [
        {
          "internalType": "uint256[]",
          "name": "",
          "type": "uint256[]"
        }
      ],
      "stateMutability": "view",
      "type": "function"
    },
    {
      "inputs": [
        {
          "internalType": "uint256",
          "name": "_recordId",
          "type": "uint256"
        }
      ],
      "name": "getRecord",
      "outputs": [
        {
          "internalType": "bytes32",
          "name": "recordHash",
          "type": "bytes32"
        },
        {
          "internalType": "string",
          "name": "ipfsHash",
          "type": "string"
        },
        {
          "internalType": "address",
          "name": "patient",
          "type": "address"
        },
        {
          "internalType": "address",
          "name": "doctor",
          "type": "address"
        },
        {
          "internalType": "string",
          "name": "recordType",
          "type": "string"
        },
        {
          "internalType": "uint256",
          "name": "timestamp",
          "type": "uint256"
        },
        {
          "internalType": "bool",
          "name": "isActive",
          "type": "bool"
        }
      ],
      "stateMutability": "view",
      "type": "function"
    },
    {
      "inputs": [
        {
          "internalType": "bytes32",
          "name": "role",
          "type": "bytes32"
        }
      ],
      "name": "getRoleAdmin",
      "outputs": [
        {
          "internalType": "bytes32",
          "name": "",
          "type": "bytes32"
        }
      ],
      "stateMutability": "view",
      "type": "function"
    },
    {
      "inputs": [
        {
          "internalType": "address",
          "name": "_provider",
          "type": "address"
        },
        {
          "internalType": "uint256",
          "name": "_duration",
          "type": "uint256"
        }
      ],
      "name": "grantAccess",
      "outputs": [],
      "stateMutability": "nonpayable",
      "type": "function"
    },
    {
      "inputs": [
        {
          "internalType": "bytes32",
          "name": "role",
          "type": "bytes32"
        },
        {
          "internalType": "address",
          "name": "account",
          "type": "address"
        }
      ],
      "name": "grantRole",
      "outputs": [],
      "stateMutability": "nonpayable",
      "type": "function"
    },
    {
      "inputs": [
        {
          "internalType": "address",
          "name": "_patient",
          "type": "address"
        },
        {
          "internalType": "address",
          "name": "_provider",
          "type": "address"
        }
      ],
      "name": "hasAccess",
      "outputs": [
        {
          "internalType": "bool",
          "name": "",
          "type": "bool"
        }
      ],
      "stateMutability": "view",
      "type": "function"
    },
    {
      "inputs": [
        {
          "internalType": "bytes32",
          "name": "role",
          "type": "bytes32"
        },
        {
          "internalType": "address",
          "name": "account",
          "type": "address"
        }
      ],
      "name": "hasRole",
      "outputs": [
        {
          "internalType": "bool",
          "name": "",
          "type": "bool"
        }
      ],
      "stateMutability": "view",
      "type": "function"
    },
    {
      "inputs": [
        {
          "internalType": "address",
          "name": "",
          "type": "address"
        },
        {
          "internalType": "uint256",
          "name": "",
          "type": "uint256"
        }
      ],
      "name": "patientRecords",
      "outputs": [
        {
          "internalType": "uint256",
          "name": "",
          "type": "uint256"
        }
      ],
      "stateMutability": "view",
      "type": "function"
    },
    {
      "inputs": [],
      "name": "recordCount",
      "outputs": [
        {
          "internalType": "uint256",
          "name": "",
          "type": "uint256"
        }
      ],
      "stateMutability": "view",
      "type": "function"
    },
    {
      "inputs": [
        {
          "internalType": "bytes32",
          "name": "",
          "type": "bytes32"
        }
      ],
      "name": "recordHashToId",
      "outputs": [
        {
          "internalType": "uint256",
          "name": "",
          "type": "uint256"
        }
      ],
      "stateMutability": "view",
      "type": "function"
    },
    {
      "inputs": [
        {
          "internalType": "uint256",
          "name": "",
          "type": "uint256"
        }
      ],
      "name": "records",
      "outputs": [
        {
          "internalType": "bytes32",
          "name": "recordHash",
          "type": "bytes32"
        },
        {
          "internalType": "string",
          "name": "ipfsHash",
          "type": "string"
        },
        {
          "internalType": "address",
          "name": "patient",
          "type": "address"
        },
        {
          "internalType": "address",
          "name": "doctor",
          "type": "address"
        },
        {
          "internalType": "string",
          "name": "recordType",
          "type": "string"
        },
        {
          "internalType": "uint256",
          "name": "timestamp",
          "type": "uint256"
        },
        {
          "internalType": "bool",
          "name": "isActive",
          "type": "bool"
        }
      ],
      "stateMutability": "view",
      "type": "function"
    },
    {
      "inputs": [
        {
          "internalType": "bytes32",
          "name": "_recordHash",
          "type": "bytes32"
        },
        {
          "internalType": "string",
          "name": "_ipfsHash",
          "type": "string"
        },
        {
          "internalType": "address",
          "name": "_patient",
          "type": "address"
        },
        {
          "internalType": "string",
          "name": "_recordType",
          "type": "string"
        }
      ],
      "name": "registerRecord",
      "outputs": [
        {
          "internalType": "uint256",
          "name": "",
          "type": "uint256"
        }
      ],
      "stateMutability": "nonpayable",
      "type": "function"
    },
    {
      "inputs": [
        {
          "internalType": "bytes32",
          "name": "role",
          "type": "bytes32"
        },
        {
          "internalType": "address",
          "name": "callerConfirmation",
          "type": "address"
        }
      ],
      "name": "renounceRole",
      "outputs": [],
      "stateMutability": "nonpayable",
      "type": "function"
    },
    {
      "inputs": [
        {
          "internalType": "address",
          "name": "_provider",
          "type": "address"
        }
      ],
      "name": "revokeAccess",
      "outputs": [],
      "stateMutability": "nonpayable",
      "type": "function"
    },
    {
      "inputs": [
        {
          "internalType": "bytes32",
          "name": "role",
          "type": "bytes32"
        },
        {
          "internalType": "address",
          "name": "account",
          "type": "address"
        }
      ],
      "name": "revokeRole",
      "outputs": [],
      "stateMutability": "nonpayable",
      "type": "function"
    },
    {
      "inputs": [
        {
          "internalType": "bytes4",
          "name": "interfaceId",
          "type": "bytes4"
        }
      ],
      "name": "supportsInterface",
      "outputs": [
        {
          "internalType": "bool",
          "name": "",
          "type": "bool"
        }
      ],
      "stateMutability": "view",
      "type": "function"
    },
    {
      "inputs": [
        {
          "internalType": "bytes32",
          "name": "_recordHash",
          "type": "bytes32"
        }
      ],
      "name": "verifyRecord",
      "outputs": [
        {
          "internalType": "bool",
          "name": "exists",
          "type": "bool"
        },
        {
          "internalType": "bool",
          "name": "isActive",
          "type": "bool"
        },
        {
          "internalType": "uint256",
          "name": "timestamp",
          "type": "uint256"
        }
      ],
      "stateMutability": "view",
      "type": "function"
    }
  ],
  "bytecode": "0x608060405234801561001057600080fd5b5060017f9b779b17422d0df92223018b32b4d1fa46e071723d6817e2486d003becc55f0055610040600033610046565b506100f2565b6000828152602081815260408083206001600160a01b038516845290915281205460ff166100e8576000838152602081815260408083206001600160a01b03861684529091529020805460ff191660011790556100a03390565b6001600160a01b0316826001600160a01b0316847f2f8788117e7eff1d82e926ec794901d17c78024a50270940304540a733656f0d60405160405180910390a45060016100ec565b5060005b92915050565b61190a806101016000396000f3fe608060405234801561001057600080fd5b50600436106101425760003560e01c80638d9407a8116100b85780639fc7b94c1161007c5780639fc7b94c14610338578063a217fddf1461034b578063ac5cb97d14610353578063d547741f1461037a578063d884e2da1461038d578063fec331f2146103ad57600080fd5b80638d9407a81461028a578063900407bc146102f657806391d14854146102ff57806394f0df61146103125780639df892561461032557600080fd5b8063248a9ca31161010a578063248a9ca3146101dd5780632f2ff15d1461020e578063344610671461022157806336568abe146102345780634d408bcf1461024757806385e685311461027757600080fd5b806301ffc9a71461014757806303e9e6091461016f5780631709ef071461019557806318bd4847146101a857806319c1833f146101c8575b600080fd5b61015a6101553660046113ec565b6103c2565b60405190151581526020015b60405180910390f35b61018261017d36600461141d565b6103f9565b604051610166979695949392919061147c565b61015a6101a33660046114f6565b6106af565b6101bb6101b6366004611529565b610717565b6040516101669190611544565b6101db6101d636600461141d565b610811565b005b6102006101eb36600461141d565b60009081526020819052604090206001015490565b604051908152602001610166565b6101db61021c366004611588565b61091b565b61018261022f36600461141d565b610946565b6101db610242366004611588565b610aa6565b61025a61025536600461141d565b610ade565b604080519315158452911515602084015290820152606001610166565b6101db610285366004611529565b610cab565b6102cf6102983660046114f6565b600260208181526000938452604080852090915291835291208054600182015491909201546001600160a01b039092169160ff1683565b604080516001600160a01b0390941684526020840192909252151590820152606001610166565b61020060055481565b61015a61030d366004611588565b610d81565b6102006103203660046115ab565b610daa565b6101db6103333660046115ab565b610ddb565b610200610346366004611678565b610f60565b610200600081565b6102007f72606200fac42b7dc86b75901d61ecfab2a4a1a6eded478b97a428094891abed81565b6101db610388366004611588565b61120e565b61020061039b36600461141d565b60046020526000908152604090205481565b6102006000805160206118b583398151915281565b60006001600160e01b03198216637965db0b60e01b14806103f357506301ffc9a760e01b6001600160e01b03198316145b92915050565b60006060600080606060008060008811801561041757506005548811155b61045c5760405162461bcd60e51b8152602060048201526011602482015270125b9d985b1a59081c9958dbdc99081251607a1b60448201526064015b60405180910390fd5b6000888152600160208181526040808420815160e0810190925280548252928301805491939284019161048e906116f6565b80601f01602080910402602001604051908101604052809291908181526020018280546104ba906116f6565b80156105075780601f106104dc57610100808354040283529160200191610507565b820191906000526020600020905b8154815290600101906020018083116104ea57829003601f168201915b505050918352505060028201546001600160a01b0390811660208301526003830154166040820152600482018054606090920191610544906116f6565b80601f0160208091040260200160405190810160405280929190818152602001828054610570906116f6565b80156105bd5780601f10610592576101008083540402835291602001916105bd565b820191906000526020600020905b8154815290600101906020018083116105a057829003601f168201915b50505091835250506005820154602082015260069091015460ff1615156040918201528101519091506001600160a01b0316331480610611575080606001516001600160a01b0316336001600160a01b0316145b8061062557506106258160400151336106af565b806106365750610636600033610d81565b6106785760405162461bcd60e51b8152602060048201526013602482015272556e617574686f72697a65642061636365737360681b6044820152606401610453565b8051602082015160408301516060840151608085015160a086015160c090960151949e939d50919b50995097509195509350915050565b6001600160a01b0380831660009081526002602081815260408084208686168552825280842081516060810183528154909616865260018101549286019290925291015460ff1615801591840182905291929161070f5750806020015142105b949350505050565b6060336001600160a01b038316148061075457506107436000805160206118b583398151915233610d81565b8015610754575061075482336106af565b806107655750610765600033610d81565b6107a75760405162461bcd60e51b8152602060048201526013602482015272556e617574686f72697a65642061636365737360681b6044820152606401610453565b6001600160a01b0382166000908152600360209081526040918290208054835181840281018401909452808452909183018282801561080557602002820191906000526020600020905b8154815260200190600101908083116107f1575b50505050509050919050565b6000805160206118b583398151915261082981611233565b60008211801561083b57506005548211155b61087b5760405162461bcd60e51b8152602060048201526011602482015270125b9d985b1a59081c9958dbdc99081251607a1b6044820152606401610453565b6000828152600160205260409020600301546001600160a01b031633146108d75760405162461bcd60e51b815260206004820152601060248201526f2737ba103932b1b7b9321037bbb732b960811b6044820152606401610453565b600082815260016020526040808220600601805460ff191690555183917fb01eee654bd020ff6f14711b8d649a08d09b7a4574a3a622258995bd5dce2ce091a25050565b60008281526020819052604090206001015461093681611233565b6109408383611240565b50505050565b600160208190526000918252604090912080549181018054610967906116f6565b80601f0160208091040260200160405190810160405280929190818152602001828054610993906116f6565b80156109e05780601f106109b5576101008083540402835291602001916109e0565b820191906000526020600020905b8154815290600101906020018083116109c357829003601f168201915b5050506002840154600385015460048601805495966001600160a01b0393841696929093169450919250610a13906116f6565b80601f0160208091040260200160405190810160405280929190818152602001828054610a3f906116f6565b8015610a8c5780601f10610a6157610100808354040283529160200191610a8c565b820191906000526020600020905b815481529060010190602001808311610a6f57829003601f168201915b50505050600583015460069093015491929160ff16905087565b6001600160a01b0381163314610acf5760405163334bd91960e11b815260040160405180910390fd5b610ad982826112d2565b505050565b60008181526004602052604081205481908190808203610b0957600080600093509350935050610ca4565b6000818152600160208181526040808420815160e08101909252805482529283018054919392840191610b3b906116f6565b80601f0160208091040260200160405190810160405280929190818152602001828054610b67906116f6565b8015610bb45780601f10610b8957610100808354040283529160200191610bb4565b820191906000526020600020905b815481529060010190602001808311610b9757829003601f168201915b505050918352505060028201546001600160a01b0390811660208301526003830154166040820152600482018054606090920191610bf1906116f6565b80601f0160208091040260200160405190810160405280929190818152602001828054610c1d906116f6565b8015610c6a5780601f10610c3f57610100808354040283529160200191610c6a565b820191906000526020600020905b815481529060010190602001808311610c4d57829003601f168201915b50505091835250506005820154602082015260069091015460ff16151560409091015260c081015160a09091015160019650909450925050505b9193909250565b7f72606200fac42b7dc86b75901d61ecfab2a4a1a6eded478b97a428094891abed610cd581611233565b6001600160a01b038216610d265760405162461bcd60e51b8152602060048201526018602482015277496e76616c69642070726f7669646572206164647265737360401b6044820152606401610453565b3360008181526002602081815260408084206001600160a01b0388168086529252808420909201805460ff1916905590519092917f825c8be24eb0df19500f63e86c29e7d0d951e73056b889b891d85e40938d9b6e91a35050565b6000918252602082815260408084206001600160a01b0393909316845291905290205460ff1690565b60036020528160005260406000208181548110610dc657600080fd5b90600052602060002001600091509150505481565b7f72606200fac42b7dc86b75901d61ecfab2a4a1a6eded478b97a428094891abed610e0581611233565b6001600160a01b038316610e565760405162461bcd60e51b8152602060048201526018602482015277496e76616c69642070726f7669646572206164647265737360401b6044820152606401610453565b60008211610ea65760405162461bcd60e51b815260206004820152601960248201527f4475726174696f6e206d75737420626520706f736974697665000000000000006044820152606401610453565b6000610eb28342611746565b604080516060810182526001600160a01b038781168083526020808401868152600185870181815233600081815260028087528a82208883528752908a9020985189546001600160a01b03191698169790971788559251918701919091555194909301805460ff191694151594909417909355925184815293945091927f65d0cc1e52d49938ca4ad9f423c79c1b84d914b9a683fbc5d3f93ac3cc5635f5910160405180910390a350505050565b60006000805160206118b5833981519152610f7a81611233565b610f8261133d565b85610fc55760405162461bcd60e51b8152602060048201526013602482015272092dcecc2d8d2c840e4cac6dee4c840d0c2e6d606b1b6044820152606401610453565b6001600160a01b03841661101b5760405162461bcd60e51b815260206004820152601760248201527f496e76616c69642070617469656e7420616464726573730000000000000000006044820152606401610453565b6000868152600460205260409020541561106f5760405162461bcd60e51b81526020600482015260156024820152745265636f726420616c72656164792065786973747360581b6044820152606401610453565b6005805490600061107f83611759565b90915550506005546040805160e08101825288815260208082018981526001600160a01b03891683850152336060840152608083018890524260a0840152600160c084018190526000868152928190529390912082518155905191929091908201906110eb90826117c0565b5060408201516002820180546001600160a01b039283166001600160a01b03199182161790915560608401516003840180549190931691161790556080820151600482019061113a90826117c0565b5060a0820151600582015560c0909101516006909101805460ff191691151591909117905560008781526004602090815260408083208490556001600160a01b0388168084526003835281842080546001810182559085529290932090910183905551889083907f94e2993e50d32371a6c4d34d1108f6a9b42628907989a8d0c6c9f56fb3a63156906111d29033908a904290611880565b60405180910390a4915061120560017f9b779b17422d0df92223018b32b4d1fa46e071723d6817e2486d003becc55f0055565b50949350505050565b60008281526020819052604090206001015461122981611233565b61094083836112d2565b61123d813361136b565b50565b600061124c8383610d81565b6112ca576000838152602081815260408083206001600160a01b03861684529091529020805460ff191660011790556112823390565b6001600160a01b0316826001600160a01b0316847f2f8788117e7eff1d82e926ec794901d17c78024a50270940304540a733656f0d60405160405180910390a45060016103f3565b5060006103f3565b60006112de8383610d81565b156112ca576000838152602081815260408083206001600160a01b0386168085529252808320805460ff1916905551339286917ff6391f5c32d9c69d2a47ea670b442974b53935d1edc7fd64eb21e047a839171b9190a45060016103f3565b6113456113a8565b60027f9b779b17422d0df92223018b32b4d1fa46e071723d6817e2486d003becc55f0055565b6113758282610d81565b6113a45760405163e2517d3f60e01b81526001600160a01b038216600482015260248101839052604401610453565b5050565b7f9b779b17422d0df92223018b32b4d1fa46e071723d6817e2486d003becc55f00546002036113ea57604051633ee5aeb560e01b815260040160405180910390fd5b565b6000602082840312156113fe57600080fd5b81356001600160e01b03198116811461141657600080fd5b9392505050565b60006020828403121561142f57600080fd5b5035919050565b6000815180845260005b8181101561145c57602081850181015186830182015201611440565b506000602082860101526020601f19601f83011685010191505092915050565b87815260e06020820152600061149560e0830189611436565b6001600160a01b0388811660408501528716606084015282810360808401526114be8187611436565b60a0840195909552505090151560c09091015295945050505050565b80356001600160a01b03811681146114f157600080fd5b919050565b6000806040838503121561150957600080fd5b611512836114da565b9150611520602084016114da565b90509250929050565b60006020828403121561153b57600080fd5b611416826114da565b6020808252825182820181905260009190848201906040850190845b8181101561157c57835183529284019291840191600101611560565b50909695505050505050565b6000806040838503121561159b57600080fd5b82359150611520602084016114da565b600080604083850312156115be57600080fd5b6115c7836114da565b946020939093013593505050565b634e487b7160e01b600052604160045260246000fd5b600082601f8301126115fc57600080fd5b813567ffffffffffffffff80821115611617576116176115d5565b604051601f8301601f19908116603f0116810190828211818310171561163f5761163f6115d5565b8160405283815286602085880101111561165857600080fd5b836020870160208301376000602085830101528094505050505092915050565b6000806000806080858703121561168e57600080fd5b84359350602085013567ffffffffffffffff808211156116ad57600080fd5b6116b9888389016115eb565b94506116c7604088016114da565b935060608701359150808211156116dd57600080fd5b506116ea878288016115eb565b91505092959194509250565b600181811c9082168061170a57607f821691505b60208210810361172a57634e487b7160e01b600052602260045260246000fd5b50919050565b634e487b7160e01b600052601160045260246000fd5b808201808211156103f3576103f3611730565b60006001820161176b5761176b611730565b5060010190565b601f821115610ad957600081815260208120601f850160051c810160208610156117995750805b601f850160051c820191505b818110156117b8578281556001016117a5565b505050505050565b815167ffffffffffffffff8111156117da576117da6115d5565b6117ee816117e884546116f6565b84611772565b602080601f831160018114611823576000841561180b5750858301515b600019600386901b1c1916600185901b1785556117b8565b600085815260208120601f198616915b8281101561185257888601518255948401946001909101908401611833565b50858210156118705787850151600019600388901b60f8161c191681555b5050505050600190811b01905550565b6001600160a01b03841681526060602082018190526000906118a490830185611436565b905082604083015294935050505056fe0af1dac7dea2fd7f7738119cec7df099dfad49aa9d2e7d17ba6b60f63ae7411fa26469706673582212201f48373fe7d3b8f89467f5219f5875e182062565faa8aa4df2c95d620f12e79a64736f6c63430008140033",
  "linkReferences": {},
  "deployedLinkReferences": {}
}