{
  "_format": "hh-sol-artifact-1",
  "contractName": "ConsentManager",
  "sourceName": "contracts/ConsentManager.sol",
  "abi": [
    {
      "inputs": [],
      "stateMutability": "nonpayable",
      "type": "constructor"
    },
    {
      "inputs": [],
      "name": "AccessControlBadConfirmation",
      "type": "error"
    },
    {
      "inputs": [
        {
          "internalType": "address",
          "name": "account",
          "type": "address"
        },
        {
          "internalType": "bytes32",
          "name": "neededRole",
          "type": "bytes32"
        }
      ],
      "name": "AccessControlUnauthorizedAccount",
      "type": "error"
    },
    {
      "anonymous": false,
      "inputs": [
        {
          "indexed": true,
          "internalType": "address",
          "name": "patient",
          "type": "address"
        },
        {
          "indexed": true,
          "internalType": "address",
          "name": "provider",
          "type": "address"
        },
        {
          "indexed": false,
          "internalType": "uint256",
          "name": "timestamp",
          "type": "uint256"
        }
      ],
      "name": "ConsentExpired",
      "type": "event"
    },
    {
      "anonymous": false,
      "inputs": [
        {
          "indexed": true,
          "internalType": "address",
          "name": "patient",
          "type": "address"
        },
        {
          "indexed": true,
          "internalType": "address",
          "name": "provider",
          "type": "address"
        },
        {
          "indexed": false,
          "internalType": "string[]",
          "name": "dataTypes",
          "type": "string[]"
        },
        {
          "indexed": false,
          "internalType": "uint256",
          "name": "expiryTime",
          "type": "uint256"
        },
        {
          "indexed": false,
          "internalType": "string",
          "name": "purpose",
          "type": "string"
        }
      ],
      "name": "ConsentGranted",
      "type": "event"
    },
    {
      "anonymous": false,
      "inputs": [
        {
          "indexed": true,
          "internalType": "address",
          "name": "patient",
          "type": "address"
        },
        {
          "indexed": true,
          "internalType": "address",
          "name": "provider",
          "type": "address"
        },
        {
          "indexed": false,
          "internalType": "uint256",
          "name": "timestamp",
          "type": "uint256"
        }
      ],
      "name": "ConsentRevoked",
      "type": "event"
    },
    {
      "anonymous": false,
      "inputs": [
        {
          "indexed": true,
          "internalType": "bytes32",
          "name": "role",
          "type": "bytes32"
        },
        {
          "indexed": true,
          "internalType": "bytes32",
          "name": "previousAdminRole",
          "type": "bytes32"
        },
        {
          "indexed": true,
          "internalType": "bytes32",
          "name": "newAdminRole",
          "type": "bytes32"
        }
      ],
      "name": "RoleAdminChanged",
      "type": "event"
    },
    {
      "anonymous": false,
      "inputs": [
        {
          "indexed": true,
          "internalType": "bytes32",
          "name": "role",
          "type": "bytes32"
        },
        {
          "indexed": true,
          "internalType": "address",
          "name": "account",
          "type": "address"
        },
        {
          "indexed": true,
          "internalType": "address",
          "name": "sender",
          "type": "address"
        }
      ],
      "name": "RoleGranted",
      "type": "event"
    },
    {
      "anonymous": false,
      "inputs": [
        {
          "indexed": true,
          "internalType": "bytes32",
          "name": "role",
          "type": "bytes32"
        },
        {
          "indexed": true,
          "internalType": "address",
          "name": "account",
          "type": "address"
        },
        {
          "indexed": true,
          "internalType": "address",
          "name": "sender",
          "type": "address"
        }
      ],
      "name": "RoleRevoked",
      "type": "event"
    },
    {
      "inputs": [],
      "name": "DEFAULT_ADMIN_ROLE",
      "outputs": [
        {
          "internalType": "bytes32",
          "name": "",
          "type": "bytes32"
        }
      ],
      "stateMutability": "view",
      "type": "function"
    },
    {
      "inputs": [],
      "name": "PATIENT_ROLE",
      "outputs": [
        {
          "internalType": "bytes32",
          "name": "",
          "type": "bytes32"
        }
      ],
      "stateMutability": "view",
      "type": "function"
    },
    {
      "inputs": [
        {
          "internalType": "uint256",
          "name": "",
          "type": "uint256"
        }
      ],
      "name": "auditLog",
      "outputs": [
        {
          "internalType": "address",
          "name": "patient",
          "type": "address"
        },
        {
          "internalType": "address",
          "name": "provider",
          "type": "address"
        },
        {
          "internalType": "string",
          "name": "action",
          "type": "string"
        },
        {
          "internalType": "uint256",
          "name": "timestamp",
          "type": "uint256"
        }
      ],
      "stateMutability": "view",
      "type": "function"
    },
    {
      "inputs": [
        {
          "internalType": "address",
          "name": "_patient",
          "type": "address"
        },
        {
          "internalType": "address",
          "name": "_provider",
          "type": "address"
        },
        {
          "internalType": "string",
          "name": "_dataType",
          "type": "string"
        }
      ],
      "name": "canAccessDataType",
      "outputs": [
        {
          "internalType": "bool",
          "name": "",
          "type": "bool"
        }
      ],
      "stateMutability": "view",
      "type": "function"
    },
    {
      "inputs": [
        {
          "internalType": "address",
          "name": "_patient",
          "type": "address"
        },
        {
          "internalType": "address",
          "name": "_provider",
          "type": "address"
        }
      ],
      "name": "checkConsent",
      "outputs": [
        {
          "internalType": "bool",
          "name": "hasConsent",
          "type": "bool"
        },
        {
          "internalType": "string[]",
          "name": "dataTypes",
          "type": "string[]"
        },
        {
          "internalType": "uint256",
          "name": "expiryTime",
          "type": "uint256"
        }
      ],
      "stateMutability": "view",
      "type": "function"
    },
    {
      "inputs": [
        {
          "internalType": "address",
          "name": "",
          "type": "address"
        },
        {
          "internalType": "address",
          "name": "",
          "type": "address"
        }
      ],
      "name": "consents",
      "outputs": [
        {
          "internalType": "address",
          "name": "provider",
          "type": "address"
        },
        {
          "internalType": "uint256",
          "name": "grantedAt",
          "type": "uint256"
        },
        {
          "internalType": "uint256",
          "name": "expiryTime",
          "type": "uint256"
        },
        {
          "internalType": "bool",
          "name": "isActive",
          "type": "bool"
        },
        {
          "internalType": "string",
          "name": "purpose",
          "type": "string"
        }
      ],
      "stateMutability": "view",
      "type": "function"
    },
    {
      "inputs": [],
      "name": "getAuditLogCount",
      "outputs": [
        {
          "internalType": "uint256",
          "name": "",
          "type": "uint256"
        }
      ],
      "stateMutability": "view",
      "type": "function"
    },
    {
      "inputs": [
        {
          "internalType": "uint256",
          "name": "_index",
          "type": "uint256"
        }
      ],
      "name": "getAuditLogEntry",
      "outputs": [
        {
          "internalType": "address",
          "name": "patient",
          "type": "address"
        },
        {
          "internalType": "address",
          "name": "provider",
          "type": "address"
        },
        {
          "internalType": "string",
          "name": "action",
          "type": "string"
        },
        {
          "internalType": "uint256",
          "name": "timestamp",
          "type": "uint256"
        }
      ],
      "stateMutability": "view",
      "type": "function"
    },
    {
      "inputs": [
        {
          "internalType": "address",
          "name": "_patient",
          "type": "address"
        },
        {
          "internalType": "address",
          "name": "_provider",
          "type": "address"
        }
      ],
      "name": "getConsent",
      "outputs": [
        {
          "internalType": "string[]",
          "name": "dataTypes",
          "type": "string[]"
        },
        {
          "internalType": "uint256",
          "name": "grantedAt",
          "type": "uint256"
        },
        {
          "internalType": "uint256",
          "name": "expiryTime",
          "type": "uint256"
        },
        {
          "internalType": "bool",
          "name": "isActive",
          "type": "bool"
        },
        {
          "internalType": "string",
          "name": "purpose",
          "type": "string"
        }
      ],
      "stateMutability": "view",
      "type": "function"
    },
    {
      "inputs": [
        {
          "internalType": "address",
          "name": "_patient",
          "type": "address"
        }
      ],
      "name": "getPatientProviders",
      "outputs": [
        {
          "internalType": "address[]",
          "name": "",
          "type": "address[]"
        }
      ],
      "stateMutability": "view",
      "type": "function"
    },
    {
      "inputs": [
        {
          "internalType": "bytes32",
          "name": "role",
          "type": "bytes32"
        }
      ],
      "name": "getRoleAdmin",
      "outputs": [
        {
          "internalType": "bytes32",
          "name": "",
          "type": "bytes32"
        }
      ],
      "stateMutability": "view",
      "type": "function"
    },
    {
      "inputs": [
        {
          "internalType": "address",
          "name": "_provider",
          "type": "address"
        },
        {
          "internalType": "string[]",
          "name": "_dataTypes",
          "type": "string[]"
        },
        {
          "internalType": "uint256",
          "name": "_durationDays",
          "type": "uint256"
        },
        {
          "internalType": "string",
          "name": "_purpose",
          "type": "string"
        }
      ],
      "name": "grantConsent",
      "outputs": [],
      "stateMutability": "nonpayable",
      "type": "function"
    },
    {
      "inputs": [
        {
          "internalType": "bytes32",
          "name": "role",
          "type": "bytes32"
        },
        {
          "internalType": "address",
          "name": "account",
          "type": "address"
        }
      ],
      "name": "grantRole",
      "outputs": [],
      "stateMutability": "nonpayable",
      "type": "function"
    },
    {
      "inputs": [
        {
          "internalType": "bytes32",
          "name": "role",
          "type": "bytes32"
        },
        {
          "internalType": "address",
          "name": "account",
          "type": "address"
        }
      ],
      "name": "hasRole",
      "outputs": [
        {
          "internalType": "bool",
          "name": "",
          "type": "bool"
        }
      ],
      "stateMutability": "view",
      "type": "function"
    },
    {
      "inputs": [
        {
          "internalType": "address",
          "name": "",
          "type": "address"
        },
        {
          "internalType": "uint256",
          "name": "",
          "type": "uint256"
        }
      ],
      "name": "patientProviders",
      "outputs": [
        {
          "internalType": "address",
          "name": "",
          "type": "address"
        }
      ],
      "stateMutability": "view",
      "type": "function"
    },
    {
      "inputs": [
        {
          "internalType": "bytes32",
          "name": "role",
          "type": "bytes32"
        },
        {
          "internalType": "address",
          "name": "callerConfirmation",
          "type": "address"
        }
      ],
      "name": "renounceRole",
      "outputs": [],
      "stateMutability": "nonpayable",
      "type": "function"
    },
    {
      "inputs": [
        {
          "internalType": "address",
          "name": "_provider",
          "type": "address"
        }
      ],
      "name": "revokeConsent",
      "outputs": [],
      "stateMutability": "nonpayable",
      "type": "function"
    },
    {
      "inputs": [
        {
          "internalType": "bytes32",
          "name": "role",
          "type": "bytes32"
        },
        {
          "internalType": "address",
          "name": "account",
          "type": "address"
        }
      ],
      "name": "revokeRole",
      "outputs": [],
      "stateMutability": "nonpayable",
      "type": "function"
    },
    {
      "inputs": [
        {
          "internalType": "bytes4",
          "name": "interfaceId",
          "type": "bytes4"
        }
      ],
      "name": "supportsInterface",
      "outputs": [
        {
          "internalType": "bool",
          "name": "",
          "type": "bool"
        }
      ],
      "stateMutability": "view",
      "type": "function"
    }
  ],
  "bytecode": "0x608060405234801561001057600080fd5b5061001c600033610022565b506100ce565b6000828152602081815260408083206001600160a01b038516845290915281205460ff166100c4576000838152602081815260408083206001600160a01b03861684529091529020805460ff1916600117905561007c3390565b6001600160a01b0316826001600160a01b0316847f2f8788117e7eff1d82e926ec794901d17c78024a50270940304540a733656f0d60405160405180910390a45060016100c8565b5060005b92915050565b611ee480620000de6000396000f3fe608060405234801561001057600080fd5b50600436106101215760003560e01c806373576eee116100ad578063ae83af5511610071578063ae83af55146102ab578063d1a48627146102cf578063d547741f146102e2578063f22ac6f1146102f5578063fe21f12e1461030857600080fd5b806373576eee1461023d5780639051aad21461024557806391d1485414610269578063a217fddf1461027c578063ac5cb97d1461028457600080fd5b80632f2ff15d116100f45780632f2ff15d146101c457806336568abe146101d95780633ffaf503146101ec5780635eb45cb114610217578063675292c81461022a57600080fd5b806301ffc9a71461012657806319f1fe211461014e5780631ab64e4b14610171578063248a9ca314610193575b600080fd5b6101396101343660046117d9565b610328565b60405190151581526020015b60405180910390f35b61016161015c366004611803565b61035f565b6040516101459493929190611862565b61018461017f3660046118bb565b610506565b60405161014593929190611946565b6101b66101a1366004611803565b60009081526020819052604090206001015490565b604051908152602001610145565b6101d76101d2366004611971565b610708565b005b6101d76101e7366004611971565b610733565b6101ff6101fa366004611994565b61076b565b6040516001600160a01b039091168152602001610145565b6101d7610225366004611a75565b6107a3565b610139610238366004611b77565b610beb565b6003546101b6565b6102586102533660046118bb565b610e47565b604051610145959493929190611bd5565b610139610277366004611971565b6110b8565b6101b6600081565b6101b67f72606200fac42b7dc86b75901d61ecfab2a4a1a6eded478b97a428094891abed81565b6102be6102b93660046118bb565b6110e1565b604051610145959493929190611c1a565b6101d76102dd366004611c5a565b6111b3565b6101d76102f0366004611971565b611410565b610161610303366004611803565b611435565b61031b610316366004611c5a565b611507565b6040516101459190611c75565b60006001600160e01b03198216637965db0b60e01b148061035957506301ffc9a760e01b6001600160e01b03198316145b92915050565b6000806060600060038054905085106103af5760405162461bcd60e51b815260206004820152600d60248201526c092dcecc2d8d2c840d2dcc8caf609b1b60448201526064015b60405180910390fd5b6103ba6000336110b8565b6103f35760405162461bcd60e51b815260206004820152600a60248201526941646d696e206f6e6c7960b01b60448201526064016103a6565b60006003868154811061040857610408611cc2565b600091825260209182902060408051608081018252600490930290910180546001600160a01b039081168452600182015416938301939093526002830180549293929184019161045790611cd8565b80601f016020809104026020016040519081016040528092919081815260200182805461048390611cd8565b80156104d05780601f106104a5576101008083540402835291602001916104d0565b820191906000526020600020905b8154815290600101906020018083116104b357829003601f168201915b50505091835250506003919091015460209182015281519082015160408301516060909301519199909850919650945092505050565b6001600160a01b03808316600090815260016020818152604080842086861685528252808420815160c081018352815490961686529283018054825181850281018501909352808352949560609587958695929490938584019391929091879084015b8282101561061557838290600052602060002001805461058890611cd8565b80601f01602080910402602001604051908101604052809291908181526020018280546105b490611cd8565b80156106015780601f106105d657610100808354040283529160200191610601565b820191906000526020600020905b8154815290600101906020018083116105e457829003601f168201915b505050505081526020019060010190610569565b505050908252506002820154602082015260038201546040820152600482015460ff161515606082015260058201805460809092019161065490611cd8565b80601f016020809104026020016040519081016040528092919081815260200182805461068090611cd8565b80156106cd5780601f106106a2576101008083540402835291602001916106cd565b820191906000526020600020905b8154815290600101906020018083116106b057829003601f168201915b50505050508152505090506000816080015180156106ee5750816060015142105b602083015160609093015190989297509550909350505050565b600082815260208190526040902060010154610723816115d5565b61072d83836115e2565b50505050565b6001600160a01b038116331461075c5760405163334bd91960e11b815260040160405180910390fd5b6107668282611674565b505050565b6002602052816000526040600020818154811061078757600080fd5b6000918252602090912001546001600160a01b03169150829050565b7f72606200fac42b7dc86b75901d61ecfab2a4a1a6eded478b97a428094891abed6107cd816115d5565b6001600160a01b03851661081e5760405162461bcd60e51b8152602060048201526018602482015277496e76616c69642070726f7669646572206164647265737360401b60448201526064016103a6565b600084511161086f5760405162461bcd60e51b815260206004820152601760248201527f4d7573742073706563696679206461746120747970657300000000000000000060448201526064016103a6565b600083118015610881575061016d8311155b6108c05760405162461bcd60e51b815260206004820152601060248201526f24b73b30b634b210323ab930ba34b7b760811b60448201526064016103a6565b60006108cf8462015180611d28565b6108d99042611d3f565b9050600060016000336001600160a01b03166001600160a01b031681526020019081526020016000206000886001600160a01b03166001600160a01b0316815260200190815260200160002060040160009054906101000a900460ff161590506040518060c00160405280886001600160a01b031681526020018781526020014281526020018381526020016001151581526020018581525060016000336001600160a01b03166001600160a01b031681526020019081526020016000206000896001600160a01b03166001600160a01b0316815260200190815260200160002060008201518160000160006101000a8154816001600160a01b0302191690836001600160a01b031602179055506020820151816001019080519060200190610a0392919061171c565b506040820151600282015560608201516003820155608082015160048201805460ff191691151591909117905560a08201516005820190610a449082611da0565b509050508015610a87573360009081526002602090815260408220805460018101825590835291200180546001600160a01b0319166001600160a01b0389161790555b604080516080810182523381526001600160a01b03898116602080840191825284518086018652600781526619dc985b9d195960ca1b9181019190915293830193845242606084015260038054600181018255600091909152835160049091027fc2575a0e9e593c00f959f8c92f12db2869c3395a3b0502d05e2516446f71f85b810180549285166001600160a01b031993841617815592517fc2575a0e9e593c00f959f8c92f12db2869c3395a3b0502d05e2516446f71f85c820180549190951692169190911790925592519192917fc2575a0e9e593c00f959f8c92f12db2869c3395a3b0502d05e2516446f71f85d90910190610b869082611da0565b50606082015181600301555050866001600160a01b0316336001600160a01b03167f049466f584162d844dc85936227a08b67a3f211dc83aa5a51367e17080fd5429888588604051610bda93929190611e60565b60405180910390a350505050505050565b6001600160a01b03808416600090815260016020818152604080842087861685528252808420815160c0810183528154909616865292830180548251818502810185019093528083529495869590949385810193929190879084015b82821015610cf3578382906000526020600020018054610c6690611cd8565b80601f0160208091040260200160405190810160405280929190818152602001828054610c9290611cd8565b8015610cdf5780601f10610cb457610100808354040283529160200191610cdf565b820191906000526020600020905b815481529060010190602001808311610cc257829003601f168201915b505050505081526020019060010190610c47565b505050908252506002820154602082015260038201546040820152600482015460ff1615156060820152600582018054608090920191610d3290611cd8565b80601f0160208091040260200160405190810160405280929190818152602001828054610d5e90611cd8565b8015610dab5780601f10610d8057610100808354040283529160200191610dab565b820191906000526020600020905b815481529060010190602001808311610d8e57829003601f168201915b505050505081525050905080608001511580610dcb575080606001514210155b15610dda576000915050610e40565b60005b816020015151811015610e3957838051906020012082602001518281518110610e0857610e08611cc2565b60200260200101518051906020012003610e2757600192505050610e40565b80610e3181611e95565b915050610ddd565b5060009150505b9392505050565b60606000808083336001600160a01b0388161480610e6d5750336001600160a01b038716145b80610e7e5750610e7e6000336110b8565b610eb95760405162461bcd60e51b815260206004820152600c60248201526b155b985d5d1a1bdc9a5e995960a21b60448201526064016103a6565b6001600160a01b0380881660009081526001602081815260408084208b861685528252808420815160c08101835281549096168652928301805482518185028101850190935280835294959485840193879084015b82821015610fba578382906000526020600020018054610f2d90611cd8565b80601f0160208091040260200160405190810160405280929190818152602001828054610f5990611cd8565b8015610fa65780601f10610f7b57610100808354040283529160200191610fa6565b820191906000526020600020905b815481529060010190602001808311610f8957829003601f168201915b505050505081526020019060010190610f0e565b505050908252506002820154602082015260038201546040820152600482015460ff1615156060820152600582018054608090920191610ff990611cd8565b80601f016020809104026020016040519081016040528092919081815260200182805461102590611cd8565b80156110725780601f1061104757610100808354040283529160200191611072565b820191906000526020600020905b81548152906001019060200180831161105557829003601f168201915b5050505050815250509050806020015181604001518260600151836080015180156110a05750836060015142105b60a090940151929b919a509850919650945092505050565b6000918252602082815260408084206001600160a01b0393909316845291905290205460ff1690565b6001602090815260009283526040808420909152908252902080546002820154600383015460048401546005850180546001600160a01b03909516959394929360ff9092169261113090611cd8565b80601f016020809104026020016040519081016040528092919081815260200182805461115c90611cd8565b80156111a95780601f1061117e576101008083540402835291602001916111a9565b820191906000526020600020905b81548152906001019060200180831161118c57829003601f168201915b5050505050905085565b7f72606200fac42b7dc86b75901d61ecfab2a4a1a6eded478b97a428094891abed6111dd816115d5565b6001600160a01b03821661122e5760405162461bcd60e51b8152602060048201526018602482015277496e76616c69642070726f7669646572206164647265737360401b60448201526064016103a6565b3360009081526001602090815260408083206001600160a01b038616845290915290206004015460ff166112985760405162461bcd60e51b8152602060048201526011602482015270139bc81858dd1a5d994818dbdb9cd95b9d607a1b60448201526064016103a6565b3360008181526001602081815260408084206001600160a01b038881168087529184528286206004908101805460ff1916905583516080810185529788528785019283528351808501855260078152661c995d9bdad95960ca1b958101959095529287019384524260608801526003805495860181559095528551939091027fc2575a0e9e593c00f959f8c92f12db2869c3395a3b0502d05e2516446f71f85b810180549486166001600160a01b031995861617815591517fc2575a0e9e593c00f959f8c92f12db2869c3395a3b0502d05e2516446f71f85c8201805491909616941693909317909355517fc2575a0e9e593c00f959f8c92f12db2869c3395a3b0502d05e2516446f71f85d909101906113b29082611da0565b50606082015181600301555050816001600160a01b0316336001600160a01b03167fb975ee8b7b7c48fd313db9b5ca976e213d1d7bd3136fc5c926dd5ff00077e47f4260405161140491815260200190565b60405180910390a35050565b60008281526020819052604090206001015461142b816115d5565b61072d8383611674565b6003818154811061144557600080fd5b60009182526020909120600490910201805460018201546002830180546001600160a01b03938416955092909116929161147e90611cd8565b80601f01602080910402602001604051908101604052809291908181526020018280546114aa90611cd8565b80156114f75780601f106114cc576101008083540402835291602001916114f7565b820191906000526020600020905b8154815290600101906020018083116114da57829003601f168201915b5050505050908060030154905084565b6060336001600160a01b038316148061152657506115266000336110b8565b6115615760405162461bcd60e51b815260206004820152600c60248201526b155b985d5d1a1bdc9a5e995960a21b60448201526064016103a6565b6001600160a01b038216600090815260026020908152604091829020805483518184028101840190945280845290918301828280156115c957602002820191906000526020600020905b81546001600160a01b031681526001909101906020018083116115ab575b50505050509050919050565b6115df81336116df565b50565b60006115ee83836110b8565b61166c576000838152602081815260408083206001600160a01b03861684529091529020805460ff191660011790556116243390565b6001600160a01b0316826001600160a01b0316847f2f8788117e7eff1d82e926ec794901d17c78024a50270940304540a733656f0d60405160405180910390a4506001610359565b506000610359565b600061168083836110b8565b1561166c576000838152602081815260408083206001600160a01b0386168085529252808320805460ff1916905551339286917ff6391f5c32d9c69d2a47ea670b442974b53935d1edc7fd64eb21e047a839171b9190a4506001610359565b6116e982826110b8565b6117185760405163e2517d3f60e01b81526001600160a01b0382166004820152602481018390526044016103a6565b5050565b828054828255906000526020600020908101928215611762579160200282015b8281111561176257825182906117529082611da0565b509160200191906001019061173c565b5061176e929150611772565b5090565b8082111561176e576000611786828261178f565b50600101611772565b50805461179b90611cd8565b6000825580601f106117ab575050565b601f0160209004906000526020600020908101906115df91905b8082111561176e57600081556001016117c5565b6000602082840312156117eb57600080fd5b81356001600160e01b031981168114610e4057600080fd5b60006020828403121561181557600080fd5b5035919050565b6000815180845260005b8181101561184257602081850181015186830182015201611826565b506000602082860101526020601f19601f83011685010191505092915050565b6001600160a01b0385811682528416602082015260806040820181905260009061188e9083018561181c565b905082606083015295945050505050565b80356001600160a01b03811681146118b657600080fd5b919050565b600080604083850312156118ce57600080fd5b6118d78361189f565b91506118e56020840161189f565b90509250929050565b600082825180855260208086019550808260051b84010181860160005b8481101561193957601f1986840301895261192783835161181c565b9884019892509083019060010161190b565b5090979650505050505050565b831515815260606020820152600061196160608301856118ee565b9050826040830152949350505050565b6000806040838503121561198457600080fd5b823591506118e56020840161189f565b600080604083850312156119a757600080fd5b6119b08361189f565b946020939093013593505050565b634e487b7160e01b600052604160045260246000fd5b604051601f8201601f1916810167ffffffffffffffff811182821017156119fd576119fd6119be565b604052919050565b600082601f830112611a1657600080fd5b813567ffffffffffffffff811115611a3057611a306119be565b611a43601f8201601f19166020016119d4565b818152846020838601011115611a5857600080fd5b816020850160208301376000918101602001919091529392505050565b60008060008060808587031215611a8b57600080fd5b611a948561189f565b935060208086013567ffffffffffffffff80821115611ab257600080fd5b818801915088601f830112611ac657600080fd5b813581811115611ad857611ad86119be565b8060051b611ae78582016119d4565b918252838101850191858101908c841115611b0157600080fd5b86860192505b83831015611b3d57823585811115611b1f5760008081fd5b611b2d8e89838a0101611a05565b8352509186019190860190611b07565b9850505050604088013594506060880135925080831115611b5d57600080fd5b5050611b6b87828801611a05565b91505092959194509250565b600080600060608486031215611b8c57600080fd5b611b958461189f565b9250611ba36020850161189f565b9150604084013567ffffffffffffffff811115611bbf57600080fd5b611bcb86828701611a05565b9150509250925092565b60a081526000611be860a08301886118ee565b86602084015285604084015284151560608401528281036080840152611c0e818561181c565b98975050505050505050565b60018060a01b0386168152846020820152836040820152821515606082015260a060808201526000611c4f60a083018461181c565b979650505050505050565b600060208284031215611c6c57600080fd5b610e408261189f565b6020808252825182820181905260009190848201906040850190845b81811015611cb65783516001600160a01b031683529284019291840191600101611c91565b50909695505050505050565b634e487b7160e01b600052603260045260246000fd5b600181811c90821680611cec57607f821691505b602082108103611d0c57634e487b7160e01b600052602260045260246000fd5b50919050565b634e487b7160e01b600052601160045260246000fd5b808202811582820484141761035957610359611d12565b8082018082111561035957610359611d12565b601f82111561076657600081815260208120601f850160051c81016020861015611d795750805b601f850160051c820191505b81811015611d9857828155600101611d85565b505050505050565b815167ffffffffffffffff811115611dba57611dba6119be565b611dce81611dc88454611cd8565b84611d52565b602080601f831160018114611e035760008415611deb5750858301515b600019600386901b1c1916600185901b178555611d98565b600085815260208120601f198616915b82811015611e3257888601518255948401946001909101908401611e13565b5085821015611e505787850151600019600388901b60f8161c191681555b5050505050600190811b01905550565b606081526000611e7360608301866118ee565b8460208401528281036040840152611e8b818561181c565b9695505050505050565b600060018201611ea757611ea7611d12565b506001019056fea26469706673582212205f451894999ad04a79aa25169a4ef830e0ff71e0e26932e9ddc1e28858e9585064736f6c63430008140033",
  "linkReferences": {},
  "deployedLinkReferences": {}
}